{
  "address": "0x56FffE3218156288941Ab87B511E93ff128D8162",
  "abi": [
    {
      "inputs": [],
      "stateMutability": "nonpayable",
      "type": "constructor"
    },
    {
      "anonymous": false,
      "inputs": [
        {
          "indexed": true,
          "internalType": "address",
          "name": "controller",
          "type": "address"
        },
        {
          "indexed": false,
          "internalType": "bool",
          "name": "enabled",
          "type": "bool"
        }
      ],
      "name": "ControllerChanged",
      "type": "event"
    },
    {
      "anonymous": false,
      "inputs": [
        {
          "indexed": true,
          "internalType": "address",
          "name": "previousOwner",
          "type": "address"
        },
        {
          "indexed": true,
          "internalType": "address",
          "name": "newOwner",
          "type": "address"
        }
      ],
      "name": "OwnershipTransferred",
      "type": "event"
    },
    {
      "inputs": [
        {
          "internalType": "uint256",
          "name": "tokenId",
          "type": "uint256"
        }
      ],
      "name": "burnToken",
      "outputs": [],
      "stateMutability": "nonpayable",
      "type": "function"
    },
    {
      "inputs": [
        {
          "internalType": "address",
          "name": "",
          "type": "address"
        }
      ],
      "name": "controllers",
      "outputs": [
        {
          "internalType": "bool",
          "name": "",
          "type": "bool"
        }
      ],
      "stateMutability": "view",
      "type": "function"
    },
    {
      "inputs": [],
      "name": "decentraName",
      "outputs": [
        {
          "internalType": "contract DecentraName",
          "name": "",
          "type": "address"
        }
      ],
      "stateMutability": "view",
      "type": "function"
    },
    {
      "inputs": [
        {
          "internalType": "uint256",
          "name": "tokenId",
          "type": "uint256"
        }
      ],
      "name": "existsToken",
      "outputs": [
        {
          "internalType": "bool",
          "name": "",
          "type": "bool"
        }
      ],
      "stateMutability": "view",
      "type": "function"
    },
    {
      "inputs": [
        {
          "internalType": "address",
          "name": "spender",
          "type": "address"
        },
        {
          "internalType": "uint256",
          "name": "tokenId",
          "type": "uint256"
        }
      ],
      "name": "isApprovedOrOwner",
      "outputs": [
        {
          "internalType": "bool",
          "name": "",
          "type": "bool"
        }
      ],
      "stateMutability": "view",
      "type": "function"
    },
    {
      "inputs": [
        {
          "internalType": "address",
          "name": "owner",
          "type": "address"
        },
        {
          "internalType": "uint256",
          "name": "id",
          "type": "uint256"
        }
      ],
      "name": "mintToken",
      "outputs": [],
      "stateMutability": "nonpayable",
      "type": "function"
    },
    {
      "inputs": [],
      "name": "owner",
      "outputs": [
        {
          "internalType": "address",
          "name": "",
          "type": "address"
        }
      ],
      "stateMutability": "view",
      "type": "function"
    },
    {
      "inputs": [
        {
          "internalType": "uint256",
          "name": "tokenId",
          "type": "uint256"
        }
      ],
      "name": "ownerOf",
      "outputs": [
        {
          "internalType": "address",
          "name": "",
          "type": "address"
        }
      ],
      "stateMutability": "view",
      "type": "function"
    },
    {
      "inputs": [],
      "name": "renounceOwnership",
      "outputs": [],
      "stateMutability": "nonpayable",
      "type": "function"
    },
    {
      "inputs": [
        {
          "internalType": "address",
          "name": "controller",
          "type": "address"
        },
        {
          "internalType": "bool",
          "name": "enabled",
          "type": "bool"
        }
      ],
      "name": "setController",
      "outputs": [],
      "stateMutability": "nonpayable",
      "type": "function"
    },
    {
      "inputs": [
        {
          "internalType": "address",
          "name": "newOwner",
          "type": "address"
        }
      ],
      "name": "transferOwnership",
      "outputs": [],
      "stateMutability": "nonpayable",
      "type": "function"
    },
    {
      "inputs": [
        {
          "internalType": "address",
          "name": "transferTo",
          "type": "address"
        },
        {
          "internalType": "uint256",
          "name": "id",
          "type": "uint256"
        },
        {
          "internalType": "uint8",
          "name": "v",
          "type": "uint8"
        },
        {
          "internalType": "bytes32",
          "name": "r",
          "type": "bytes32"
        },
        {
          "internalType": "bytes32",
          "name": "s",
          "type": "bytes32"
        },
        {
          "internalType": "address",
          "name": "sender",
          "type": "address"
        }
      ],
      "name": "transferToken",
      "outputs": [],
      "stateMutability": "nonpayable",
      "type": "function"
    }
  ],
  "transactionHash": "0x1da9c8cdf2f688f9badc636e0db7aecbc0a3fb2c811ab0df13005741f9515771",
  "args": [],
  "solcInputHash": "8acfa5d5fc60624983e398adee1f7112",
  "bytecode": "0x608060405234801561001057600080fd5b5061002d61002261009b60201b60201c565b6100a360201b60201c565b60405161003990610167565b604051809103906000f080158015610055573d6000803e3d6000fd5b50600260006101000a81548173ffffffffffffffffffffffffffffffffffffffff021916908373ffffffffffffffffffffffffffffffffffffffff160217905550610175565b600033905090565b60008060009054906101000a900473ffffffffffffffffffffffffffffffffffffffff169050816000806101000a81548173ffffffffffffffffffffffffffffffffffffffff021916908373ffffffffffffffffffffffffffffffffffffffff1602179055508173ffffffffffffffffffffffffffffffffffffffff168173ffffffffffffffffffffffffffffffffffffffff167f8be0079c531659141344cd1fd0a4f28419497f9722a3daafe3b4186f6b6457e060405160405180910390a35050565b6130f380620017f983390190565b61167480620001856000396000f3fe608060405234801561001057600080fd5b50600436106100b45760003560e01c80638da5cb5b116100715780638da5cb5b1461018b578063ba6c1418146101a9578063da8c229e146101c5578063e0dba60f146101f5578063f2fde38b14610211578063fae007421461022d576100b4565b80633b0468b6146100b9578063430c2081146100e95780636352211e14610119578063715018a61461014957806379c65068146101535780637b47ec1a1461016f575b600080fd5b6100d360048036038101906100ce9190611039565b61024b565b6040516100e09190611220565b60405180910390f35b61010360048036038101906100fe9190610f4b565b6102ff565b6040516101109190611220565b60405180910390f35b610133600480360381019061012e9190611039565b6103b6565b60405161014091906111dc565b60405180910390f35b61015161046a565b005b61016d60048036038101906101689190610f4b565b6104f2565b005b61018960048036038101906101849190611039565b610611565b005b61019361072d565b6040516101a091906111dc565b60405180910390f35b6101c360048036038101906101be9190610f87565b610756565b005b6101df60048036038101906101da9190610ebd565b610afb565b6040516101ec9190611220565b60405180910390f35b61020f600480360381019061020a9190610f0f565b610b1b565b005b61022b60048036038101906102269190610ebd565b610c40565b005b610235610d38565b604051610242919061130a565b60405180910390f35b6000600260009054906101000a900473ffffffffffffffffffffffffffffffffffffffff1673ffffffffffffffffffffffffffffffffffffffff16633b0468b6836040518263ffffffff1660e01b81526004016102a891906113c5565b60206040518083038186803b1580156102c057600080fd5b505afa1580156102d4573d6000803e3d6000fd5b505050506040513d601f19601f820116820180604052508101906102f89190611010565b9050919050565b6000600260009054906101000a900473ffffffffffffffffffffffffffffffffffffffff1673ffffffffffffffffffffffffffffffffffffffff1663430c208184846040518363ffffffff1660e01b815260040161035e9291906111f7565b60206040518083038186803b15801561037657600080fd5b505afa15801561038a573d6000803e3d6000fd5b505050506040513d601f19601f820116820180604052508101906103ae9190611010565b905092915050565b6000600260009054906101000a900473ffffffffffffffffffffffffffffffffffffffff1673ffffffffffffffffffffffffffffffffffffffff16636352211e836040518263ffffffff1660e01b815260040161041391906113c5565b60206040518083038186803b15801561042b57600080fd5b505afa15801561043f573d6000803e3d6000fd5b505050506040513d601f19601f820116820180604052508101906104639190610ee6565b9050919050565b610472610d5e565b73ffffffffffffffffffffffffffffffffffffffff1661049061072d565b73ffffffffffffffffffffffffffffffffffffffff16146104e6576040517f08c379a00000000000000000000000000000000000000000000000000000000081526004016104dd90611385565b60405180910390fd5b6104f06000610d66565b565b600160003373ffffffffffffffffffffffffffffffffffffffff1673ffffffffffffffffffffffffffffffffffffffff16815260200190815260200160002060009054906101000a900460ff1661057e576040517f08c379a000000000000000000000000000000000000000000000000000000000815260040161057590611365565b60405180910390fd5b600260009054906101000a900473ffffffffffffffffffffffffffffffffffffffff1673ffffffffffffffffffffffffffffffffffffffff166379c6506883836040518363ffffffff1660e01b81526004016105db9291906111f7565b600060405180830381600087803b1580156105f557600080fd5b505af1158015610609573d6000803e3d6000fd5b505050505050565b600160003373ffffffffffffffffffffffffffffffffffffffff1673ffffffffffffffffffffffffffffffffffffffff16815260200190815260200160002060009054906101000a900460ff1661069d576040517f08c379a000000000000000000000000000000000000000000000000000000000815260040161069490611365565b60405180910390fd5b600260009054906101000a900473ffffffffffffffffffffffffffffffffffffffff1673ffffffffffffffffffffffffffffffffffffffff16637b47ec1a826040518263ffffffff1660e01b81526004016106f891906113c5565b600060405180830381600087803b15801561071257600080fd5b505af1158015610726573d6000803e3d6000fd5b5050505050565b60008060009054906101000a900473ffffffffffffffffffffffffffffffffffffffff16905090565b600160003373ffffffffffffffffffffffffffffffffffffffff1673ffffffffffffffffffffffffffffffffffffffff16815260200190815260200160002060009054906101000a900460ff166107e2576040517f08c379a00000000000000000000000000000000000000000000000000000000081526004016107d990611365565b60405180910390fd5b600046905060007f8b73c3c69bb8fe3d512ecc4cf759cc79239f7b179b0ffacaa9a75d522b39400f6040518060400160405280600c81526020017f646563656e7472616e616d650000000000000000000000000000000000000000815250805190602001206040518060400160405280600181526020017f310000000000000000000000000000000000000000000000000000000000000081525080519060200120843060405160200161089a959493929190611272565b60405160208183030381529060405280519060200120905060007fd40888cf67bae62548289d766b50d28607cfd4eda4d7664f5e6de8517148524489896040516020016108e99392919061123b565b604051602081830303815290604052805190602001209050600082826040516020016109169291906111a5565b60405160208183030381529060405280519060200120905060006001828a8a8a6040516000815260200160405260405161095394939291906112c5565b6020604051602081039080840390855afa158015610975573d6000803e3d6000fd5b5050506020604051035190508573ffffffffffffffffffffffffffffffffffffffff168173ffffffffffffffffffffffffffffffffffffffff16146109ef576040517f08c379a00000000000000000000000000000000000000000000000000000000081526004016109e6906113a5565b60405180910390fd5b600073ffffffffffffffffffffffffffffffffffffffff168173ffffffffffffffffffffffffffffffffffffffff161415610a5f576040517f08c379a0000000000000000000000000000000000000000000000000000000008152600401610a5690611325565b60405180910390fd5b600260009054906101000a900473ffffffffffffffffffffffffffffffffffffffff1673ffffffffffffffffffffffffffffffffffffffff16631072cbea8c8c6040518363ffffffff1660e01b8152600401610abc9291906111f7565b600060405180830381600087803b158015610ad657600080fd5b505af1158015610aea573d6000803e3d6000fd5b505050505050505050505050505050565b60016020528060005260406000206000915054906101000a900460ff1681565b610b23610d5e565b73ffffffffffffffffffffffffffffffffffffffff16610b4161072d565b73ffffffffffffffffffffffffffffffffffffffff1614610b97576040517f08c379a0000000000000000000000000000000000000000000000000000000008152600401610b8e90611385565b60405180910390fd5b80600160008473ffffffffffffffffffffffffffffffffffffffff1673ffffffffffffffffffffffffffffffffffffffff16815260200190815260200160002060006101000a81548160ff0219169083151502179055508173ffffffffffffffffffffffffffffffffffffffff167f4c97694570a07277810af7e5669ffd5f6a2d6b74b6e9a274b8b870fd5114cf8782604051610c349190611220565b60405180910390a25050565b610c48610d5e565b73ffffffffffffffffffffffffffffffffffffffff16610c6661072d565b73ffffffffffffffffffffffffffffffffffffffff1614610cbc576040517f08c379a0000000000000000000000000000000000000000000000000000000008152600401610cb390611385565b60405180910390fd5b600073ffffffffffffffffffffffffffffffffffffffff168173ffffffffffffffffffffffffffffffffffffffff161415610d2c576040517f08c379a0000000000000000000000000000000000000000000000000000000008152600401610d2390611345565b60405180910390fd5b610d3581610d66565b50565b600260009054906101000a900473ffffffffffffffffffffffffffffffffffffffff1681565b600033905090565b60008060009054906101000a900473ffffffffffffffffffffffffffffffffffffffff169050816000806101000a81548173ffffffffffffffffffffffffffffffffffffffff021916908373ffffffffffffffffffffffffffffffffffffffff1602179055508173ffffffffffffffffffffffffffffffffffffffff168173ffffffffffffffffffffffffffffffffffffffff167f8be0079c531659141344cd1fd0a4f28419497f9722a3daafe3b4186f6b6457e060405160405180910390a35050565b600081359050610e39816115cb565b92915050565b600081519050610e4e816115cb565b92915050565b600081359050610e63816115e2565b92915050565b600081519050610e78816115e2565b92915050565b600081359050610e8d816115f9565b92915050565b600081359050610ea281611610565b92915050565b600081359050610eb781611627565b92915050565b600060208284031215610ecf57600080fd5b6000610edd84828501610e2a565b91505092915050565b600060208284031215610ef857600080fd5b6000610f0684828501610e3f565b91505092915050565b60008060408385031215610f2257600080fd5b6000610f3085828601610e2a565b9250506020610f4185828601610e54565b9150509250929050565b60008060408385031215610f5e57600080fd5b6000610f6c85828601610e2a565b9250506020610f7d85828601610e93565b9150509250929050565b60008060008060008060c08789031215610fa057600080fd5b6000610fae89828a01610e2a565b9650506020610fbf89828a01610e93565b9550506040610fd089828a01610ea8565b9450506060610fe189828a01610e7e565b9350506080610ff289828a01610e7e565b92505060a061100389828a01610e2a565b9150509295509295509295565b60006020828403121561102257600080fd5b600061103084828501610e69565b91505092915050565b60006020828403121561104b57600080fd5b600061105984828501610e93565b91505092915050565b61106b816113fc565b82525050565b61107a8161140e565b82525050565b6110898161141a565b82525050565b6110a061109b8261141a565b61147f565b82525050565b6110af8161145b565b82525050565b60006110c26018836113e0565b91506110cd82611489565b602082019050919050565b60006110e56026836113e0565b91506110f0826114b2565b604082019050919050565b60006111086002836113f1565b915061111382611501565b600282019050919050565b600061112b6028836113e0565b91506111368261152a565b604082019050919050565b600061114e6020836113e0565b915061115982611579565b602082019050919050565b60006111716020836113e0565b915061117c826115a2565b602082019050919050565b61119081611444565b82525050565b61119f8161144e565b82525050565b60006111b0826110fb565b91506111bc828561108f565b6020820191506111cc828461108f565b6020820191508190509392505050565b60006020820190506111f16000830184611062565b92915050565b600060408201905061120c6000830185611062565b6112196020830184611187565b9392505050565b60006020820190506112356000830184611071565b92915050565b60006060820190506112506000830186611080565b61125d6020830185611062565b61126a6040830184611187565b949350505050565b600060a0820190506112876000830188611080565b6112946020830187611080565b6112a16040830186611080565b6112ae6060830185611187565b6112bb6080830184611062565b9695505050505050565b60006080820190506112da6000830187611080565b6112e76020830186611196565b6112f46040830185611080565b6113016060830184611080565b95945050505050565b600060208201905061131f60008301846110a6565b92915050565b6000602082019050818103600083015261133e816110b5565b9050919050565b6000602082019050818103600083015261135e816110d8565b9050919050565b6000602082019050818103600083015261137e8161111e565b9050919050565b6000602082019050818103600083015261139e81611141565b9050919050565b600060208201905081810360008301526113be81611164565b9050919050565b60006020820190506113da6000830184611187565b92915050565b600082825260208201905092915050565b600081905092915050565b600061140782611424565b9050919050565b60008115159050919050565b6000819050919050565b600073ffffffffffffffffffffffffffffffffffffffff82169050919050565b6000819050919050565b600060ff82169050919050565b60006114668261146d565b9050919050565b600061147882611424565b9050919050565b6000819050919050565b7f45434453413a20696e76616c6964207369676e61747572650000000000000000600082015250565b7f4f776e61626c653a206e6577206f776e657220697320746865207a65726f206160008201527f6464726573730000000000000000000000000000000000000000000000000000602082015250565b7f1901000000000000000000000000000000000000000000000000000000000000600082015250565b7f436f6e74726f6c6c61626c653a2043616c6c6572206973206e6f74206120636f60008201527f6e74726f6c6c6572000000000000000000000000000000000000000000000000602082015250565b7f4f776e61626c653a2063616c6c6572206973206e6f7420746865206f776e6572600082015250565b7f7472616e73666572546f6b656e3a20696e76616c6964207369676e6174757265600082015250565b6115d4816113fc565b81146115df57600080fd5b50565b6115eb8161140e565b81146115f657600080fd5b50565b6116028161141a565b811461160d57600080fd5b50565b61161981611444565b811461162457600080fd5b50565b6116308161144e565b811461163b57600080fd5b5056fea2646970667358221220d05b2cf25e28e4e97ad03ab5099bb3761815ed1ec7cabc67cb3c57deb496c37d64736f6c6343000804003360806040523480156200001157600080fd5b506040518060400160405280600381526020017f44434e00000000000000000000000000000000000000000000000000000000008152506040518060400160405280600c81526020017f446563656e7472614e616d650000000000000000000000000000000000000000815250816000908051906020019062000096929190620001a6565b508060019080519060200190620000af929190620001a6565b505050620000d2620000c6620000d860201b60201c565b620000e060201b60201c565b620002bb565b600033905090565b6000600660009054906101000a900473ffffffffffffffffffffffffffffffffffffffff16905081600660006101000a81548173ffffffffffffffffffffffffffffffffffffffff021916908373ffffffffffffffffffffffffffffffffffffffff1602179055508173ffffffffffffffffffffffffffffffffffffffff168173ffffffffffffffffffffffffffffffffffffffff167f8be0079c531659141344cd1fd0a4f28419497f9722a3daafe3b4186f6b6457e060405160405180910390a35050565b828054620001b49062000256565b90600052602060002090601f016020900481019282620001d8576000855562000224565b82601f10620001f357805160ff191683800117855562000224565b8280016001018555821562000224579182015b828111156200022357825182559160200191906001019062000206565b5b50905062000233919062000237565b5090565b5b808211156200025257600081600090555060010162000238565b5090565b600060028204905060018216806200026f57607f821691505b602082108114156200028657620002856200028c565b5b50919050565b7f4e487b7100000000000000000000000000000000000000000000000000000000600052602260045260246000fd5b612e2880620002cb6000396000f3fe608060405234801561001057600080fd5b50600436106101375760003560e01c806370a08231116100b857806395d89b411161007c57806395d89b411461034a578063a22cb46514610368578063b88d4fde14610384578063c87b56dd146103a0578063e985e9c5146103d0578063f2fde38b1461040057610137565b806370a08231146102ba578063715018a6146102ea57806379c65068146102f45780637b47ec1a146103105780638da5cb5b1461032c57610137565b806323b872dd116100ff57806323b872dd146101f25780633b0468b61461020e57806342842e0e1461023e578063430c20811461025a5780636352211e1461028a57610137565b806301ffc9a71461013c57806306fdde031461016c578063081812fc1461018a578063095ea7b3146101ba5780631072cbea146101d6575b600080fd5b61015660048036038101906101519190611fbe565b61041c565b60405161016391906123a1565b60405180910390f35b6101746105e5565b60405161018191906123bc565b60405180910390f35b6101a4600480360381019061019f9190612010565b610677565b6040516101b1919061233a565b60405180910390f35b6101d460048036038101906101cf9190611f82565b6106fc565b005b6101f060048036038101906101eb9190611f82565b610814565b005b61020c60048036038101906102079190611e7c565b6108ad565b005b61022860048036038101906102239190612010565b61090d565b60405161023591906123a1565b60405180910390f35b61025860048036038101906102539190611e7c565b61091f565b005b610274600480360381019061026f9190611f82565b61093f565b60405161028191906123a1565b60405180910390f35b6102a4600480360381019061029f9190612010565b610953565b6040516102b1919061233a565b60405180910390f35b6102d460048036038101906102cf9190611e17565b610965565b6040516102e191906125be565b60405180910390f35b6102f2610a1d565b005b61030e60048036038101906103099190611f82565b610aa5565b005b61032a60048036038101906103259190612010565b610b2f565b005b610334610bb7565b604051610341919061233a565b60405180910390f35b610352610be1565b60405161035f91906123bc565b60405180910390f35b610382600480360381019061037d9190611f46565b610c73565b005b61039e60048036038101906103999190611ecb565b610df4565b005b6103ba60048036038101906103b59190612010565b610e56565b6040516103c791906123bc565b60405180910390f35b6103ea60048036038101906103e59190611e40565b610efd565b6040516103f791906123a1565b60405180910390f35b61041a60048036038101906104159190611e17565b610f91565b005b60006301ffc9a760e01b7bffffffffffffffffffffffffffffffffffffffffffffffffffffffff1916827bffffffffffffffffffffffffffffffffffffffffffffffffffffffff191614806105de57507fb88d4fde60196325a28bb7f99a2582e0b46de55b18761e960c14ad7a320994657f42842e0eb38857a7775b4e7364b2775df7325074d088e7fb39590cd6281184ed7f23b872dd7302113369cda2901243429419bec145408fa8b352b3dd92b66c680b7fe985e9c5c6636c6879256001057b28ccac7718ef0ac56553ff9b926452cab8a37fa22cb4651ab9570f89bb516380c40ce76762284fb1f21337ceaf6adab99e7d4a7f081812fc55e34fdc7cf5d8b5cf4e3621fa6423fde952ec6ab24afdc0d85c0b2e7f095ea7b334ae44009aa867bfb386f5c3b4b443ac6f0ee573fa91c4608fbadfba7f6352211e6566aa027e75ac9dbf2423197fbd9b82b9d981a3ab367d355866aa1c7f70a08231b98ef4ca268c9cc3f6b4590e4bfec28280db06bb5d45e689f2a360be18181818181818187bffffffffffffffffffffffffffffffffffffffffffffffffffffffff1916827bffffffffffffffffffffffffffffffffffffffffffffffffffffffff1916145b9050919050565b6060600080546105f4906127e3565b80601f0160208091040260200160405190810160405280929190818152602001828054610620906127e3565b801561066d5780601f106106425761010080835404028352916020019161066d565b820191906000526020600020905b81548152906001019060200180831161065057829003601f168201915b5050505050905090565b600061068282611089565b6106c1576040517f08c379a00000000000000000000000000000000000000000000000000000000081526004016106b8906124fe565b60405180910390fd5b6004600083815260200190815260200160002060009054906101000a900473ffffffffffffffffffffffffffffffffffffffff169050919050565b6000610707826110f5565b90508073ffffffffffffffffffffffffffffffffffffffff168373ffffffffffffffffffffffffffffffffffffffff161415610778576040517f08c379a000000000000000000000000000000000000000000000000000000000815260040161076f9061257e565b60405180910390fd5b8073ffffffffffffffffffffffffffffffffffffffff166107976111a7565b73ffffffffffffffffffffffffffffffffffffffff1614806107c657506107c5816107c06111a7565b610efd565b5b610805576040517f08c379a00000000000000000000000000000000000000000000000000000000081526004016107fc9061247e565b60405180910390fd5b61080f83836111af565b505050565b61081c6111a7565b73ffffffffffffffffffffffffffffffffffffffff1661083a610bb7565b73ffffffffffffffffffffffffffffffffffffffff1614610890576040517f08c379a00000000000000000000000000000000000000000000000000000000081526004016108879061251e565b60405180910390fd5b600061089b826110f5565b90506108a881848461091f565b505050565b6108be6108b86111a7565b82611268565b6108fd576040517f08c379a00000000000000000000000000000000000000000000000000000000081526004016108f49061259e565b60405180910390fd5b6109088383836112fd565b505050565b600061091882611089565b9050919050565b61093a83838360405180602001604052806000815250610df4565b505050565b600061094b8383611268565b905092915050565b600061095e826110f5565b9050919050565b60008073ffffffffffffffffffffffffffffffffffffffff168273ffffffffffffffffffffffffffffffffffffffff1614156109d6576040517f08c379a00000000000000000000000000000000000000000000000000000000081526004016109cd9061249e565b60405180910390fd5b600360008373ffffffffffffffffffffffffffffffffffffffff1673ffffffffffffffffffffffffffffffffffffffff168152602001908152602001600020549050919050565b610a256111a7565b73ffffffffffffffffffffffffffffffffffffffff16610a43610bb7565b73ffffffffffffffffffffffffffffffffffffffff1614610a99576040517f08c379a0000000000000000000000000000000000000000000000000000000008152600401610a909061251e565b60405180910390fd5b610aa36000611559565b565b610aad6111a7565b73ffffffffffffffffffffffffffffffffffffffff16610acb610bb7565b73ffffffffffffffffffffffffffffffffffffffff1614610b21576040517f08c379a0000000000000000000000000000000000000000000000000000000008152600401610b189061251e565b60405180910390fd5b610b2b828261161f565b5050565b610b376111a7565b73ffffffffffffffffffffffffffffffffffffffff16610b55610bb7565b73ffffffffffffffffffffffffffffffffffffffff1614610bab576040517f08c379a0000000000000000000000000000000000000000000000000000000008152600401610ba29061251e565b60405180910390fd5b610bb48161163d565b50565b6000600660009054906101000a900473ffffffffffffffffffffffffffffffffffffffff16905090565b606060018054610bf0906127e3565b80601f0160208091040260200160405190810160405280929190818152602001828054610c1c906127e3565b8015610c695780601f10610c3e57610100808354040283529160200191610c69565b820191906000526020600020905b815481529060010190602001808311610c4c57829003601f168201915b5050505050905090565b610c7b6111a7565b73ffffffffffffffffffffffffffffffffffffffff168273ffffffffffffffffffffffffffffffffffffffff161415610ce9576040517f08c379a0000000000000000000000000000000000000000000000000000000008152600401610ce09061245e565b60405180910390fd5b8060056000610cf66111a7565b73ffffffffffffffffffffffffffffffffffffffff1673ffffffffffffffffffffffffffffffffffffffff16815260200190815260200160002060008473ffffffffffffffffffffffffffffffffffffffff1673ffffffffffffffffffffffffffffffffffffffff16815260200190815260200160002060006101000a81548160ff0219169083151502179055508173ffffffffffffffffffffffffffffffffffffffff16610da36111a7565b73ffffffffffffffffffffffffffffffffffffffff167f17307eab39ab6107e8899845ad3d59bd9653f200f220920489ca2b5937696c3183604051610de891906123a1565b60405180910390a35050565b610e05610dff6111a7565b83611268565b610e44576040517f08c379a0000000000000000000000000000000000000000000000000000000008152600401610e3b9061259e565b60405180910390fd5b610e508484848461174e565b50505050565b6060610e6182611089565b610ea0576040517f08c379a0000000000000000000000000000000000000000000000000000000008152600401610e979061255e565b60405180910390fd5b6000610eaa6117aa565b90506000815111610eca5760405180602001604052806000815250610ef5565b80610ed4846117c1565b604051602001610ee5929190612316565b6040516020818303038152906040525b915050919050565b6000600560008473ffffffffffffffffffffffffffffffffffffffff1673ffffffffffffffffffffffffffffffffffffffff16815260200190815260200160002060008373ffffffffffffffffffffffffffffffffffffffff1673ffffffffffffffffffffffffffffffffffffffff16815260200190815260200160002060009054906101000a900460ff16905092915050565b610f996111a7565b73ffffffffffffffffffffffffffffffffffffffff16610fb7610bb7565b73ffffffffffffffffffffffffffffffffffffffff161461100d576040517f08c379a00000000000000000000000000000000000000000000000000000000081526004016110049061251e565b60405180910390fd5b600073ffffffffffffffffffffffffffffffffffffffff168173ffffffffffffffffffffffffffffffffffffffff16141561107d576040517f08c379a0000000000000000000000000000000000000000000000000000000008152600401611074906123fe565b60405180910390fd5b61108681611559565b50565b60008073ffffffffffffffffffffffffffffffffffffffff166002600084815260200190815260200160002060009054906101000a900473ffffffffffffffffffffffffffffffffffffffff1673ffffffffffffffffffffffffffffffffffffffff1614159050919050565b6000806002600084815260200190815260200160002060009054906101000a900473ffffffffffffffffffffffffffffffffffffffff169050600073ffffffffffffffffffffffffffffffffffffffff168173ffffffffffffffffffffffffffffffffffffffff16141561119e576040517f08c379a0000000000000000000000000000000000000000000000000000000008152600401611195906124be565b60405180910390fd5b80915050919050565b600033905090565b816004600083815260200190815260200160002060006101000a81548173ffffffffffffffffffffffffffffffffffffffff021916908373ffffffffffffffffffffffffffffffffffffffff160217905550808273ffffffffffffffffffffffffffffffffffffffff16611222836110f5565b73ffffffffffffffffffffffffffffffffffffffff167f8c5be1e5ebec7d5bd14f71427d1e84f3dd0314c0f7b2291e5b200ac8c7c3b92560405160405180910390a45050565b60008061127483610953565b90508073ffffffffffffffffffffffffffffffffffffffff168473ffffffffffffffffffffffffffffffffffffffff1614806112e357508373ffffffffffffffffffffffffffffffffffffffff166112cb84610677565b73ffffffffffffffffffffffffffffffffffffffff16145b806112f457506112f38185610efd565b5b91505092915050565b8273ffffffffffffffffffffffffffffffffffffffff1661131d826110f5565b73ffffffffffffffffffffffffffffffffffffffff1614611373576040517f08c379a000000000000000000000000000000000000000000000000000000000815260040161136a9061253e565b60405180910390fd5b600073ffffffffffffffffffffffffffffffffffffffff168273ffffffffffffffffffffffffffffffffffffffff1614156113e3576040517f08c379a00000000000000000000000000000000000000000000000000000000081526004016113da9061243e565b60405180910390fd5b6113ee83838361196e565b6113f96000826111af565b6001600360008573ffffffffffffffffffffffffffffffffffffffff1673ffffffffffffffffffffffffffffffffffffffff168152602001908152602001600020600082825461144991906126f9565b925050819055506001600360008473ffffffffffffffffffffffffffffffffffffffff1673ffffffffffffffffffffffffffffffffffffffff16815260200190815260200160002060008282546114a09190612672565b92505081905550816002600083815260200190815260200160002060006101000a81548173ffffffffffffffffffffffffffffffffffffffff021916908373ffffffffffffffffffffffffffffffffffffffff160217905550808273ffffffffffffffffffffffffffffffffffffffff168473ffffffffffffffffffffffffffffffffffffffff167fddf252ad1be2c89b69c2b068fc378daa952ba7f163c4a11628f55a4df523b3ef60405160405180910390a4505050565b6000600660009054906101000a900473ffffffffffffffffffffffffffffffffffffffff16905081600660006101000a81548173ffffffffffffffffffffffffffffffffffffffff021916908373ffffffffffffffffffffffffffffffffffffffff1602179055508173ffffffffffffffffffffffffffffffffffffffff168173ffffffffffffffffffffffffffffffffffffffff167f8be0079c531659141344cd1fd0a4f28419497f9722a3daafe3b4186f6b6457e060405160405180910390a35050565b611639828260405180602001604052806000815250611973565b5050565b6000611648826110f5565b90506116568160008461196e565b6116616000836111af565b6001600360008373ffffffffffffffffffffffffffffffffffffffff1673ffffffffffffffffffffffffffffffffffffffff16815260200190815260200160002060008282546116b191906126f9565b925050819055506002600083815260200190815260200160002060006101000a81549073ffffffffffffffffffffffffffffffffffffffff021916905581600073ffffffffffffffffffffffffffffffffffffffff168273ffffffffffffffffffffffffffffffffffffffff167fddf252ad1be2c89b69c2b068fc378daa952ba7f163c4a11628f55a4df523b3ef60405160405180910390a45050565b6117598484846112fd565b611765848484846119ce565b6117a4576040517f08c379a000000000000000000000000000000000000000000000000000000000815260040161179b906123de565b60405180910390fd5b50505050565b606060405180602001604052806000815250905090565b60606000821415611809576040518060400160405280600181526020017f30000000000000000000000000000000000000000000000000000000000000008152509050611969565b600082905060005b6000821461183b57808061182490612846565b915050600a8261183491906126c8565b9150611811565b60008167ffffffffffffffff81111561187d577f4e487b7100000000000000000000000000000000000000000000000000000000600052604160045260246000fd5b6040519080825280601f01601f1916602001820160405280156118af5781602001600182028036833780820191505090505b5090505b60008514611962576001826118c891906126f9565b9150600a856118d7919061288f565b60306118e39190612672565b60f81b81838151811061191f577f4e487b7100000000000000000000000000000000000000000000000000000000600052603260045260246000fd5b60200101907effffffffffffffffffffffffffffffffffffffffffffffffffffffffffffff1916908160001a905350600a8561195b91906126c8565b94506118b3565b8093505050505b919050565b505050565b61197d8383611b65565b61198a60008484846119ce565b6119c9576040517f08c379a00000000000000000000000000000000000000000000000000000000081526004016119c0906123de565b60405180910390fd5b505050565b60006119ef8473ffffffffffffffffffffffffffffffffffffffff16611d33565b15611b58578373ffffffffffffffffffffffffffffffffffffffff1663150b7a02611a186111a7565b8786866040518563ffffffff1660e01b8152600401611a3a9493929190612355565b602060405180830381600087803b158015611a5457600080fd5b505af1925050508015611a8557506040513d601f19601f82011682018060405250810190611a829190611fe7565b60015b611b08573d8060008114611ab5576040519150601f19603f3d011682016040523d82523d6000602084013e611aba565b606091505b50600081511415611b00576040517f08c379a0000000000000000000000000000000000000000000000000000000008152600401611af7906123de565b60405180910390fd5b805181602001fd5b63150b7a0260e01b7bffffffffffffffffffffffffffffffffffffffffffffffffffffffff1916817bffffffffffffffffffffffffffffffffffffffffffffffffffffffff191614915050611b5d565b600190505b949350505050565b600073ffffffffffffffffffffffffffffffffffffffff168273ffffffffffffffffffffffffffffffffffffffff161415611bd5576040517f08c379a0000000000000000000000000000000000000000000000000000000008152600401611bcc906124de565b60405180910390fd5b611bde81611089565b15611c1e576040517f08c379a0000000000000000000000000000000000000000000000000000000008152600401611c159061241e565b60405180910390fd5b611c2a6000838361196e565b6001600360008473ffffffffffffffffffffffffffffffffffffffff1673ffffffffffffffffffffffffffffffffffffffff1681526020019081526020016000206000828254611c7a9190612672565b92505081905550816002600083815260200190815260200160002060006101000a81548173ffffffffffffffffffffffffffffffffffffffff021916908373ffffffffffffffffffffffffffffffffffffffff160217905550808273ffffffffffffffffffffffffffffffffffffffff16600073ffffffffffffffffffffffffffffffffffffffff167fddf252ad1be2c89b69c2b068fc378daa952ba7f163c4a11628f55a4df523b3ef60405160405180910390a45050565b600080823b905060008111915050919050565b6000611d59611d54846125fe565b6125d9565b905082815260208101848484011115611d7157600080fd5b611d7c8482856127a1565b509392505050565b600081359050611d9381612d96565b92915050565b600081359050611da881612dad565b92915050565b600081359050611dbd81612dc4565b92915050565b600081519050611dd281612dc4565b92915050565b600082601f830112611de957600080fd5b8135611df9848260208601611d46565b91505092915050565b600081359050611e1181612ddb565b92915050565b600060208284031215611e2957600080fd5b6000611e3784828501611d84565b91505092915050565b60008060408385031215611e5357600080fd5b6000611e6185828601611d84565b9250506020611e7285828601611d84565b9150509250929050565b600080600060608486031215611e9157600080fd5b6000611e9f86828701611d84565b9350506020611eb086828701611d84565b9250506040611ec186828701611e02565b9150509250925092565b60008060008060808587031215611ee157600080fd5b6000611eef87828801611d84565b9450506020611f0087828801611d84565b9350506040611f1187828801611e02565b925050606085013567ffffffffffffffff811115611f2e57600080fd5b611f3a87828801611dd8565b91505092959194509250565b60008060408385031215611f5957600080fd5b6000611f6785828601611d84565b9250506020611f7885828601611d99565b9150509250929050565b60008060408385031215611f9557600080fd5b6000611fa385828601611d84565b9250506020611fb485828601611e02565b9150509250929050565b600060208284031215611fd057600080fd5b6000611fde84828501611dae565b91505092915050565b600060208284031215611ff957600080fd5b600061200784828501611dc3565b91505092915050565b60006020828403121561202257600080fd5b600061203084828501611e02565b91505092915050565b6120428161272d565b82525050565b6120518161273f565b82525050565b60006120628261262f565b61206c8185612645565b935061207c8185602086016127b0565b6120858161297c565b840191505092915050565b600061209b8261263a565b6120a58185612656565b93506120b58185602086016127b0565b6120be8161297c565b840191505092915050565b60006120d48261263a565b6120de8185612667565b93506120ee8185602086016127b0565b80840191505092915050565b6000612107603283612656565b91506121128261298d565b604082019050919050565b600061212a602683612656565b9150612135826129dc565b604082019050919050565b600061214d601c83612656565b915061215882612a2b565b602082019050919050565b6000612170602483612656565b915061217b82612a54565b604082019050919050565b6000612193601983612656565b915061219e82612aa3565b602082019050919050565b60006121b6603883612656565b91506121c182612acc565b604082019050919050565b60006121d9602a83612656565b91506121e482612b1b565b604082019050919050565b60006121fc602983612656565b915061220782612b6a565b604082019050919050565b600061221f602083612656565b915061222a82612bb9565b602082019050919050565b6000612242602c83612656565b915061224d82612be2565b604082019050919050565b6000612265602083612656565b915061227082612c31565b602082019050919050565b6000612288602983612656565b915061229382612c5a565b604082019050919050565b60006122ab602f83612656565b91506122b682612ca9565b604082019050919050565b60006122ce602183612656565b91506122d982612cf8565b604082019050919050565b60006122f1603183612656565b91506122fc82612d47565b604082019050919050565b61231081612797565b82525050565b600061232282856120c9565b915061232e82846120c9565b91508190509392505050565b600060208201905061234f6000830184612039565b92915050565b600060808201905061236a6000830187612039565b6123776020830186612039565b6123846040830185612307565b81810360608301526123968184612057565b905095945050505050565b60006020820190506123b66000830184612048565b92915050565b600060208201905081810360008301526123d68184612090565b905092915050565b600060208201905081810360008301526123f7816120fa565b9050919050565b600060208201905081810360008301526124178161211d565b9050919050565b6000602082019050818103600083015261243781612140565b9050919050565b6000602082019050818103600083015261245781612163565b9050919050565b6000602082019050818103600083015261247781612186565b9050919050565b60006020820190508181036000830152612497816121a9565b9050919050565b600060208201905081810360008301526124b7816121cc565b9050919050565b600060208201905081810360008301526124d7816121ef565b9050919050565b600060208201905081810360008301526124f781612212565b9050919050565b6000602082019050818103600083015261251781612235565b9050919050565b6000602082019050818103600083015261253781612258565b9050919050565b600060208201905081810360008301526125578161227b565b9050919050565b600060208201905081810360008301526125778161229e565b9050919050565b60006020820190508181036000830152612597816122c1565b9050919050565b600060208201905081810360008301526125b7816122e4565b9050919050565b60006020820190506125d36000830184612307565b92915050565b60006125e36125f4565b90506125ef8282612815565b919050565b6000604051905090565b600067ffffffffffffffff8211156126195761261861294d565b5b6126228261297c565b9050602081019050919050565b600081519050919050565b600081519050919050565b600082825260208201905092915050565b600082825260208201905092915050565b600081905092915050565b600061267d82612797565b915061268883612797565b9250827fffffffffffffffffffffffffffffffffffffffffffffffffffffffffffffffff038211156126bd576126bc6128c0565b5b828201905092915050565b60006126d382612797565b91506126de83612797565b9250826126ee576126ed6128ef565b5b828204905092915050565b600061270482612797565b915061270f83612797565b925082821015612722576127216128c0565b5b828203905092915050565b600061273882612777565b9050919050565b60008115159050919050565b60007fffffffff0000000000000000000000000000000000000000000000000000000082169050919050565b600073ffffffffffffffffffffffffffffffffffffffff82169050919050565b6000819050919050565b82818337600083830152505050565b60005b838110156127ce5780820151818401526020810190506127b3565b838111156127dd576000848401525b50505050565b600060028204905060018216806127fb57607f821691505b6020821081141561280f5761280e61291e565b5b50919050565b61281e8261297c565b810181811067ffffffffffffffff8211171561283d5761283c61294d565b5b80604052505050565b600061285182612797565b91507fffffffffffffffffffffffffffffffffffffffffffffffffffffffffffffffff821415612884576128836128c0565b5b600182019050919050565b600061289a82612797565b91506128a583612797565b9250826128b5576128b46128ef565b5b828206905092915050565b7f4e487b7100000000000000000000000000000000000000000000000000000000600052601160045260246000fd5b7f4e487b7100000000000000000000000000000000000000000000000000000000600052601260045260246000fd5b7f4e487b7100000000000000000000000000000000000000000000000000000000600052602260045260246000fd5b7f4e487b7100000000000000000000000000000000000000000000000000000000600052604160045260246000fd5b6000601f19601f8301169050919050565b7f4552433732313a207472616e7366657220746f206e6f6e20455243373231526560008201527f63656976657220696d706c656d656e7465720000000000000000000000000000602082015250565b7f4f776e61626c653a206e6577206f776e657220697320746865207a65726f206160008201527f6464726573730000000000000000000000000000000000000000000000000000602082015250565b7f4552433732313a20746f6b656e20616c7265616479206d696e74656400000000600082015250565b7f4552433732313a207472616e7366657220746f20746865207a65726f2061646460008201527f7265737300000000000000000000000000000000000000000000000000000000602082015250565b7f4552433732313a20617070726f766520746f2063616c6c657200000000000000600082015250565b7f4552433732313a20617070726f76652063616c6c6572206973206e6f74206f7760008201527f6e6572206e6f7220617070726f76656420666f7220616c6c0000000000000000602082015250565b7f4552433732313a2062616c616e636520717565727920666f7220746865207a6560008201527f726f206164647265737300000000000000000000000000000000000000000000602082015250565b7f4552433732313a206f776e657220717565727920666f72206e6f6e657869737460008201527f656e7420746f6b656e0000000000000000000000000000000000000000000000602082015250565b7f4552433732313a206d696e7420746f20746865207a65726f2061646472657373600082015250565b7f4552433732313a20617070726f76656420717565727920666f72206e6f6e657860008201527f697374656e7420746f6b656e0000000000000000000000000000000000000000602082015250565b7f4f776e61626c653a2063616c6c6572206973206e6f7420746865206f776e6572600082015250565b7f4552433732313a207472616e73666572206f6620746f6b656e2074686174206960008201527f73206e6f74206f776e0000000000000000000000000000000000000000000000602082015250565b7f4552433732314d657461646174613a2055524920717565727920666f72206e6f60008201527f6e6578697374656e7420746f6b656e0000000000000000000000000000000000602082015250565b7f4552433732313a20617070726f76616c20746f2063757272656e74206f776e6560008201527f7200000000000000000000000000000000000000000000000000000000000000602082015250565b7f4552433732313a207472616e736665722063616c6c6572206973206e6f74206f60008201527f776e6572206e6f7220617070726f766564000000000000000000000000000000602082015250565b612d9f8161272d565b8114612daa57600080fd5b50565b612db68161273f565b8114612dc157600080fd5b50565b612dcd8161274b565b8114612dd857600080fd5b50565b612de481612797565b8114612def57600080fd5b5056fea2646970667358221220331f1834f74487c5d042c91f709ec7d353036feed8472be1383e2bc7237dbe0064736f6c63430008040033",
  "devdoc": {
    "kind": "dev",
    "methods": {
      "owner()": {
        "details": "Returns the address of the current owner."
      },
      "renounceOwnership()": {
        "details": "Leaves the contract without owner. It will not be possible to call `onlyOwner` functions anymore. Can only be called by the current owner. NOTE: Renouncing ownership will leave the contract without an owner, thereby removing any functionality that is only available to the owner."
      },
      "transferOwnership(address)": {
        "details": "Transfers ownership of the contract to a new account (`newOwner`). Can only be called by the current owner."
      }
    },
    "version": 1
  },
  "userdoc": {
    "kind": "user",
    "methods": {},
    "version": 1
  },
  "storageLayout": {
    "storage": [
      {
        "astId": 760,
        "contract": "contracts/decentraname/DecentraNameController.sol:DecentraNameController",
        "label": "_owner",
        "offset": 0,
        "slot": "0",
        "type": "t_address"
      },
      {
        "astId": 19431,
        "contract": "contracts/decentraname/DecentraNameController.sol:DecentraNameController",
        "label": "controllers",
        "offset": 0,
        "slot": "1",
        "type": "t_mapping(t_address,t_bool)"
      },
      {
        "astId": 3651,
        "contract": "contracts/decentraname/DecentraNameController.sol:DecentraNameController",
        "label": "decentraName",
        "offset": 0,
        "slot": "2",
        "type": "t_contract(DecentraName)3639"
      }
    ],
    "types": {
      "t_address": {
        "encoding": "inplace",
        "label": "address",
        "numberOfBytes": "20"
      },
      "t_bool": {
        "encoding": "inplace",
        "label": "bool",
        "numberOfBytes": "1"
      },
      "t_contract(DecentraName)3639": {
        "encoding": "inplace",
        "label": "contract DecentraName",
        "numberOfBytes": "20"
      },
      "t_mapping(t_address,t_bool)": {
        "encoding": "mapping",
        "key": "t_address",
        "label": "mapping(address => bool)",
        "numberOfBytes": "32",
        "value": "t_bool"
      }
    }
  }
}