{
  "address": "0x1C3F7745244E67619c27175cb21C58d195656771",
  "abi": [
    {
      "inputs": [
        {
          "internalType": "contract Root",
          "name": "_root",
          "type": "address"
        },
        {
          "internalType": "contract PriceOracle",
          "name": "_prices",
          "type": "address"
        },
        {
          "internalType": "uint256",
          "name": "_minCommitmentAge",
          "type": "uint256"
        },
        {
          "internalType": "uint256",
          "name": "_maxCommitmentAge",
          "type": "uint256"
        }
      ],
      "stateMutability": "nonpayable",
      "type": "constructor"
    },
    {
      "anonymous": false,
      "inputs": [
        {
          "indexed": false,
          "internalType": "string",
          "name": "name",
          "type": "string"
        },
        {
          "indexed": true,
          "internalType": "bytes32",
          "name": "label",
          "type": "bytes32"
        },
        {
          "indexed": true,
          "internalType": "address",
          "name": "owner",
          "type": "address"
        },
        {
          "indexed": false,
          "internalType": "uint256",
          "name": "cost",
          "type": "uint256"
        },
        {
          "indexed": false,
          "internalType": "uint256",
          "name": "expires",
          "type": "uint256"
        }
      ],
      "name": "NameRegistered",
      "type": "event"
    },
    {
      "anonymous": false,
      "inputs": [
        {
          "indexed": false,
          "internalType": "string",
          "name": "name",
          "type": "string"
        },
        {
          "indexed": true,
          "internalType": "bytes32",
          "name": "label",
          "type": "bytes32"
        },
        {
          "indexed": false,
          "internalType": "uint256",
          "name": "cost",
          "type": "uint256"
        },
        {
          "indexed": false,
          "internalType": "uint256",
          "name": "expires",
          "type": "uint256"
        }
      ],
      "name": "NameRenewed",
      "type": "event"
    },
    {
      "anonymous": false,
      "inputs": [
        {
          "indexed": true,
          "internalType": "address",
          "name": "oracle",
          "type": "address"
        }
      ],
      "name": "NewPriceOracle",
      "type": "event"
    },
    {
      "anonymous": false,
      "inputs": [
        {
          "indexed": true,
          "internalType": "address",
          "name": "previousOwner",
          "type": "address"
        },
        {
          "indexed": true,
          "internalType": "address",
          "name": "newOwner",
          "type": "address"
        }
      ],
      "name": "OwnershipTransferred",
      "type": "event"
    },
    {
      "inputs": [],
      "name": "MIN_REGISTRATION_DURATION",
      "outputs": [
        {
          "internalType": "uint256",
          "name": "",
          "type": "uint256"
        }
      ],
      "stateMutability": "view",
      "type": "function"
    },
    {
      "inputs": [
        {
          "internalType": "string",
          "name": "name",
          "type": "string"
        }
      ],
      "name": "available",
      "outputs": [
        {
          "internalType": "bool",
          "name": "",
          "type": "bool"
        }
      ],
      "stateMutability": "view",
      "type": "function"
    },
    {
      "inputs": [
        {
          "internalType": "bytes32",
          "name": "commitment",
          "type": "bytes32"
        }
      ],
      "name": "commit",
      "outputs": [],
      "stateMutability": "nonpayable",
      "type": "function"
    },
    {
      "inputs": [
        {
          "internalType": "bytes32",
          "name": "",
          "type": "bytes32"
        }
      ],
      "name": "commitments",
      "outputs": [
        {
          "internalType": "uint256",
          "name": "",
          "type": "uint256"
        }
      ],
      "stateMutability": "view",
      "type": "function"
    },
    {
      "inputs": [
        {
          "internalType": "string",
          "name": "name",
          "type": "string"
        },
        {
          "internalType": "address",
          "name": "owner",
          "type": "address"
        },
        {
          "internalType": "bytes32",
          "name": "secret",
          "type": "bytes32"
        }
      ],
      "name": "makeCommitment",
      "outputs": [
        {
          "internalType": "bytes32",
          "name": "",
          "type": "bytes32"
        }
      ],
      "stateMutability": "pure",
      "type": "function"
    },
    {
      "inputs": [
        {
          "internalType": "string",
          "name": "name",
          "type": "string"
        },
        {
          "internalType": "address",
          "name": "owner",
          "type": "address"
        },
        {
          "internalType": "bytes32",
          "name": "secret",
          "type": "bytes32"
        },
        {
          "internalType": "address",
          "name": "resolver",
          "type": "address"
        },
        {
          "internalType": "address",
          "name": "addr",
          "type": "address"
        }
      ],
      "name": "makeCommitmentWithConfig",
      "outputs": [
        {
          "internalType": "bytes32",
          "name": "",
          "type": "bytes32"
        }
      ],
      "stateMutability": "pure",
      "type": "function"
    },
    {
      "inputs": [],
      "name": "maxCommitmentAge",
      "outputs": [
        {
          "internalType": "uint256",
          "name": "",
          "type": "uint256"
        }
      ],
      "stateMutability": "view",
      "type": "function"
    },
    {
      "inputs": [],
      "name": "minCommitmentAge",
      "outputs": [
        {
          "internalType": "uint256",
          "name": "",
          "type": "uint256"
        }
      ],
      "stateMutability": "view",
      "type": "function"
    },
    {
      "inputs": [],
      "name": "owner",
      "outputs": [
        {
          "internalType": "address",
          "name": "",
          "type": "address"
        }
      ],
      "stateMutability": "view",
      "type": "function"
    },
    {
      "inputs": [
        {
          "internalType": "string",
          "name": "name",
          "type": "string"
        },
        {
          "internalType": "address",
          "name": "owner",
          "type": "address"
        },
        {
          "internalType": "uint256",
          "name": "duration",
          "type": "uint256"
        },
        {
          "internalType": "bytes32",
          "name": "secret",
          "type": "bytes32"
        }
      ],
      "name": "register",
      "outputs": [],
      "stateMutability": "payable",
      "type": "function"
    },
    {
      "inputs": [
        {
          "internalType": "string",
          "name": "name",
          "type": "string"
        },
        {
          "internalType": "address",
          "name": "owner",
          "type": "address"
        },
        {
          "internalType": "uint256",
          "name": "duration",
          "type": "uint256"
        },
        {
          "internalType": "bytes32",
          "name": "secret",
          "type": "bytes32"
        },
        {
          "internalType": "address",
          "name": "resolver",
          "type": "address"
        },
        {
          "internalType": "address",
          "name": "addr",
          "type": "address"
        }
      ],
      "name": "registerWithConfig",
      "outputs": [],
      "stateMutability": "payable",
      "type": "function"
    },
    {
      "inputs": [
        {
          "internalType": "string",
          "name": "name",
          "type": "string"
        },
        {
          "internalType": "uint256",
          "name": "duration",
          "type": "uint256"
        }
      ],
      "name": "renew",
      "outputs": [],
      "stateMutability": "payable",
      "type": "function"
    },
    {
      "inputs": [],
      "name": "renounceOwnership",
      "outputs": [],
      "stateMutability": "nonpayable",
      "type": "function"
    },
    {
      "inputs": [
        {
          "internalType": "string",
          "name": "name",
          "type": "string"
        },
        {
          "internalType": "uint256",
          "name": "duration",
          "type": "uint256"
        }
      ],
      "name": "rentPrice",
      "outputs": [
        {
          "internalType": "uint256",
          "name": "",
          "type": "uint256"
        }
      ],
      "stateMutability": "view",
      "type": "function"
    },
    {
      "inputs": [
        {
          "internalType": "uint256",
          "name": "_minCommitmentAge",
          "type": "uint256"
        },
        {
          "internalType": "uint256",
          "name": "_maxCommitmentAge",
          "type": "uint256"
        }
      ],
      "name": "setCommitmentAges",
      "outputs": [],
      "stateMutability": "nonpayable",
      "type": "function"
    },
    {
      "inputs": [
        {
          "internalType": "contract PriceOracle",
          "name": "_prices",
          "type": "address"
        }
      ],
      "name": "setPriceOracle",
      "outputs": [],
      "stateMutability": "nonpayable",
      "type": "function"
    },
    {
      "inputs": [
        {
          "internalType": "bytes4",
          "name": "interfaceID",
          "type": "bytes4"
        }
      ],
      "name": "supportsInterface",
      "outputs": [
        {
          "internalType": "bool",
          "name": "",
          "type": "bool"
        }
      ],
      "stateMutability": "pure",
      "type": "function"
    },
    {
      "inputs": [
        {
          "internalType": "address",
          "name": "newOwner",
          "type": "address"
        }
      ],
      "name": "transferOwnership",
      "outputs": [],
      "stateMutability": "nonpayable",
      "type": "function"
    },
    {
      "inputs": [
        {
          "internalType": "string",
          "name": "name",
          "type": "string"
        }
      ],
      "name": "valid",
      "outputs": [
        {
          "internalType": "bool",
          "name": "",
          "type": "bool"
        }
      ],
      "stateMutability": "pure",
      "type": "function"
    },
    {
      "inputs": [],
      "name": "withdraw",
      "outputs": [],
      "stateMutability": "nonpayable",
      "type": "function"
    }
  ],
  "transactionHash": "0xdd596bcb2aeed6fbfb8e3631315d60dbd8884abb5957c5d700739c6e1cdd424d",
  "args": [
    "0x39A614eDF20f573D965A1d058545CB4074E556C4",
    "0x86E8f9363e799D8CCF21c92dc2cdaBAe399134F3",
    5,
    604800
  ],
  "solcInputHash": "a88ab937d7edb19a9d5df4bbdb2c860c",
  "bytecode": "0x60806040523480156200001157600080fd5b5060405162002a3c38038062002a3c83398181016040528101906200003791906200020f565b620000576200004b620000fe60201b60201c565b6200010660201b60201c565b8181116200006457600080fd5b83600160006101000a81548173ffffffffffffffffffffffffffffffffffffffff021916908373ffffffffffffffffffffffffffffffffffffffff16021790555082600260006101000a81548173ffffffffffffffffffffffffffffffffffffffff021916908373ffffffffffffffffffffffffffffffffffffffff1602179055508160038190555080600481905550505050506200032f565b600033905090565b60008060009054906101000a900473ffffffffffffffffffffffffffffffffffffffff169050816000806101000a81548173ffffffffffffffffffffffffffffffffffffffff021916908373ffffffffffffffffffffffffffffffffffffffff1602179055508173ffffffffffffffffffffffffffffffffffffffff168173ffffffffffffffffffffffffffffffffffffffff167f8be0079c531659141344cd1fd0a4f28419497f9722a3daafe3b4186f6b6457e060405160405180910390a35050565b600081519050620001db81620002e1565b92915050565b600081519050620001f281620002fb565b92915050565b600081519050620002098162000315565b92915050565b600080600080608085870312156200022657600080fd5b60006200023687828801620001e1565b94505060206200024987828801620001ca565b93505060406200025c87828801620001f8565b92505060606200026f87828801620001f8565b91505092959194509250565b60006200028882620002b7565b9050919050565b60006200029c826200027b565b9050919050565b6000620002b0826200027b565b9050919050565b600073ffffffffffffffffffffffffffffffffffffffff82169050919050565b6000819050919050565b620002ec816200028f565b8114620002f857600080fd5b50565b6200030681620002a3565b81146200031257600080fd5b50565b6200032081620002d7565b81146200032c57600080fd5b50565b6126fd806200033f6000396000f3fe60806040526004361061011f5760003560e01c80638d839ffe116100a0578063ce1e09c011610064578063ce1e09c0146103cb578063f14fcbc8146103f6578063f2fde38b1461041f578063f49826be14610448578063f7a16963146104855761011f565b80638d839ffe146102df5780638da5cb5b1461030a5780639791c09714610335578063acf1a84114610372578063aeb8ce9b1461038e5761011f565b80637e324479116100e75780637e324479146101f5578063839df9451461021e57806383e7f6ff1461025b57806385f6d155146102985780638a95b09f146102b45761011f565b806301ffc9a7146101245780633ccfd60b146101615780633d86c52f14610178578063530e784f146101b5578063715018a6146101de575b600080fd5b34801561013057600080fd5b5061014b60048036038101906101469190611b67565b6104a1565b6040516101589190612159565b60405180910390f35b34801561016d57600080fd5b506101766106a7565b005b34801561018457600080fd5b5061019f600480360381019061019a9190611d39565b61076c565b6040516101ac9190612174565b60405180910390f35b3480156101c157600080fd5b506101dc60048036038101906101d79190611b90565b61088f565b005b3480156101ea57600080fd5b506101f36109b4565b005b34801561020157600080fd5b5061021c60048036038101906102179190611ee6565b610a3c565b005b34801561022a57600080fd5b5061024560048036038101906102409190611b15565b610aca565b604051610252919061224d565b60405180910390f35b34801561026757600080fd5b50610282600480360381019061027d9190611e69565b610ae2565b60405161028f919061224d565b60405180910390f35b6102b260048036038101906102ad9190611bb9565b610d21565b005b3480156102c057600080fd5b506102c9610d7b565b6040516102d6919061224d565b60405180910390f35b3480156102eb57600080fd5b506102f4610d82565b604051610301919061224d565b60405180910390f35b34801561031657600080fd5b5061031f610d88565b60405161032c919061213e565b60405180910390f35b34801561034157600080fd5b5061035c60048036038101906103579190611c91565b610db1565b6040516103699190612159565b60405180910390f35b61038c60048036038101906103879190611c39565b610dc7565b005b34801561039a57600080fd5b506103b560048036038101906103b09190611c91565b611066565b6040516103c29190612159565b60405180910390f35b3480156103d757600080fd5b506103e0611207565b6040516103ed919061224d565b60405180910390f35b34801561040257600080fd5b5061041d60048036038101906104189190611b15565b61120d565b005b34801561042b57600080fd5b5061044660048036038101906104419190611ac3565b611254565b005b34801561045457600080fd5b5061046f600480360381019061046a9190611cd2565b61134c565b60405161047c9190612174565b60405180910390f35b61049f600480360381019061049a9190611dc8565b611365565b005b60007f01ffc9a7a5cef8baa21ed3c5c0d7e23accb804b619e9333b597f47a0d84076e27bffffffffffffffffffffffffffffffffffffffffffffffffffffffff1916827bffffffffffffffffffffffffffffffffffffffffffffffffffffffff1916148061061657507facf1a8418b97267ffdb4c11281360744af0ddfe62846b256a04a02acee3a53c37f85f6d1554d9d3ed5c2776e29804063f395dfd65a8dc71f4d1cb6f073d7ee75a37ff14fcbc8f6996b31406143e2613e60bde3c1118cfe166c0aa27ba40ef1033df57ff49826be766d3cc8dc7e4aab3f18eb3d339eb3bce85a7b9144119bbe997b2cc37faeb8ce9b70d5d3f3fba501c34cd61a54703dbe3cfb25bd75d3574635f9ea76837f83e7f6ff8df5fd22801ca995afba5d2bc5cac5264a339adb4a410c5da6c4332418181818187bffffffffffffffffffffffffffffffffffffffffffffffffffffffff1916827bffffffffffffffffffffffffffffffffffffffffffffffffffffffff1916145b806106a057507f3d86c52f15403f1a062ec90b8fe0792e3be0a9cb236cd8ee4ec4b45821bd2faa7ff7a169630bfe39d181bbd2e0b758ee9f1a6ddc0eca0932c13225406d06d41653187bffffffffffffffffffffffffffffffffffffffffffffffffffffffff1916827bffffffffffffffffffffffffffffffffffffffffffffffffffffffff1916145b9050919050565b6106af611608565b73ffffffffffffffffffffffffffffffffffffffff166106cd610d88565b73ffffffffffffffffffffffffffffffffffffffff1614610723576040517f08c379a000000000000000000000000000000000000000000000000000000000815260040161071a9061222d565b60405180910390fd5b3373ffffffffffffffffffffffffffffffffffffffff166108fc479081150290604051600060405180830381858888f19350505050158015610769573d6000803e3d6000fd5b50565b60008086805190602001209050600073ffffffffffffffffffffffffffffffffffffffff168473ffffffffffffffffffffffffffffffffffffffff161480156107e15750600073ffffffffffffffffffffffffffffffffffffffff168373ffffffffffffffffffffffffffffffffffffffff16145b15610819578086866040516020016107fb939291906120bc565b60405160208183030381529060405280519060200120915050610886565b600073ffffffffffffffffffffffffffffffffffffffff168473ffffffffffffffffffffffffffffffffffffffff16141561085357600080fd5b808685858860405160200161086c95949392919061205d565b604051602081830303815290604052805190602001209150505b95945050505050565b610897611608565b73ffffffffffffffffffffffffffffffffffffffff166108b5610d88565b73ffffffffffffffffffffffffffffffffffffffff161461090b576040517f08c379a00000000000000000000000000000000000000000000000000000000081526004016109029061222d565b60405180910390fd5b80600260006101000a81548173ffffffffffffffffffffffffffffffffffffffff021916908373ffffffffffffffffffffffffffffffffffffffff160217905550600260009054906101000a900473ffffffffffffffffffffffffffffffffffffffff1673ffffffffffffffffffffffffffffffffffffffff167ff261845a790fe29bbd6631e2ca4a5bdc83e6eed7c3271d9590d97287e00e912360405160405180910390a250565b6109bc611608565b73ffffffffffffffffffffffffffffffffffffffff166109da610d88565b73ffffffffffffffffffffffffffffffffffffffff1614610a30576040517f08c379a0000000000000000000000000000000000000000000000000000000008152600401610a279061222d565b60405180910390fd5b610a3a6000611610565b565b610a44611608565b73ffffffffffffffffffffffffffffffffffffffff16610a62610d88565b73ffffffffffffffffffffffffffffffffffffffff1614610ab8576040517f08c379a0000000000000000000000000000000000000000000000000000000008152600401610aaf9061222d565b60405180910390fd5b81600381905550806004819055505050565b60056020528060005260406000206000915090505481565b600080838051906020012090506000600160009054906101000a900473ffffffffffffffffffffffffffffffffffffffff1673ffffffffffffffffffffffffffffffffffffffff1663faff50a86040518163ffffffff1660e01b815260040160206040518083038186803b158015610b5957600080fd5b505afa158015610b6d573d6000803e3d6000fd5b505050506040513d601f19601f82011682018060405250810190610b919190611b3e565b82604051602001610ba39291906120f9565b604051602081830303815290604052805190602001209050600260009054906101000a900473ffffffffffffffffffffffffffffffffffffffff1673ffffffffffffffffffffffffffffffffffffffff166350e9a71586600160009054906101000a900473ffffffffffffffffffffffffffffffffffffffff1673ffffffffffffffffffffffffffffffffffffffff1663d6e4fa868560001c6040518263ffffffff1660e01b8152600401610c58919061224d565b60206040518083038186803b158015610c7057600080fd5b505afa158015610c84573d6000803e3d6000fd5b505050506040513d601f19601f82011682018060405250810190610ca89190611ebd565b876040518463ffffffff1660e01b8152600401610cc7939291906121cf565b60206040518083038186803b158015610cdf57600080fd5b505afa158015610cf3573d6000803e3d6000fd5b505050506040513d601f19601f82011682018060405250810190610d179190611ebd565b9250505092915050565b610d7485858080601f016020809104026020016040519081016040528093929190818152602001838380828437600081840152601f19601f82011690508083019250505050505050848484600080611365565b5050505050565b6224ea0081565b60035481565b60008060009054906101000a900473ffffffffffffffffffffffffffffffffffffffff16905090565b60006003610dbe836116d4565b10159050919050565b6000610e1784848080601f016020809104026020016040519081016040528093929190818152602001838380828437600081840152601f19601f8201169050808301925050505050505083610ae2565b905080341015610e2657600080fd5b60008484604051610e38929190612125565b604051809103902090506000600160009054906101000a900473ffffffffffffffffffffffffffffffffffffffff1673ffffffffffffffffffffffffffffffffffffffff1663faff50a86040518163ffffffff1660e01b815260040160206040518083038186803b158015610eac57600080fd5b505afa158015610ec0573d6000803e3d6000fd5b505050506040513d601f19601f82011682018060405250810190610ee49190611b3e565b82604051602001610ef69291906120f9565b6040516020818303038152906040528051906020012090506000600160009054906101000a900473ffffffffffffffffffffffffffffffffffffffff1673ffffffffffffffffffffffffffffffffffffffff1663c475abff8360001c876040518363ffffffff1660e01b8152600401610f7092919061229f565b602060405180830381600087803b158015610f8a57600080fd5b505af1158015610f9e573d6000803e3d6000fd5b505050506040513d601f19601f82011682018060405250810190610fc29190611ebd565b90508334111561101f573373ffffffffffffffffffffffffffffffffffffffff166108fc8534610ff2919061239b565b9081150290604051600060405180830381858888f1935050505015801561101d573d6000803e3d6000fd5b505b827f3da24c024582931cfaf8267d8ed24d13a82a8068d5bd337d30ec45cea4e506ae88888785604051611055949392919061218f565b60405180910390a250505050505050565b600080828051906020012090506000600160009054906101000a900473ffffffffffffffffffffffffffffffffffffffff1673ffffffffffffffffffffffffffffffffffffffff1663faff50a86040518163ffffffff1660e01b815260040160206040518083038186803b1580156110dd57600080fd5b505afa1580156110f1573d6000803e3d6000fd5b505050506040513d601f19601f820116820180604052508101906111159190611b3e565b826040516020016111279291906120f9565b60405160208183030381529060405280519060200120905061114884610db1565b80156111fe5750600160009054906101000a900473ffffffffffffffffffffffffffffffffffffffff1673ffffffffffffffffffffffffffffffffffffffff166396e494e88260001c6040518263ffffffff1660e01b81526004016111ad919061224d565b60206040518083038186803b1580156111c557600080fd5b505afa1580156111d9573d6000803e3d6000fd5b505050506040513d601f19601f820116820180604052508101906111fd9190611aec565b5b92505050919050565b60045481565b42600454600560008481526020019081526020016000205461122f9190612345565b1061123957600080fd5b42600560008381526020019081526020016000208190555050565b61125c611608565b73ffffffffffffffffffffffffffffffffffffffff1661127a610d88565b73ffffffffffffffffffffffffffffffffffffffff16146112d0576040517f08c379a00000000000000000000000000000000000000000000000000000000081526004016112c79061222d565b60405180910390fd5b600073ffffffffffffffffffffffffffffffffffffffff168173ffffffffffffffffffffffffffffffffffffffff161415611340576040517f08c379a00000000000000000000000000000000000000000000000000000000081526004016113379061220d565b60405180910390fd5b61134981611610565b50565b600061135c84848460008061076c565b90509392505050565b6000611374878786868661076c565b905060006113838887846118af565b90506000888051906020012090506000600160009054906101000a900473ffffffffffffffffffffffffffffffffffffffff1673ffffffffffffffffffffffffffffffffffffffff1663faff50a86040518163ffffffff1660e01b815260040160206040518083038186803b1580156113fb57600080fd5b505afa15801561140f573d6000803e3d6000fd5b505050506040513d601f19601f820116820180604052508101906114339190611b3e565b826040516020016114459291906120f9565b60405160208183030381529060405280519060200120905060008073ffffffffffffffffffffffffffffffffffffffff168673ffffffffffffffffffffffffffffffffffffffff161461149757600080fd5b600160009054906101000a900473ffffffffffffffffffffffffffffffffffffffff1673ffffffffffffffffffffffffffffffffffffffff1663fca247ac8360001c8c8c6040518463ffffffff1660e01b81526004016114f993929190612268565b602060405180830381600087803b15801561151357600080fd5b505af1158015611527573d6000803e3d6000fd5b505050506040513d601f19601f8201168201806040525081019061154b9190611ebd565b90508973ffffffffffffffffffffffffffffffffffffffff16837fca6abbe9d7f11422cb6ca7629fbf6fe9efb1c621f71ce8f02b9f2a230097404f8d8785604051611598939291906121cf565b60405180910390a3833411156115fb573373ffffffffffffffffffffffffffffffffffffffff166108fc85346115ce919061239b565b9081150290604051600060405180830381858888f193505050501580156115f9573d6000803e3d6000fd5b505b5050505050505050505050565b600033905090565b60008060009054906101000a900473ffffffffffffffffffffffffffffffffffffffff169050816000806101000a81548173ffffffffffffffffffffffffffffffffffffffff021916908373ffffffffffffffffffffffffffffffffffffffff1602179055508173ffffffffffffffffffffffffffffffffffffffff168173ffffffffffffffffffffffffffffffffffffffff167f8be0079c531659141344cd1fd0a4f28419497f9722a3daafe3b4186f6b6457e060405160405180910390a35050565b60008060008084519050600092505b808210156118a4576000858381518110611726577f4e487b7100000000000000000000000000000000000000000000000000000000600052603260045260246000fd5b602001015160f81c60f81b9050608060f81b817effffffffffffffffffffffffffffffffffffffffffffffffffffffffffffff191610156117755760018361176e9190612345565b9250611890565b60e060f81b817effffffffffffffffffffffffffffffffffffffffffffffffffffffffffffff191610156117b7576002836117b09190612345565b925061188f565b60f060f81b817effffffffffffffffffffffffffffffffffffffffffffffffffffffffffffff191610156117f9576003836117f29190612345565b925061188e565b60f8801b817effffffffffffffffffffffffffffffffffffffffffffffffffffffffffffff1916101561183a576004836118339190612345565b925061188d565b60fc60f81b817effffffffffffffffffffffffffffffffffffffffffffffffffffffffffffff1916101561187c576005836118759190612345565b925061188c565b6006836118899190612345565b92505b5b5b5b5b50828061189c906124d2565b9350506116e3565b829350505050919050565b60004260035460056000858152602001908152602001600020546118d39190612345565b11156118de57600080fd5b4260045460056000858152602001908152602001600020546119009190612345565b1161190a57600080fd5b61191384611066565b61191c57600080fd5b6005600083815260200190815260200160002060009055600061193f8585610ae2565b90506224ea0084101561195157600080fd5b8034101561195e57600080fd5b809150509392505050565b600061197c611977846122ed565b6122c8565b90508281526020810184848401111561199457600080fd5b61199f84828561245f565b509392505050565b6000813590506119b68161263d565b92915050565b6000815190506119cb81612654565b92915050565b6000813590506119e08161266b565b92915050565b6000815190506119f58161266b565b92915050565b600081359050611a0a81612682565b92915050565b600081359050611a1f81612699565b92915050565b60008083601f840112611a3757600080fd5b8235905067ffffffffffffffff811115611a5057600080fd5b602083019150836001820283011115611a6857600080fd5b9250929050565b600082601f830112611a8057600080fd5b8135611a90848260208601611969565b91505092915050565b600081359050611aa8816126b0565b92915050565b600081519050611abd816126b0565b92915050565b600060208284031215611ad557600080fd5b6000611ae3848285016119a7565b91505092915050565b600060208284031215611afe57600080fd5b6000611b0c848285016119bc565b91505092915050565b600060208284031215611b2757600080fd5b6000611b35848285016119d1565b91505092915050565b600060208284031215611b5057600080fd5b6000611b5e848285016119e6565b91505092915050565b600060208284031215611b7957600080fd5b6000611b87848285016119fb565b91505092915050565b600060208284031215611ba257600080fd5b6000611bb084828501611a10565b91505092915050565b600080600080600060808688031215611bd157600080fd5b600086013567ffffffffffffffff811115611beb57600080fd5b611bf788828901611a25565b95509550506020611c0a888289016119a7565b9350506040611c1b88828901611a99565b9250506060611c2c888289016119d1565b9150509295509295909350565b600080600060408486031215611c4e57600080fd5b600084013567ffffffffffffffff811115611c6857600080fd5b611c7486828701611a25565b93509350506020611c8786828701611a99565b9150509250925092565b600060208284031215611ca357600080fd5b600082013567ffffffffffffffff811115611cbd57600080fd5b611cc984828501611a6f565b91505092915050565b600080600060608486031215611ce757600080fd5b600084013567ffffffffffffffff811115611d0157600080fd5b611d0d86828701611a6f565b9350506020611d1e868287016119a7565b9250506040611d2f868287016119d1565b9150509250925092565b600080600080600060a08688031215611d5157600080fd5b600086013567ffffffffffffffff811115611d6b57600080fd5b611d7788828901611a6f565b9550506020611d88888289016119a7565b9450506040611d99888289016119d1565b9350506060611daa888289016119a7565b9250506080611dbb888289016119a7565b9150509295509295909350565b60008060008060008060c08789031215611de157600080fd5b600087013567ffffffffffffffff811115611dfb57600080fd5b611e0789828a01611a6f565b9650506020611e1889828a016119a7565b9550506040611e2989828a01611a99565b9450506060611e3a89828a016119d1565b9350506080611e4b89828a016119a7565b92505060a0611e5c89828a016119a7565b9150509295509295509295565b60008060408385031215611e7c57600080fd5b600083013567ffffffffffffffff811115611e9657600080fd5b611ea285828601611a6f565b9250506020611eb385828601611a99565b9150509250929050565b600060208284031215611ecf57600080fd5b6000611edd84828501611aae565b91505092915050565b60008060408385031215611ef957600080fd5b6000611f0785828601611a99565b9250506020611f1885828601611a99565b9150509250929050565b611f2b816123cf565b82525050565b611f42611f3d826123cf565b61251b565b82525050565b611f51816123e1565b82525050565b611f60816123ed565b82525050565b611f77611f72826123ed565b61252d565b82525050565b6000611f898385612329565b9350611f9683858461245f565b82840190509392505050565b6000611fae8385612334565b9350611fbb83858461245f565b611fc4836125a7565b840190509392505050565b6000611fda8261231e565b611fe48185612334565b9350611ff481856020860161246e565b611ffd816125a7565b840191505092915050565b6000612015602683612334565b9150612020826125c5565b604082019050919050565b6000612038602083612334565b915061204382612614565b602082019050919050565b61205781612455565b82525050565b60006120698288611f66565b6020820191506120798287611f31565b6014820191506120898286611f31565b6014820191506120998285611f31565b6014820191506120a98284611f66565b6020820191508190509695505050505050565b60006120c88286611f66565b6020820191506120d88285611f31565b6014820191506120e88284611f66565b602082019150819050949350505050565b60006121058285611f66565b6020820191506121158284611f66565b6020820191508190509392505050565b6000612132828486611f7d565b91508190509392505050565b60006020820190506121536000830184611f22565b92915050565b600060208201905061216e6000830184611f48565b92915050565b60006020820190506121896000830184611f57565b92915050565b600060608201905081810360008301526121aa818688611fa2565b90506121b9602083018561204e565b6121c6604083018461204e565b95945050505050565b600060608201905081810360008301526121e98186611fcf565b90506121f8602083018561204e565b612205604083018461204e565b949350505050565b6000602082019050818103600083015261222681612008565b9050919050565b600060208201905081810360008301526122468161202b565b9050919050565b6000602082019050612262600083018461204e565b92915050565b600060608201905061227d600083018661204e565b61228a6020830185611f22565b612297604083018461204e565b949350505050565b60006040820190506122b4600083018561204e565b6122c1602083018461204e565b9392505050565b60006122d26122e3565b90506122de82826124a1565b919050565b6000604051905090565b600067ffffffffffffffff82111561230857612307612578565b5b612311826125a7565b9050602081019050919050565b600081519050919050565b600081905092915050565b600082825260208201905092915050565b600061235082612455565b915061235b83612455565b9250827fffffffffffffffffffffffffffffffffffffffffffffffffffffffffffffffff038211156123905761238f612549565b5b828201905092915050565b60006123a682612455565b91506123b183612455565b9250828210156123c4576123c3612549565b5b828203905092915050565b60006123da82612435565b9050919050565b60008115159050919050565b6000819050919050565b60007fffffffff0000000000000000000000000000000000000000000000000000000082169050919050565b600061242e826123cf565b9050919050565b600073ffffffffffffffffffffffffffffffffffffffff82169050919050565b6000819050919050565b82818337600083830152505050565b60005b8381101561248c578082015181840152602081019050612471565b8381111561249b576000848401525b50505050565b6124aa826125a7565b810181811067ffffffffffffffff821117156124c9576124c8612578565b5b80604052505050565b60006124dd82612455565b91507fffffffffffffffffffffffffffffffffffffffffffffffffffffffffffffffff8214156125105761250f612549565b5b600182019050919050565b600061252682612537565b9050919050565b6000819050919050565b6000612542826125b8565b9050919050565b7f4e487b7100000000000000000000000000000000000000000000000000000000600052601160045260246000fd5b7f4e487b7100000000000000000000000000000000000000000000000000000000600052604160045260246000fd5b6000601f19601f8301169050919050565b60008160601b9050919050565b7f4f776e61626c653a206e6577206f776e657220697320746865207a65726f206160008201527f6464726573730000000000000000000000000000000000000000000000000000602082015250565b7f4f776e61626c653a2063616c6c6572206973206e6f7420746865206f776e6572600082015250565b612646816123cf565b811461265157600080fd5b50565b61265d816123e1565b811461266857600080fd5b50565b612674816123ed565b811461267f57600080fd5b50565b61268b816123f7565b811461269657600080fd5b50565b6126a281612423565b81146126ad57600080fd5b50565b6126b981612455565b81146126c457600080fd5b5056fea264697066735822122058a31568381b29fe89f628a9892b16b43a2af0a8031a4af61d21cf1454ed493364736f6c63430008040033",
  "devdoc": {
    "details": "A registrar controller for registering and renewing names at fixed cost.",
    "kind": "dev",
    "methods": {
      "owner()": {
        "details": "Returns the address of the current owner."
      },
      "renounceOwnership()": {
        "details": "Leaves the contract without owner. It will not be possible to call `onlyOwner` functions anymore. Can only be called by the current owner. NOTE: Renouncing ownership will leave the contract without an owner, thereby removing any functionality that is only available to the owner."
      },
      "transferOwnership(address)": {
        "details": "Transfers ownership of the contract to a new account (`newOwner`). Can only be called by the current owner."
      }
    },
    "version": 1
  },
  "userdoc": {
    "kind": "user",
    "methods": {},
    "version": 1
  },
  "storageLayout": {
    "storage": [
      {
        "astId": 529,
        "contract": "contracts/ethregistrar/RootRegistrarController.sol:RootRegistrarController",
        "label": "_owner",
        "offset": 0,
        "slot": "0",
        "type": "t_address"
      },
      {
        "astId": 4196,
        "contract": "contracts/ethregistrar/RootRegistrarController.sol:RootRegistrarController",
        "label": "root",
        "offset": 0,
        "slot": "1",
        "type": "t_contract(Root)6497"
      },
      {
        "astId": 4199,
        "contract": "contracts/ethregistrar/RootRegistrarController.sol:RootRegistrarController",
        "label": "prices",
        "offset": 0,
        "slot": "2",
        "type": "t_contract(PriceOracle)4130"
      },
      {
        "astId": 4201,
        "contract": "contracts/ethregistrar/RootRegistrarController.sol:RootRegistrarController",
        "label": "minCommitmentAge",
        "offset": 0,
        "slot": "3",
        "type": "t_uint256"
      },
      {
        "astId": 4203,
        "contract": "contracts/ethregistrar/RootRegistrarController.sol:RootRegistrarController",
        "label": "maxCommitmentAge",
        "offset": 0,
        "slot": "4",
        "type": "t_uint256"
      },
      {
        "astId": 4207,
        "contract": "contracts/ethregistrar/RootRegistrarController.sol:RootRegistrarController",
        "label": "commitments",
        "offset": 0,
        "slot": "5",
        "type": "t_mapping(t_bytes32,t_uint256)"
      }
    ],
    "types": {
      "t_address": {
        "encoding": "inplace",
        "label": "address",
        "numberOfBytes": "20"
      },
      "t_bytes32": {
        "encoding": "inplace",
        "label": "bytes32",
        "numberOfBytes": "32"
      },
      "t_contract(PriceOracle)4130": {
        "encoding": "inplace",
        "label": "contract PriceOracle",
        "numberOfBytes": "20"
      },
      "t_contract(Root)6497": {
        "encoding": "inplace",
        "label": "contract Root",
        "numberOfBytes": "20"
      },
      "t_mapping(t_bytes32,t_uint256)": {
        "encoding": "mapping",
        "key": "t_bytes32",
        "label": "mapping(bytes32 => uint256)",
        "numberOfBytes": "32",
        "value": "t_uint256"
      },
      "t_uint256": {
        "encoding": "inplace",
        "label": "uint256",
        "numberOfBytes": "32"
      }
    }
  }
}