{
  "address": "0xA6be36F1346Ef3466280c96074b225D6a682D8c0",
  "abi": [
    {
      "inputs": [
        {
          "internalType": "contract Root",
          "name": "_root",
          "type": "address"
        },
        {
          "internalType": "contract PriceOracle",
          "name": "_prices",
          "type": "address"
        },
        {
          "internalType": "contract IERC20",
          "name": "_dWebToken",
          "type": "address"
        },
        {
          "internalType": "address",
          "name": "_dwebDistributorAddress",
          "type": "address"
        },
        {
          "internalType": "address payable",
          "name": "_companyWallet",
          "type": "address"
        },
        {
          "internalType": "uint256",
          "name": "_minCommitmentAge",
          "type": "uint256"
        },
        {
          "internalType": "uint256",
          "name": "_maxCommitmentAge",
          "type": "uint256"
        }
      ],
      "stateMutability": "nonpayable",
      "type": "constructor"
    },
    {
      "anonymous": false,
      "inputs": [
        {
          "indexed": true,
          "internalType": "address",
          "name": "wallet",
          "type": "address"
        }
      ],
      "name": "CompanyWalletChanged",
      "type": "event"
    },
    {
      "anonymous": false,
      "inputs": [
        {
          "indexed": true,
          "internalType": "address",
          "name": "dwebDistributorAddress",
          "type": "address"
        }
      ],
      "name": "DecentraWebDistributorChanged",
      "type": "event"
    },
    {
      "anonymous": false,
      "inputs": [
        {
          "indexed": false,
          "internalType": "string",
          "name": "name",
          "type": "string"
        },
        {
          "indexed": true,
          "internalType": "bytes32",
          "name": "label",
          "type": "bytes32"
        },
        {
          "indexed": true,
          "internalType": "address",
          "name": "owner",
          "type": "address"
        },
        {
          "indexed": false,
          "internalType": "uint256",
          "name": "cost",
          "type": "uint256"
        },
        {
          "indexed": false,
          "internalType": "uint256",
          "name": "expires",
          "type": "uint256"
        }
      ],
      "name": "NameRegistered",
      "type": "event"
    },
    {
      "anonymous": false,
      "inputs": [
        {
          "indexed": false,
          "internalType": "string",
          "name": "name",
          "type": "string"
        },
        {
          "indexed": true,
          "internalType": "bytes32",
          "name": "label",
          "type": "bytes32"
        },
        {
          "indexed": false,
          "internalType": "uint256",
          "name": "cost",
          "type": "uint256"
        },
        {
          "indexed": false,
          "internalType": "uint256",
          "name": "expires",
          "type": "uint256"
        }
      ],
      "name": "NameRenewed",
      "type": "event"
    },
    {
      "anonymous": false,
      "inputs": [
        {
          "indexed": true,
          "internalType": "address",
          "name": "oracle",
          "type": "address"
        }
      ],
      "name": "NewPriceOracle",
      "type": "event"
    },
    {
      "anonymous": false,
      "inputs": [
        {
          "indexed": true,
          "internalType": "address",
          "name": "previousOwner",
          "type": "address"
        },
        {
          "indexed": true,
          "internalType": "address",
          "name": "newOwner",
          "type": "address"
        }
      ],
      "name": "OwnershipTransferred",
      "type": "event"
    },
    {
      "inputs": [],
      "name": "MAX_REGISTRATION_DURATION",
      "outputs": [
        {
          "internalType": "uint256",
          "name": "",
          "type": "uint256"
        }
      ],
      "stateMutability": "view",
      "type": "function"
    },
    {
      "inputs": [],
      "name": "MIN_REGISTRATION_DURATION",
      "outputs": [
        {
          "internalType": "uint256",
          "name": "",
          "type": "uint256"
        }
      ],
      "stateMutability": "view",
      "type": "function"
    },
    {
      "inputs": [
        {
          "internalType": "string",
          "name": "name",
          "type": "string"
        }
      ],
      "name": "available",
      "outputs": [
        {
          "internalType": "bool",
          "name": "",
          "type": "bool"
        }
      ],
      "stateMutability": "view",
      "type": "function"
    },
    {
      "inputs": [
        {
          "internalType": "bytes32",
          "name": "commitment",
          "type": "bytes32"
        },
        {
          "internalType": "bytes",
          "name": "sig",
          "type": "bytes"
        }
      ],
      "name": "commit",
      "outputs": [],
      "stateMutability": "nonpayable",
      "type": "function"
    },
    {
      "inputs": [
        {
          "internalType": "bytes32",
          "name": "",
          "type": "bytes32"
        }
      ],
      "name": "commitments",
      "outputs": [
        {
          "internalType": "uint256",
          "name": "",
          "type": "uint256"
        }
      ],
      "stateMutability": "view",
      "type": "function"
    },
    {
      "inputs": [
        {
          "internalType": "string",
          "name": "name",
          "type": "string"
        },
        {
          "internalType": "address",
          "name": "owner",
          "type": "address"
        },
        {
          "internalType": "bytes32",
          "name": "secret",
          "type": "bytes32"
        }
      ],
      "name": "makeCommitment",
      "outputs": [
        {
          "internalType": "bytes32",
          "name": "",
          "type": "bytes32"
        }
      ],
      "stateMutability": "pure",
      "type": "function"
    },
    {
      "inputs": [
        {
          "internalType": "string",
          "name": "name",
          "type": "string"
        },
        {
          "internalType": "address",
          "name": "owner",
          "type": "address"
        },
        {
          "internalType": "bytes32",
          "name": "secret",
          "type": "bytes32"
        },
        {
          "internalType": "address",
          "name": "resolver",
          "type": "address"
        },
        {
          "internalType": "address",
          "name": "addr",
          "type": "address"
        }
      ],
      "name": "makeCommitmentWithConfig",
      "outputs": [
        {
          "internalType": "bytes32",
          "name": "",
          "type": "bytes32"
        }
      ],
      "stateMutability": "pure",
      "type": "function"
    },
    {
      "inputs": [],
      "name": "maxCommitmentAge",
      "outputs": [
        {
          "internalType": "uint256",
          "name": "",
          "type": "uint256"
        }
      ],
      "stateMutability": "view",
      "type": "function"
    },
    {
      "inputs": [],
      "name": "minCommitmentAge",
      "outputs": [
        {
          "internalType": "uint256",
          "name": "",
          "type": "uint256"
        }
      ],
      "stateMutability": "view",
      "type": "function"
    },
    {
      "inputs": [],
      "name": "owner",
      "outputs": [
        {
          "internalType": "address",
          "name": "",
          "type": "address"
        }
      ],
      "stateMutability": "view",
      "type": "function"
    },
    {
      "inputs": [
        {
          "internalType": "string",
          "name": "name",
          "type": "string"
        },
        {
          "internalType": "address",
          "name": "owner",
          "type": "address"
        },
        {
          "internalType": "uint256",
          "name": "duration",
          "type": "uint256"
        },
        {
          "internalType": "bytes32",
          "name": "secret",
          "type": "bytes32"
        },
        {
          "internalType": "bool",
          "name": "isFeeInDWEBToken",
          "type": "bool"
        },
        {
          "internalType": "uint256",
          "name": "fee",
          "type": "uint256"
        }
      ],
      "name": "register",
      "outputs": [],
      "stateMutability": "payable",
      "type": "function"
    },
    {
      "inputs": [
        {
          "internalType": "string",
          "name": "name",
          "type": "string"
        },
        {
          "internalType": "address",
          "name": "owner",
          "type": "address"
        },
        {
          "internalType": "uint256",
          "name": "duration",
          "type": "uint256"
        },
        {
          "internalType": "bytes32",
          "name": "secret",
          "type": "bytes32"
        },
        {
          "internalType": "address",
          "name": "resolver",
          "type": "address"
        },
        {
          "internalType": "address",
          "name": "addr",
          "type": "address"
        },
        {
          "internalType": "bool",
          "name": "isFeeInDWEBToken",
          "type": "bool"
        },
        {
          "internalType": "uint256",
          "name": "fee",
          "type": "uint256"
        }
      ],
      "name": "registerWithConfig",
      "outputs": [],
      "stateMutability": "payable",
      "type": "function"
    },
    {
      "inputs": [
        {
          "internalType": "string",
          "name": "name",
          "type": "string"
        },
        {
          "internalType": "uint256",
          "name": "duration",
          "type": "uint256"
        },
        {
          "internalType": "bool",
          "name": "isFeeInDWEBToken",
          "type": "bool"
        }
      ],
      "name": "renew",
      "outputs": [],
      "stateMutability": "payable",
      "type": "function"
    },
    {
      "inputs": [],
      "name": "renounceOwnership",
      "outputs": [],
      "stateMutability": "nonpayable",
      "type": "function"
    },
    {
      "inputs": [
        {
          "internalType": "string",
          "name": "name",
          "type": "string"
        },
        {
          "internalType": "uint256",
          "name": "duration",
          "type": "uint256"
        },
        {
          "internalType": "bool",
          "name": "isFeeInDWEBToken",
          "type": "bool"
        }
      ],
      "name": "rentPrice",
      "outputs": [
        {
          "internalType": "uint256",
          "name": "",
          "type": "uint256"
        }
      ],
      "stateMutability": "view",
      "type": "function"
    },
    {
      "inputs": [
        {
          "internalType": "address",
          "name": "_approver",
          "type": "address"
        }
      ],
      "name": "setApproverAddress",
      "outputs": [],
      "stateMutability": "nonpayable",
      "type": "function"
    },
    {
      "inputs": [
        {
          "internalType": "uint256",
          "name": "_minCommitmentAge",
          "type": "uint256"
        },
        {
          "internalType": "uint256",
          "name": "_maxCommitmentAge",
          "type": "uint256"
        }
      ],
      "name": "setCommitmentAges",
      "outputs": [],
      "stateMutability": "nonpayable",
      "type": "function"
    },
    {
      "inputs": [
        {
          "internalType": "address payable",
          "name": "wallet",
          "type": "address"
        }
      ],
      "name": "setCompanyWallet",
      "outputs": [],
      "stateMutability": "nonpayable",
      "type": "function"
    },
    {
      "inputs": [
        {
          "internalType": "address",
          "name": "_dwebDistributorAddress",
          "type": "address"
        }
      ],
      "name": "setDecentraWebDistributor",
      "outputs": [],
      "stateMutability": "nonpayable",
      "type": "function"
    },
    {
      "inputs": [
        {
          "internalType": "contract PriceOracle",
          "name": "_prices",
          "type": "address"
        }
      ],
      "name": "setPriceOracle",
      "outputs": [],
      "stateMutability": "nonpayable",
      "type": "function"
    },
    {
      "inputs": [
        {
          "internalType": "bytes4",
          "name": "interfaceID",
          "type": "bytes4"
        }
      ],
      "name": "supportsInterface",
      "outputs": [
        {
          "internalType": "bool",
          "name": "",
          "type": "bool"
        }
      ],
      "stateMutability": "pure",
      "type": "function"
    },
    {
      "inputs": [
        {
          "internalType": "address",
          "name": "newOwner",
          "type": "address"
        }
      ],
      "name": "transferOwnership",
      "outputs": [],
      "stateMutability": "nonpayable",
      "type": "function"
    },
    {
      "inputs": [
        {
          "internalType": "string",
          "name": "name",
          "type": "string"
        }
      ],
      "name": "valid",
      "outputs": [
        {
          "internalType": "bool",
          "name": "",
          "type": "bool"
        }
      ],
      "stateMutability": "pure",
      "type": "function"
    },
    {
      "inputs": [],
      "name": "withdraw",
      "outputs": [],
      "stateMutability": "nonpayable",
      "type": "function"
    }
  ],
  "transactionHash": "0x1f198db1aa7a703f3b43e088b4e0fb9a8c82944c739faee609c2335f6b275578",
  "args": [
    "0x1ACD83B632A6A38F5C24963384078ffF1c34C847",
    "0x0390a8FBA052Be87596aB8DA538B245e1Ed63Bb8",
    "0x1D4E9f1B06450256cBA9608F2E2757dB5FD7337A",
    "0x4CeBBdbBdFe8A1BB3F62A75B5fe9ebaE5D105f8F",
    "0x4CeBBdbBdFe8A1BB3F62A75B5fe9ebaE5D105f8F",
    5,
    604800
  ],
  "solcInputHash": "8acfa5d5fc60624983e398adee1f7112",
  "bytecode": "0x60806040523480156200001157600080fd5b506040516200411038038062004110833981810160405281019062000037919062000322565b620000576200004b620001cc60201b60201c565b620001d460201b60201c565b8181116200006457600080fd5b86600160006101000a81548173ffffffffffffffffffffffffffffffffffffffff021916908373ffffffffffffffffffffffffffffffffffffffff16021790555085600260006101000a81548173ffffffffffffffffffffffffffffffffffffffff021916908373ffffffffffffffffffffffffffffffffffffffff16021790555084600760006101000a81548173ffffffffffffffffffffffffffffffffffffffff021916908373ffffffffffffffffffffffffffffffffffffffff16021790555083600960006101000a81548173ffffffffffffffffffffffffffffffffffffffff021916908373ffffffffffffffffffffffffffffffffffffffff16021790555082600a60006101000a81548173ffffffffffffffffffffffffffffffffffffffff021916908373ffffffffffffffffffffffffffffffffffffffff1602179055508160038190555080600481905550600560088190555050505050505050620004f9565b600033905090565b60008060009054906101000a900473ffffffffffffffffffffffffffffffffffffffff169050816000806101000a81548173ffffffffffffffffffffffffffffffffffffffff021916908373ffffffffffffffffffffffffffffffffffffffff1602179055508173ffffffffffffffffffffffffffffffffffffffff168173ffffffffffffffffffffffffffffffffffffffff167f8be0079c531659141344cd1fd0a4f28419497f9722a3daafe3b4186f6b6457e060405160405180910390a35050565b600081519050620002a9816200045d565b92915050565b600081519050620002c08162000477565b92915050565b600081519050620002d78162000491565b92915050565b600081519050620002ee81620004ab565b92915050565b6000815190506200030581620004c5565b92915050565b6000815190506200031c81620004df565b92915050565b600080600080600080600060e0888a0312156200033e57600080fd5b60006200034e8a828b01620002f4565b9750506020620003618a828b01620002dd565b9650506040620003748a828b01620002c6565b9550506060620003878a828b0162000298565b94505060806200039a8a828b01620002af565b93505060a0620003ad8a828b016200030b565b92505060c0620003c08a828b016200030b565b91505092959891949750929550565b6000620003dc8262000433565b9050919050565b6000620003f08262000433565b9050919050565b60006200040482620003cf565b9050919050565b60006200041882620003cf565b9050919050565b60006200042c82620003cf565b9050919050565b600073ffffffffffffffffffffffffffffffffffffffff82169050919050565b6000819050919050565b6200046881620003cf565b81146200047457600080fd5b50565b6200048281620003e3565b81146200048e57600080fd5b50565b6200049c81620003f7565b8114620004a857600080fd5b50565b620004b6816200040b565b8114620004c257600080fd5b50565b620004d0816200041f565b8114620004dc57600080fd5b50565b620004ea8162000453565b8114620004f657600080fd5b50565b613c0780620005096000396000f3fe60806040526004361061014b5760003560e01c8063839df945116100b6578063aeb8ce9b1161006f578063aeb8ce9b14610453578063c7f9968214610490578063ce1e09c0146104b9578063cf8fc3b1146104e4578063f2fde38b1461050d578063f49826be146105365761014b565b8063839df9451461033c5780638a95b09f146103795780638d839ffe146103a45780638da5cb5b146103cf57806391fb1aaa146103fa5780639791c097146104165761014b565b80634be2b2ec116101085780634be2b2ec1461024f578063530e784f1461026b57806359192b89146102945780636cfc51e2146102bf578063715018a6146102fc5780637e324479146103135761014b565b806301ffc9a714610150578063288311871461018d5780633ccfd60b146101b65780633d86c52f146101cd578063400713ba1461020a5780634ba43d4814610226575b600080fd5b34801561015c57600080fd5b506101776004803603810190610172919061286e565b610573565b60405161018491906130d8565b60405180910390f35b34801561019957600080fd5b506101b460048036038101906101af9190612776565b610779565b005b3480156101c257600080fd5b506101cb6108ec565b005b3480156101d957600080fd5b506101f460048036038101906101ef9190612a7b565b6109b1565b60405161020191906130f3565b60405180910390f35b610224600480360381019061021f91906128c0565b610ad4565b005b34801561023257600080fd5b5061024d6004803603810190610248919061281a565b610b32565b005b61026960048036038101906102649190612967565b610bdd565b005b34801561027757600080fd5b50610292600480360381019061028d9190612897565b610e7e565b005b3480156102a057600080fd5b506102a9610fa3565b6040516102b691906133ad565b60405180910390f35b3480156102cb57600080fd5b506102e660048036038101906102e19190612bd4565b610fab565b6040516102f391906133ad565b60405180910390f35b34801561030857600080fd5b50610311611211565b005b34801561031f57600080fd5b5061033a60048036038101906103359190612c64565b611299565b005b34801561034857600080fd5b50610363600480360381019061035e91906127c8565b611327565b60405161037091906133ad565b60405180910390f35b34801561038557600080fd5b5061038e61133f565b60405161039b91906133ad565b60405180910390f35b3480156103b057600080fd5b506103b9611347565b6040516103c691906133ad565b60405180910390f35b3480156103db57600080fd5b506103e461134d565b6040516103f19190613086565b60405180910390f35b610414600480360381019061040f9190612b0a565b611376565b005b34801561042257600080fd5b5061043d600480360381019061043891906129d3565b611846565b60405161044a91906130d8565b60405180910390f35b34801561045f57600080fd5b5061047a600480360381019061047591906129d3565b61185c565b60405161048791906130d8565b60405180910390f35b34801561049c57600080fd5b506104b760048036038101906104b2919061274d565b6119fd565b005b3480156104c557600080fd5b506104ce611bf2565b6040516104db91906133ad565b60405180910390f35b3480156104f057600080fd5b5061050b6004803603810190610506919061274d565b611bf8565b005b34801561051957600080fd5b50610534600480360381019061052f919061274d565b611cb8565b005b34801561054257600080fd5b5061055d60048036038101906105589190612a14565b611db0565b60405161056a91906130f3565b60405180910390f35b60007f01ffc9a7a5cef8baa21ed3c5c0d7e23accb804b619e9333b597f47a0d84076e27bffffffffffffffffffffffffffffffffffffffffffffffffffffffff1916827bffffffffffffffffffffffffffffffffffffffffffffffffffffffff191614806106e857507facf1a8418b97267ffdb4c11281360744af0ddfe62846b256a04a02acee3a53c37f85f6d1554d9d3ed5c2776e29804063f395dfd65a8dc71f4d1cb6f073d7ee75a37ff14fcbc8f6996b31406143e2613e60bde3c1118cfe166c0aa27ba40ef1033df57ff49826be766d3cc8dc7e4aab3f18eb3d339eb3bce85a7b9144119bbe997b2cc37faeb8ce9b70d5d3f3fba501c34cd61a54703dbe3cfb25bd75d3574635f9ea76837f83e7f6ff8df5fd22801ca995afba5d2bc5cac5264a339adb4a410c5da6c4332418181818187bffffffffffffffffffffffffffffffffffffffffffffffffffffffff1916827bffffffffffffffffffffffffffffffffffffffffffffffffffffffff1916145b8061077257507f3d86c52f15403f1a062ec90b8fe0792e3be0a9cb236cd8ee4ec4b45821bd2faa7ff7a169630bfe39d181bbd2e0b758ee9f1a6ddc0eca0932c13225406d06d41653187bffffffffffffffffffffffffffffffffffffffffffffffffffffffff1916827bffffffffffffffffffffffffffffffffffffffffffffffffffffffff1916145b9050919050565b610781611dc9565b73ffffffffffffffffffffffffffffffffffffffff1661079f61134d565b73ffffffffffffffffffffffffffffffffffffffff16146107f5576040517f08c379a00000000000000000000000000000000000000000000000000000000081526004016107ec9061334d565b60405180910390fd5b600073ffffffffffffffffffffffffffffffffffffffff168173ffffffffffffffffffffffffffffffffffffffff161415610865576040517f08c379a000000000000000000000000000000000000000000000000000000000815260040161085c9061328d565b60405180910390fd5b80600a60006101000a81548173ffffffffffffffffffffffffffffffffffffffff021916908373ffffffffffffffffffffffffffffffffffffffff1602179055508073ffffffffffffffffffffffffffffffffffffffff167f7e76721cea8dbabf87d986684549c169dcbd01bfefb5082b3ecc54bbe323e77e60405160405180910390a250565b6108f4611dc9565b73ffffffffffffffffffffffffffffffffffffffff1661091261134d565b73ffffffffffffffffffffffffffffffffffffffff1614610968576040517f08c379a000000000000000000000000000000000000000000000000000000000815260040161095f9061334d565b60405180910390fd5b3373ffffffffffffffffffffffffffffffffffffffff166108fc479081150290604051600060405180830381858888f193505050501580156109ae573d6000803e3d6000fd5b50565b60008086805190602001209050600073ffffffffffffffffffffffffffffffffffffffff168473ffffffffffffffffffffffffffffffffffffffff16148015610a265750600073ffffffffffffffffffffffffffffffffffffffff168373ffffffffffffffffffffffffffffffffffffffff16145b15610a5e57808686604051602001610a4093929190612fd8565b60405160208183030381529060405280519060200120915050610acb565b600073ffffffffffffffffffffffffffffffffffffffff168473ffffffffffffffffffffffffffffffffffffffff161415610a9857600080fd5b8086858588604051602001610ab1959493929190612f79565b604051602081830303815290604052805190602001209150505b95945050505050565b610b2987878080601f016020809104026020016040519081016040528093929190818152602001838380828437600081840152601f19601f820116905080830192505050505050508686866000808888611376565b50505050505050565b426004546005600085815260200190815260200160002054610b5491906134e1565b10610b5e57600080fd5b600660009054906101000a900473ffffffffffffffffffffffffffffffffffffffff1673ffffffffffffffffffffffffffffffffffffffff16610ba18383611dd1565b73ffffffffffffffffffffffffffffffffffffffff1614610bc157600080fd5b4260056000848152602001908152602001600020819055505050565b6000610c2e85858080601f016020809104026020016040519081016040528093929190818152602001838380828437600081840152601f19601f820116905080830192505050505050508484610fab565b905080341015610c3d57600080fd5b60008585604051610c4f929190613041565b604051809103902090506000600160009054906101000a900473ffffffffffffffffffffffffffffffffffffffff1673ffffffffffffffffffffffffffffffffffffffff1663faff50a86040518163ffffffff1660e01b815260040160206040518083038186803b158015610cc357600080fd5b505afa158015610cd7573d6000803e3d6000fd5b505050506040513d601f19601f82011682018060405250810190610cfb91906127f1565b82604051602001610d0d929190613015565b6040516020818303038152906040528051906020012090506000600160009054906101000a900473ffffffffffffffffffffffffffffffffffffffff1673ffffffffffffffffffffffffffffffffffffffff1663c475abff8360001c886040518363ffffffff1660e01b8152600401610d879291906133ff565b602060405180830381600087803b158015610da157600080fd5b505af1158015610db5573d6000803e3d6000fd5b505050506040513d601f19601f82011682018060405250810190610dd99190612c3b565b905083341115610e36573373ffffffffffffffffffffffffffffffffffffffff166108fc8534610e0991906135c2565b9081150290604051600060405180830381858888f19350505050158015610e34573d6000803e3d6000fd5b505b827f3da24c024582931cfaf8267d8ed24d13a82a8068d5bd337d30ec45cea4e506ae89898785604051610e6c9493929190613153565b60405180910390a25050505050505050565b610e86611dc9565b73ffffffffffffffffffffffffffffffffffffffff16610ea461134d565b73ffffffffffffffffffffffffffffffffffffffff1614610efa576040517f08c379a0000000000000000000000000000000000000000000000000000000008152600401610ef19061334d565b60405180910390fd5b80600260006101000a81548173ffffffffffffffffffffffffffffffffffffffff021916908373ffffffffffffffffffffffffffffffffffffffff160217905550600260009054906101000a900473ffffffffffffffffffffffffffffffffffffffff1673ffffffffffffffffffffffffffffffffffffffff167ff261845a790fe29bbd6631e2ca4a5bdc83e6eed7c3271d9590d97287e00e912360405160405180910390a250565b6309679a3681565b600080848051906020012090506000600160009054906101000a900473ffffffffffffffffffffffffffffffffffffffff1673ffffffffffffffffffffffffffffffffffffffff1663faff50a86040518163ffffffff1660e01b815260040160206040518083038186803b15801561102257600080fd5b505afa158015611036573d6000803e3d6000fd5b505050506040513d601f19601f8201168201806040525081019061105a91906127f1565b8260405160200161106c929190613015565b604051602081830303815290604052805190602001209050600260009054906101000a900473ffffffffffffffffffffffffffffffffffffffff1673ffffffffffffffffffffffffffffffffffffffff1663b5d93ba987600160009054906101000a900473ffffffffffffffffffffffffffffffffffffffff1673ffffffffffffffffffffffffffffffffffffffff1663d6e4fa868560001c6040518263ffffffff1660e01b815260040161112191906133ad565b60206040518083038186803b15801561113957600080fd5b505afa15801561114d573d6000803e3d6000fd5b505050506040513d601f19601f820116820180604052508101906111719190612c3b565b8888600760009054906101000a900473ffffffffffffffffffffffffffffffffffffffff166040518663ffffffff1660e01b81526004016111b69594939291906131f3565b60206040518083038186803b1580156111ce57600080fd5b505afa1580156111e2573d6000803e3d6000fd5b505050506040513d601f19601f820116820180604052508101906112069190612c3b565b925050509392505050565b611219611dc9565b73ffffffffffffffffffffffffffffffffffffffff1661123761134d565b73ffffffffffffffffffffffffffffffffffffffff161461128d576040517f08c379a00000000000000000000000000000000000000000000000000000000081526004016112849061334d565b60405180910390fd5b6112976000611e46565b565b6112a1611dc9565b73ffffffffffffffffffffffffffffffffffffffff166112bf61134d565b73ffffffffffffffffffffffffffffffffffffffff1614611315576040517f08c379a000000000000000000000000000000000000000000000000000000000815260040161130c9061334d565b60405180910390fd5b81600381905550806004819055505050565b60056020528060005260406000206000915090505481565b6301e1853e81565b60035481565b60008060009054906101000a900473ffffffffffffffffffffffffffffffffffffffff16905090565b600061138589898888886109b1565b9050611392898883611f0a565b5060006113a08a8986610fab565b9050803410156113e5576040517f08c379a00000000000000000000000000000000000000000000000000000000081526004016113dc9061324d565b60405180910390fd5b60008a8051906020012090506000600160009054906101000a900473ffffffffffffffffffffffffffffffffffffffff1673ffffffffffffffffffffffffffffffffffffffff1663faff50a86040518163ffffffff1660e01b815260040160206040518083038186803b15801561145b57600080fd5b505afa15801561146f573d6000803e3d6000fd5b505050506040513d601f19601f8201168201806040525081019061149391906127f1565b826040516020016114a5929190613015565b60405160208183030381529060405280519060200120905060008073ffffffffffffffffffffffffffffffffffffffff168873ffffffffffffffffffffffffffffffffffffffff16146114f757600080fd5b600160009054906101000a900473ffffffffffffffffffffffffffffffffffffffff1673ffffffffffffffffffffffffffffffffffffffff1663fca247ac8360001c8e8e6040518463ffffffff1660e01b8152600401611559939291906133c8565b602060405180830381600087803b15801561157357600080fd5b505af1158015611587573d6000803e3d6000fd5b505050506040513d601f19601f820116820180604052508101906115ab9190612c3b565b905086156116b957600084871015611642576115d08786611fb790919063ffffffff16565b905060006115fa866115ec606485611fe090919063ffffffff16565b61202590919063ffffffff16565b90506008548110611640576040517f08c379a00000000000000000000000000000000000000000000000000000000081526004016116379061332d565b60405180910390fd5b505b6116b333600960009054906101000a900473ffffffffffffffffffffffffffffffffffffffff1687600760009054906101000a900473ffffffffffffffffffffffffffffffffffffffff1673ffffffffffffffffffffffffffffffffffffffff1661204d909392919063ffffffff16565b506117e4565b6000600a60009054906101000a900473ffffffffffffffffffffffffffffffffffffffff1673ffffffffffffffffffffffffffffffffffffffff168560405161170190613071565b60006040518083038185875af1925050503d806000811461173e576040519150601f19603f3d011682016040523d82523d6000602084013e611743565b606091505b5050905080611787576040517f08c379a000000000000000000000000000000000000000000000000000000000815260040161177e906132ad565b60405180910390fd5b843411156117e2573373ffffffffffffffffffffffffffffffffffffffff166108fc86346117b591906135c2565b9081150290604051600060405180830381858888f193505050501580156117e0573d6000803e3d6000fd5b505b505b8b73ffffffffffffffffffffffffffffffffffffffff16837fca6abbe9d7f11422cb6ca7629fbf6fe9efb1c621f71ce8f02b9f2a230097404f8f878560405161182f939291906131b5565b60405180910390a350505050505050505050505050565b60006003611853836120d6565b10159050919050565b600080828051906020012090506000600160009054906101000a900473ffffffffffffffffffffffffffffffffffffffff1673ffffffffffffffffffffffffffffffffffffffff1663faff50a86040518163ffffffff1660e01b815260040160206040518083038186803b1580156118d357600080fd5b505afa1580156118e7573d6000803e3d6000fd5b505050506040513d601f19601f8201168201806040525081019061190b91906127f1565b8260405160200161191d929190613015565b60405160208183030381529060405280519060200120905061193e84611846565b80156119f45750600160009054906101000a900473ffffffffffffffffffffffffffffffffffffffff1673ffffffffffffffffffffffffffffffffffffffff166396e494e88260001c6040518263ffffffff1660e01b81526004016119a391906133ad565b60206040518083038186803b1580156119bb57600080fd5b505afa1580156119cf573d6000803e3d6000fd5b505050506040513d601f19601f820116820180604052508101906119f3919061279f565b5b92505050919050565b611a05611dc9565b73ffffffffffffffffffffffffffffffffffffffff16611a2361134d565b73ffffffffffffffffffffffffffffffffffffffff1614611a79576040517f08c379a0000000000000000000000000000000000000000000000000000000008152600401611a709061334d565b60405180910390fd5b600960009054906101000a900473ffffffffffffffffffffffffffffffffffffffff16611abb8173ffffffffffffffffffffffffffffffffffffffff166122b1565b611afa576040517f08c379a0000000000000000000000000000000000000000000000000000000008152600401611af19061330d565b60405180910390fd5b600073ffffffffffffffffffffffffffffffffffffffff168273ffffffffffffffffffffffffffffffffffffffff161415611b6a576040517f08c379a0000000000000000000000000000000000000000000000000000000008152600401611b61906132ed565b60405180910390fd5b81600960006101000a81548173ffffffffffffffffffffffffffffffffffffffff021916908373ffffffffffffffffffffffffffffffffffffffff1602179055508173ffffffffffffffffffffffffffffffffffffffff167fe84b1c3567d939c721221cf11dbfa72d4fce11c22142b08ba83babfd72b29abc60405160405180910390a25050565b60045481565b611c00611dc9565b73ffffffffffffffffffffffffffffffffffffffff16611c1e61134d565b73ffffffffffffffffffffffffffffffffffffffff1614611c74576040517f08c379a0000000000000000000000000000000000000000000000000000000008152600401611c6b9061334d565b60405180910390fd5b80600660006101000a81548173ffffffffffffffffffffffffffffffffffffffff021916908373ffffffffffffffffffffffffffffffffffffffff16021790555050565b611cc0611dc9565b73ffffffffffffffffffffffffffffffffffffffff16611cde61134d565b73ffffffffffffffffffffffffffffffffffffffff1614611d34576040517f08c379a0000000000000000000000000000000000000000000000000000000008152600401611d2b9061334d565b60405180910390fd5b600073ffffffffffffffffffffffffffffffffffffffff168173ffffffffffffffffffffffffffffffffffffffff161415611da4576040517f08c379a0000000000000000000000000000000000000000000000000000000008152600401611d9b9061326d565b60405180910390fd5b611dad81611e46565b50565b6000611dc08484846000806109b1565b90509392505050565b600033905090565b600080600080611de0856122c4565b80935081945082955050505060018684848460405160008152602001604052604051611e0f949392919061310e565b6020604051602081039080840390855afa158015611e31573d6000803e3d6000fd5b50505060206040510351935050505092915050565b60008060009054906101000a900473ffffffffffffffffffffffffffffffffffffffff169050816000806101000a81548173ffffffffffffffffffffffffffffffffffffffff021916908373ffffffffffffffffffffffffffffffffffffffff1602179055508173ffffffffffffffffffffffffffffffffffffffff168173ffffffffffffffffffffffffffffffffffffffff167f8be0079c531659141344cd1fd0a4f28419497f9722a3daafe3b4186f6b6457e060405160405180910390a35050565b6000426003546005600085815260200190815260200160002054611f2e91906134e1565b1115611f3957600080fd5b426004546005600085815260200190815260200160002054611f5b91906134e1565b11611f6557600080fd5b611f6e8461185c565b611f7757600080fd5b60056000838152602001908152602001600020600090556301e1853e831015611f9f57600080fd5b6309679a36831115611fb057600080fd5b9392505050565b600082821115611fc657600080fd5b60008284611fd491906135c2565b90508091505092915050565b600080831415611ff3576000905061201f565b600082846120019190613568565b90508284826120109190613537565b1461201a57600080fd5b809150505b92915050565b600080821161203357600080fd5b600082846120419190613537565b90508091505092915050565b6120d0846323b872dd60e01b85858560405160240161206e939291906130a1565b604051602081830303815290604052907bffffffffffffffffffffffffffffffffffffffffffffffffffffffff19166020820180517bffffffffffffffffffffffffffffffffffffffffffffffffffffffff8381831617835250505050612307565b50505050565b60008060008084519050600092505b808210156122a6576000858381518110612128577f4e487b7100000000000000000000000000000000000000000000000000000000600052603260045260246000fd5b602001015160f81c60f81b9050608060f81b817effffffffffffffffffffffffffffffffffffffffffffffffffffffffffffff191610156121775760018361217091906134e1565b9250612292565b60e060f81b817effffffffffffffffffffffffffffffffffffffffffffffffffffffffffffff191610156121b9576002836121b291906134e1565b9250612291565b60f060f81b817effffffffffffffffffffffffffffffffffffffffffffffffffffffffffffff191610156121fb576003836121f491906134e1565b9250612290565b60f8801b817effffffffffffffffffffffffffffffffffffffffffffffffffffffffffffff1916101561223c5760048361223591906134e1565b925061228f565b60fc60f81b817effffffffffffffffffffffffffffffffffffffffffffffffffffffffffffff1916101561227e5760058361227791906134e1565b925061228e565b60068361228b91906134e1565b92505b5b5b5b5b50828061229e90613718565b9350506120e5565b829350505050919050565b600080823b905060008111915050919050565b600080600060418451146122d757600080fd5b60008060006020870151925060408701519150606087015160001a90508083839550955095505050509193909250565b6000612369826040518060400160405280602081526020017f5361666545524332303a206c6f772d6c6576656c2063616c6c206661696c65648152508573ffffffffffffffffffffffffffffffffffffffff166123ce9092919063ffffffff16565b90506000815111156123c95780806020019051810190612389919061279f565b6123c8576040517f08c379a00000000000000000000000000000000000000000000000000000000081526004016123bf9061338d565b60405180910390fd5b5b505050565b60606123dd84846000856123e6565b90509392505050565b60608247101561242b576040517f08c379a0000000000000000000000000000000000000000000000000000000008152600401612422906132cd565b60405180910390fd5b612434856122b1565b612473576040517f08c379a000000000000000000000000000000000000000000000000000000000815260040161246a9061336d565b60405180910390fd5b6000808673ffffffffffffffffffffffffffffffffffffffff16858760405161249c919061305a565b60006040518083038185875af1925050503d80600081146124d9576040519150601f19603f3d011682016040523d82523d6000602084013e6124de565b606091505b50915091506124ee8282866124fa565b92505050949350505050565b6060831561250a5782905061255a565b60008351111561251d5782518084602001fd5b816040517f08c379a00000000000000000000000000000000000000000000000000000000081526004016125519190613193565b60405180910390fd5b9392505050565b600061257461256f8461344d565b613428565b90508281526020810184848401111561258c57600080fd5b6125978482856136a5565b509392505050565b60006125b26125ad8461347e565b613428565b9050828152602081018484840111156125ca57600080fd5b6125d58482856136a5565b509392505050565b6000813590506125ec81613b30565b92915050565b60008135905061260181613b47565b92915050565b60008135905061261681613b5e565b92915050565b60008151905061262b81613b5e565b92915050565b60008135905061264081613b75565b92915050565b60008151905061265581613b75565b92915050565b60008135905061266a81613b8c565b92915050565b600082601f83011261268157600080fd5b8135612691848260208601612561565b91505092915050565b6000813590506126a981613ba3565b92915050565b60008083601f8401126126c157600080fd5b8235905067ffffffffffffffff8111156126da57600080fd5b6020830191508360018202830111156126f257600080fd5b9250929050565b600082601f83011261270a57600080fd5b813561271a84826020860161259f565b91505092915050565b60008135905061273281613bba565b92915050565b60008151905061274781613bba565b92915050565b60006020828403121561275f57600080fd5b600061276d848285016125dd565b91505092915050565b60006020828403121561278857600080fd5b6000612796848285016125f2565b91505092915050565b6000602082840312156127b157600080fd5b60006127bf8482850161261c565b91505092915050565b6000602082840312156127da57600080fd5b60006127e884828501612631565b91505092915050565b60006020828403121561280357600080fd5b600061281184828501612646565b91505092915050565b6000806040838503121561282d57600080fd5b600061283b85828601612631565b925050602083013567ffffffffffffffff81111561285857600080fd5b61286485828601612670565b9150509250929050565b60006020828403121561288057600080fd5b600061288e8482850161265b565b91505092915050565b6000602082840312156128a957600080fd5b60006128b78482850161269a565b91505092915050565b600080600080600080600060c0888a0312156128db57600080fd5b600088013567ffffffffffffffff8111156128f557600080fd5b6129018a828b016126af565b975097505060206129148a828b016125dd565b95505060406129258a828b01612723565b94505060606129368a828b01612631565b93505060806129478a828b01612607565b92505060a06129588a828b01612723565b91505092959891949750929550565b6000806000806060858703121561297d57600080fd5b600085013567ffffffffffffffff81111561299757600080fd5b6129a3878288016126af565b945094505060206129b687828801612723565b92505060406129c787828801612607565b91505092959194509250565b6000602082840312156129e557600080fd5b600082013567ffffffffffffffff8111156129ff57600080fd5b612a0b848285016126f9565b91505092915050565b600080600060608486031215612a2957600080fd5b600084013567ffffffffffffffff811115612a4357600080fd5b612a4f868287016126f9565b9350506020612a60868287016125dd565b9250506040612a7186828701612631565b9150509250925092565b600080600080600060a08688031215612a9357600080fd5b600086013567ffffffffffffffff811115612aad57600080fd5b612ab9888289016126f9565b9550506020612aca888289016125dd565b9450506040612adb88828901612631565b9350506060612aec888289016125dd565b9250506080612afd888289016125dd565b9150509295509295909350565b600080600080600080600080610100898b031215612b2757600080fd5b600089013567ffffffffffffffff811115612b4157600080fd5b612b4d8b828c016126f9565b9850506020612b5e8b828c016125dd565b9750506040612b6f8b828c01612723565b9650506060612b808b828c01612631565b9550506080612b918b828c016125dd565b94505060a0612ba28b828c016125dd565b93505060c0612bb38b828c01612607565b92505060e0612bc48b828c01612723565b9150509295985092959890939650565b600080600060608486031215612be957600080fd5b600084013567ffffffffffffffff811115612c0357600080fd5b612c0f868287016126f9565b9350506020612c2086828701612723565b9250506040612c3186828701612607565b9150509250925092565b600060208284031215612c4d57600080fd5b6000612c5b84828501612738565b91505092915050565b60008060408385031215612c7757600080fd5b6000612c8585828601612723565b9250506020612c9685828601612723565b9150509250929050565b612ca9816135f6565b82525050565b612cc0612cbb826135f6565b613761565b82525050565b612ccf8161361a565b82525050565b612cde81613626565b82525050565b612cf5612cf082613626565b613773565b82525050565b6000612d0783856134c5565b9350612d148385846136a5565b82840190509392505050565b6000612d2b826134af565b612d3581856134c5565b9350612d458185602086016136b4565b80840191505092915050565b6000612d5d83856134d0565b9350612d6a8385846136a5565b612d738361381c565b840190509392505050565b6000612d89826134ba565b612d9381856134d0565b9350612da38185602086016136b4565b612dac8161381c565b840191505092915050565b6000612dc46020836134d0565b9150612dcf8261383a565b602082019050919050565b6000612de76026836134d0565b9150612df282613863565b604082019050919050565b6000612e0a6027836134d0565b9150612e15826138b2565b604082019050919050565b6000612e2d6023836134d0565b9150612e3882613901565b604082019050919050565b6000612e506026836134d0565b9150612e5b82613950565b604082019050919050565b6000612e736037836134d0565b9150612e7e8261399f565b604082019050919050565b6000612e966034836134d0565b9150612ea1826139ee565b604082019050919050565b6000612eb96035836134d0565b9150612ec482613a3d565b604082019050919050565b6000612edc6020836134d0565b9150612ee782613a8c565b602082019050919050565b6000612eff6000836134c5565b9150612f0a82613ab5565b600082019050919050565b6000612f22601d836134d0565b9150612f2d82613ab8565b602082019050919050565b6000612f45602a836134d0565b9150612f5082613ae1565b604082019050919050565b612f648161368e565b82525050565b612f7381613698565b82525050565b6000612f858288612ce4565b602082019150612f958287612caf565b601482019150612fa58286612caf565b601482019150612fb58285612caf565b601482019150612fc58284612ce4565b6020820191508190509695505050505050565b6000612fe48286612ce4565b602082019150612ff48285612caf565b6014820191506130048284612ce4565b602082019150819050949350505050565b60006130218285612ce4565b6020820191506130318284612ce4565b6020820191508190509392505050565b600061304e828486612cfb565b91508190509392505050565b60006130668284612d20565b915081905092915050565b600061307c82612ef2565b9150819050919050565b600060208201905061309b6000830184612ca0565b92915050565b60006060820190506130b66000830186612ca0565b6130c36020830185612ca0565b6130d06040830184612f5b565b949350505050565b60006020820190506130ed6000830184612cc6565b92915050565b60006020820190506131086000830184612cd5565b92915050565b60006080820190506131236000830187612cd5565b6131306020830186612f6a565b61313d6040830185612cd5565b61314a6060830184612cd5565b95945050505050565b6000606082019050818103600083015261316e818688612d51565b905061317d6020830185612f5b565b61318a6040830184612f5b565b95945050505050565b600060208201905081810360008301526131ad8184612d7e565b905092915050565b600060608201905081810360008301526131cf8186612d7e565b90506131de6020830185612f5b565b6131eb6040830184612f5b565b949350505050565b600060a082019050818103600083015261320d8188612d7e565b905061321c6020830187612f5b565b6132296040830186612f5b565b6132366060830185612cc6565b6132436080830184612ca0565b9695505050505050565b6000602082019050818103600083015261326681612db7565b9050919050565b6000602082019050818103600083015261328681612dda565b9050919050565b600060208201905081810360008301526132a681612dfd565b9050919050565b600060208201905081810360008301526132c681612e20565b9050919050565b600060208201905081810360008301526132e681612e43565b9050919050565b6000602082019050818103600083015261330681612e66565b9050919050565b6000602082019050818103600083015261332681612e89565b9050919050565b6000602082019050818103600083015261334681612eac565b9050919050565b6000602082019050818103600083015261336681612ecf565b9050919050565b6000602082019050818103600083015261338681612f15565b9050919050565b600060208201905081810360008301526133a681612f38565b9050919050565b60006020820190506133c26000830184612f5b565b92915050565b60006060820190506133dd6000830186612f5b565b6133ea6020830185612ca0565b6133f76040830184612f5b565b949350505050565b60006040820190506134146000830185612f5b565b6134216020830184612f5b565b9392505050565b6000613432613443565b905061343e82826136e7565b919050565b6000604051905090565b600067ffffffffffffffff821115613468576134676137ed565b5b6134718261381c565b9050602081019050919050565b600067ffffffffffffffff821115613499576134986137ed565b5b6134a28261381c565b9050602081019050919050565b600081519050919050565b600081519050919050565b600081905092915050565b600082825260208201905092915050565b60006134ec8261368e565b91506134f78361368e565b9250827fffffffffffffffffffffffffffffffffffffffffffffffffffffffffffffffff0382111561352c5761352b61378f565b5b828201905092915050565b60006135428261368e565b915061354d8361368e565b92508261355d5761355c6137be565b5b828204905092915050565b60006135738261368e565b915061357e8361368e565b9250817fffffffffffffffffffffffffffffffffffffffffffffffffffffffffffffffff04831182151516156135b7576135b661378f565b5b828202905092915050565b60006135cd8261368e565b91506135d88361368e565b9250828210156135eb576135ea61378f565b5b828203905092915050565b60006136018261366e565b9050919050565b60006136138261366e565b9050919050565b60008115159050919050565b6000819050919050565b60007fffffffff0000000000000000000000000000000000000000000000000000000082169050919050565b6000613667826135f6565b9050919050565b600073ffffffffffffffffffffffffffffffffffffffff82169050919050565b6000819050919050565b600060ff82169050919050565b82818337600083830152505050565b60005b838110156136d25780820151818401526020810190506136b7565b838111156136e1576000848401525b50505050565b6136f08261381c565b810181811067ffffffffffffffff8211171561370f5761370e6137ed565b5b80604052505050565b60006137238261368e565b91507fffffffffffffffffffffffffffffffffffffffffffffffffffffffffffffffff8214156137565761375561378f565b5b600182019050919050565b600061376c8261377d565b9050919050565b6000819050919050565b60006137888261382d565b9050919050565b7f4e487b7100000000000000000000000000000000000000000000000000000000600052601160045260246000fd5b7f4e487b7100000000000000000000000000000000000000000000000000000000600052601260045260246000fd5b7f4e487b7100000000000000000000000000000000000000000000000000000000600052604160045260246000fd5b6000601f19601f8301169050919050565b60008160601b9050919050565b7f5b56616c69646174696f6e5d20456e6f75676820455448206e6f742073656e74600082015250565b7f4f776e61626c653a206e6577206f776e657220697320746865207a65726f206160008201527f6464726573730000000000000000000000000000000000000000000000000000602082015250565b7f5b56616c69646174696f6e5d2077616c6c657420697320746865207a65726f2060008201527f6164647265737300000000000000000000000000000000000000000000000000602082015250565b7f5b56616c69646174696f6e5d205472616e73666572206f66206665652066616960008201527f6c65640000000000000000000000000000000000000000000000000000000000602082015250565b7f416464726573733a20696e73756666696369656e742062616c616e636520666f60008201527f722063616c6c0000000000000000000000000000000000000000000000000000602082015250565b7f5b56616c69646174696f6e5d20647765624469737472696275746f724164647260008201527f65737320697320746865207a65726f2061646472657373000000000000000000602082015250565b7f5b56616c69646174696f6e5d20546865206164647265737320646f6573206e6f60008201527f7420636f6e7461696e206120636f6e7472616374000000000000000000000000602082015250565b7f5b56616c69646174696f6e5d20466565202844574542292069732062656c6f7760008201527f206d696e696d756d207265717569726564206665650000000000000000000000602082015250565b7f4f776e61626c653a2063616c6c6572206973206e6f7420746865206f776e6572600082015250565b50565b7f416464726573733a2063616c6c20746f206e6f6e2d636f6e7472616374000000600082015250565b7f5361666545524332303a204552433230206f7065726174696f6e20646964206e60008201527f6f74207375636365656400000000000000000000000000000000000000000000602082015250565b613b39816135f6565b8114613b4457600080fd5b50565b613b5081613608565b8114613b5b57600080fd5b50565b613b678161361a565b8114613b7257600080fd5b50565b613b7e81613626565b8114613b8957600080fd5b50565b613b9581613630565b8114613ba057600080fd5b50565b613bac8161365c565b8114613bb757600080fd5b50565b613bc38161368e565b8114613bce57600080fd5b5056fea2646970667358221220d8b373e764bf512f9610c9ad20651130417815a29c3f80c958830c94b3391af364736f6c63430008040033",
  "devdoc": {
    "details": "A registrar controller for registering and renewing names at fixed cost.",
    "kind": "dev",
    "methods": {
      "owner()": {
        "details": "Returns the address of the current owner."
      },
      "renounceOwnership()": {
        "details": "Leaves the contract without owner. It will not be possible to call `onlyOwner` functions anymore. Can only be called by the current owner. NOTE: Renouncing ownership will leave the contract without an owner, thereby removing any functionality that is only available to the owner."
      },
      "transferOwnership(address)": {
        "details": "Transfers ownership of the contract to a new account (`newOwner`). Can only be called by the current owner."
      }
    },
    "version": 1
  },
  "userdoc": {
    "kind": "user",
    "methods": {},
    "version": 1
  },
  "storageLayout": {
    "storage": [
      {
        "astId": 760,
        "contract": "contracts/ethregistrar/RootRegistrarController.sol:RootRegistrarController",
        "label": "_owner",
        "offset": 0,
        "slot": "0",
        "type": "t_address"
      },
      {
        "astId": 14333,
        "contract": "contracts/ethregistrar/RootRegistrarController.sol:RootRegistrarController",
        "label": "root",
        "offset": 0,
        "slot": "1",
        "type": "t_contract(Root)19845"
      },
      {
        "astId": 14336,
        "contract": "contracts/ethregistrar/RootRegistrarController.sol:RootRegistrarController",
        "label": "prices",
        "offset": 0,
        "slot": "2",
        "type": "t_contract(PriceOracle)14252"
      },
      {
        "astId": 14338,
        "contract": "contracts/ethregistrar/RootRegistrarController.sol:RootRegistrarController",
        "label": "minCommitmentAge",
        "offset": 0,
        "slot": "3",
        "type": "t_uint256"
      },
      {
        "astId": 14340,
        "contract": "contracts/ethregistrar/RootRegistrarController.sol:RootRegistrarController",
        "label": "maxCommitmentAge",
        "offset": 0,
        "slot": "4",
        "type": "t_uint256"
      },
      {
        "astId": 14344,
        "contract": "contracts/ethregistrar/RootRegistrarController.sol:RootRegistrarController",
        "label": "commitments",
        "offset": 0,
        "slot": "5",
        "type": "t_mapping(t_bytes32,t_uint256)"
      },
      {
        "astId": 14346,
        "contract": "contracts/ethregistrar/RootRegistrarController.sol:RootRegistrarController",
        "label": "approverAddress",
        "offset": 0,
        "slot": "6",
        "type": "t_address"
      },
      {
        "astId": 14349,
        "contract": "contracts/ethregistrar/RootRegistrarController.sol:RootRegistrarController",
        "label": "dWebToken",
        "offset": 0,
        "slot": "7",
        "type": "t_contract(IERC20)934"
      },
      {
        "astId": 14351,
        "contract": "contracts/ethregistrar/RootRegistrarController.sol:RootRegistrarController",
        "label": "allowedFeeSlippagePercentage",
        "offset": 0,
        "slot": "8",
        "type": "t_uint256"
      },
      {
        "astId": 14353,
        "contract": "contracts/ethregistrar/RootRegistrarController.sol:RootRegistrarController",
        "label": "dwebDistributorAddress",
        "offset": 0,
        "slot": "9",
        "type": "t_address"
      },
      {
        "astId": 14355,
        "contract": "contracts/ethregistrar/RootRegistrarController.sol:RootRegistrarController",
        "label": "companyWallet",
        "offset": 0,
        "slot": "10",
        "type": "t_address_payable"
      }
    ],
    "types": {
      "t_address": {
        "encoding": "inplace",
        "label": "address",
        "numberOfBytes": "20"
      },
      "t_address_payable": {
        "encoding": "inplace",
        "label": "address payable",
        "numberOfBytes": "20"
      },
      "t_bytes32": {
        "encoding": "inplace",
        "label": "bytes32",
        "numberOfBytes": "32"
      },
      "t_contract(IERC20)934": {
        "encoding": "inplace",
        "label": "contract IERC20",
        "numberOfBytes": "20"
      },
      "t_contract(PriceOracle)14252": {
        "encoding": "inplace",
        "label": "contract PriceOracle",
        "numberOfBytes": "20"
      },
      "t_contract(Root)19845": {
        "encoding": "inplace",
        "label": "contract Root",
        "numberOfBytes": "20"
      },
      "t_mapping(t_bytes32,t_uint256)": {
        "encoding": "mapping",
        "key": "t_bytes32",
        "label": "mapping(bytes32 => uint256)",
        "numberOfBytes": "32",
        "value": "t_uint256"
      },
      "t_uint256": {
        "encoding": "inplace",
        "label": "uint256",
        "numberOfBytes": "32"
      }
    }
  }
}