{
  "address": "0xbF662B9E8c3DDC15c0500C7Bd8867de557c65ABB",
  "abi": [
    {
      "inputs": [
        {
          "internalType": "contract Root",
          "name": "_root",
          "type": "address"
        },
        {
          "internalType": "contract PriceOracle",
          "name": "_prices",
          "type": "address"
        },
        {
          "internalType": "contract IERC20",
          "name": "_dWebToken",
          "type": "address"
        },
        {
          "internalType": "address",
          "name": "_dwebDistributorAddress",
          "type": "address"
        },
        {
          "internalType": "address payable",
          "name": "_companyWallet",
          "type": "address"
        },
        {
          "internalType": "uint256",
          "name": "_minCommitmentAge",
          "type": "uint256"
        },
        {
          "internalType": "uint256",
          "name": "_maxCommitmentAge",
          "type": "uint256"
        }
      ],
      "stateMutability": "nonpayable",
      "type": "constructor"
    },
    {
      "anonymous": false,
      "inputs": [
        {
          "indexed": true,
          "internalType": "address",
          "name": "wallet",
          "type": "address"
        }
      ],
      "name": "CompanyWalletChanged",
      "type": "event"
    },
    {
      "anonymous": false,
      "inputs": [
        {
          "indexed": true,
          "internalType": "address",
          "name": "dwebDistributorAddress",
          "type": "address"
        }
      ],
      "name": "DecentraWebDistributorChanged",
      "type": "event"
    },
    {
      "anonymous": false,
      "inputs": [
        {
          "indexed": false,
          "internalType": "string",
          "name": "name",
          "type": "string"
        },
        {
          "indexed": true,
          "internalType": "bytes32",
          "name": "label",
          "type": "bytes32"
        },
        {
          "indexed": true,
          "internalType": "address",
          "name": "owner",
          "type": "address"
        },
        {
          "indexed": false,
          "internalType": "uint256",
          "name": "cost",
          "type": "uint256"
        },
        {
          "indexed": false,
          "internalType": "uint256",
          "name": "expires",
          "type": "uint256"
        }
      ],
      "name": "NameRegistered",
      "type": "event"
    },
    {
      "anonymous": false,
      "inputs": [
        {
          "indexed": false,
          "internalType": "string",
          "name": "name",
          "type": "string"
        },
        {
          "indexed": true,
          "internalType": "bytes32",
          "name": "label",
          "type": "bytes32"
        },
        {
          "indexed": false,
          "internalType": "uint256",
          "name": "cost",
          "type": "uint256"
        },
        {
          "indexed": false,
          "internalType": "uint256",
          "name": "expires",
          "type": "uint256"
        }
      ],
      "name": "NameRenewed",
      "type": "event"
    },
    {
      "anonymous": false,
      "inputs": [
        {
          "indexed": true,
          "internalType": "address",
          "name": "oracle",
          "type": "address"
        }
      ],
      "name": "NewPriceOracle",
      "type": "event"
    },
    {
      "anonymous": false,
      "inputs": [
        {
          "indexed": true,
          "internalType": "address",
          "name": "previousOwner",
          "type": "address"
        },
        {
          "indexed": true,
          "internalType": "address",
          "name": "newOwner",
          "type": "address"
        }
      ],
      "name": "OwnershipTransferred",
      "type": "event"
    },
    {
      "inputs": [],
      "name": "MAX_REGISTRATION_DURATION",
      "outputs": [
        {
          "internalType": "uint256",
          "name": "",
          "type": "uint256"
        }
      ],
      "stateMutability": "view",
      "type": "function"
    },
    {
      "inputs": [],
      "name": "MIN_REGISTRATION_DURATION",
      "outputs": [
        {
          "internalType": "uint256",
          "name": "",
          "type": "uint256"
        }
      ],
      "stateMutability": "view",
      "type": "function"
    },
    {
      "inputs": [
        {
          "internalType": "string",
          "name": "name",
          "type": "string"
        }
      ],
      "name": "available",
      "outputs": [
        {
          "internalType": "bool",
          "name": "",
          "type": "bool"
        }
      ],
      "stateMutability": "view",
      "type": "function"
    },
    {
      "inputs": [
        {
          "internalType": "bytes32",
          "name": "commitment",
          "type": "bytes32"
        },
        {
          "internalType": "uint8",
          "name": "v",
          "type": "uint8"
        },
        {
          "internalType": "bytes32",
          "name": "r",
          "type": "bytes32"
        },
        {
          "internalType": "bytes32",
          "name": "s",
          "type": "bytes32"
        }
      ],
      "name": "commit",
      "outputs": [],
      "stateMutability": "nonpayable",
      "type": "function"
    },
    {
      "inputs": [
        {
          "internalType": "bytes32",
          "name": "",
          "type": "bytes32"
        }
      ],
      "name": "commitments",
      "outputs": [
        {
          "internalType": "uint256",
          "name": "",
          "type": "uint256"
        }
      ],
      "stateMutability": "view",
      "type": "function"
    },
    {
      "inputs": [
        {
          "internalType": "string",
          "name": "name",
          "type": "string"
        },
        {
          "internalType": "address",
          "name": "owner",
          "type": "address"
        },
        {
          "internalType": "bytes32",
          "name": "secret",
          "type": "bytes32"
        }
      ],
      "name": "makeCommitment",
      "outputs": [
        {
          "internalType": "bytes32",
          "name": "",
          "type": "bytes32"
        }
      ],
      "stateMutability": "pure",
      "type": "function"
    },
    {
      "inputs": [
        {
          "internalType": "string",
          "name": "name",
          "type": "string"
        },
        {
          "internalType": "address",
          "name": "owner",
          "type": "address"
        },
        {
          "internalType": "bytes32",
          "name": "secret",
          "type": "bytes32"
        },
        {
          "internalType": "address",
          "name": "resolver",
          "type": "address"
        },
        {
          "internalType": "address",
          "name": "addr",
          "type": "address"
        }
      ],
      "name": "makeCommitmentWithConfig",
      "outputs": [
        {
          "internalType": "bytes32",
          "name": "",
          "type": "bytes32"
        }
      ],
      "stateMutability": "pure",
      "type": "function"
    },
    {
      "inputs": [],
      "name": "maxCommitmentAge",
      "outputs": [
        {
          "internalType": "uint256",
          "name": "",
          "type": "uint256"
        }
      ],
      "stateMutability": "view",
      "type": "function"
    },
    {
      "inputs": [],
      "name": "minCommitmentAge",
      "outputs": [
        {
          "internalType": "uint256",
          "name": "",
          "type": "uint256"
        }
      ],
      "stateMutability": "view",
      "type": "function"
    },
    {
      "inputs": [],
      "name": "owner",
      "outputs": [
        {
          "internalType": "address",
          "name": "",
          "type": "address"
        }
      ],
      "stateMutability": "view",
      "type": "function"
    },
    {
      "inputs": [
        {
          "internalType": "string",
          "name": "name",
          "type": "string"
        },
        {
          "internalType": "address",
          "name": "owner",
          "type": "address"
        },
        {
          "internalType": "uint256",
          "name": "duration",
          "type": "uint256"
        },
        {
          "internalType": "bytes32",
          "name": "secret",
          "type": "bytes32"
        },
        {
          "internalType": "bool",
          "name": "isFeeInDWEBToken",
          "type": "bool"
        },
        {
          "internalType": "uint256",
          "name": "fee",
          "type": "uint256"
        }
      ],
      "name": "register",
      "outputs": [],
      "stateMutability": "payable",
      "type": "function"
    },
    {
      "inputs": [
        {
          "internalType": "string",
          "name": "name",
          "type": "string"
        },
        {
          "internalType": "address",
          "name": "owner",
          "type": "address"
        },
        {
          "internalType": "uint256",
          "name": "duration",
          "type": "uint256"
        },
        {
          "internalType": "bytes32",
          "name": "secret",
          "type": "bytes32"
        },
        {
          "internalType": "address",
          "name": "resolver",
          "type": "address"
        },
        {
          "internalType": "address",
          "name": "addr",
          "type": "address"
        },
        {
          "internalType": "bool",
          "name": "isFeeInDWEBToken",
          "type": "bool"
        },
        {
          "internalType": "uint256",
          "name": "fee",
          "type": "uint256"
        }
      ],
      "name": "registerWithConfig",
      "outputs": [],
      "stateMutability": "payable",
      "type": "function"
    },
    {
      "inputs": [
        {
          "internalType": "string",
          "name": "name",
          "type": "string"
        },
        {
          "internalType": "uint256",
          "name": "duration",
          "type": "uint256"
        },
        {
          "internalType": "bool",
          "name": "isFeeInDWEBToken",
          "type": "bool"
        }
      ],
      "name": "renew",
      "outputs": [],
      "stateMutability": "payable",
      "type": "function"
    },
    {
      "inputs": [],
      "name": "renounceOwnership",
      "outputs": [],
      "stateMutability": "nonpayable",
      "type": "function"
    },
    {
      "inputs": [
        {
          "internalType": "string",
          "name": "name",
          "type": "string"
        },
        {
          "internalType": "uint256",
          "name": "duration",
          "type": "uint256"
        },
        {
          "internalType": "bool",
          "name": "isFeeInDWEBToken",
          "type": "bool"
        }
      ],
      "name": "rentPrice",
      "outputs": [
        {
          "internalType": "uint256",
          "name": "",
          "type": "uint256"
        }
      ],
      "stateMutability": "view",
      "type": "function"
    },
    {
      "inputs": [
        {
          "internalType": "address",
          "name": "_approver",
          "type": "address"
        }
      ],
      "name": "setApproverAddress",
      "outputs": [],
      "stateMutability": "nonpayable",
      "type": "function"
    },
    {
      "inputs": [
        {
          "internalType": "uint256",
          "name": "_minCommitmentAge",
          "type": "uint256"
        },
        {
          "internalType": "uint256",
          "name": "_maxCommitmentAge",
          "type": "uint256"
        }
      ],
      "name": "setCommitmentAges",
      "outputs": [],
      "stateMutability": "nonpayable",
      "type": "function"
    },
    {
      "inputs": [
        {
          "internalType": "address payable",
          "name": "wallet",
          "type": "address"
        }
      ],
      "name": "setCompanyWallet",
      "outputs": [],
      "stateMutability": "nonpayable",
      "type": "function"
    },
    {
      "inputs": [
        {
          "internalType": "address",
          "name": "_dwebDistributorAddress",
          "type": "address"
        }
      ],
      "name": "setDecentraWebDistributor",
      "outputs": [],
      "stateMutability": "nonpayable",
      "type": "function"
    },
    {
      "inputs": [
        {
          "internalType": "contract PriceOracle",
          "name": "_prices",
          "type": "address"
        }
      ],
      "name": "setPriceOracle",
      "outputs": [],
      "stateMutability": "nonpayable",
      "type": "function"
    },
    {
      "inputs": [
        {
          "internalType": "bytes4",
          "name": "interfaceID",
          "type": "bytes4"
        }
      ],
      "name": "supportsInterface",
      "outputs": [
        {
          "internalType": "bool",
          "name": "",
          "type": "bool"
        }
      ],
      "stateMutability": "pure",
      "type": "function"
    },
    {
      "inputs": [
        {
          "internalType": "address",
          "name": "newOwner",
          "type": "address"
        }
      ],
      "name": "transferOwnership",
      "outputs": [],
      "stateMutability": "nonpayable",
      "type": "function"
    },
    {
      "inputs": [
        {
          "internalType": "string",
          "name": "name",
          "type": "string"
        }
      ],
      "name": "valid",
      "outputs": [
        {
          "internalType": "bool",
          "name": "",
          "type": "bool"
        }
      ],
      "stateMutability": "pure",
      "type": "function"
    },
    {
      "inputs": [],
      "name": "withdraw",
      "outputs": [],
      "stateMutability": "nonpayable",
      "type": "function"
    }
  ],
  "transactionHash": "0x7cf302358696c021004c3470106f1770b666a296f32bbb6c9093d862ba06296e",
  "args": [
    "0x1ACD83B632A6A38F5C24963384078ffF1c34C847",
    "0x0390a8FBA052Be87596aB8DA538B245e1Ed63Bb8",
    "0x93CdDf66710396ADf73Bf3B432cBE93f48ed7E67",
    "0x4CeBBdbBdFe8A1BB3F62A75B5fe9ebaE5D105f8F",
    "0x4CeBBdbBdFe8A1BB3F62A75B5fe9ebaE5D105f8F",
    5,
    604800
  ],
  "solcInputHash": "664df0f7a11c1a5e4ee6cfacc2361c0b",
  "bytecode": "0x60806040523480156200001157600080fd5b5060405162003f4538038062003f45833981810160405281019062000037919062000322565b620000576200004b620001cc60201b60201c565b620001d460201b60201c565b8181116200006457600080fd5b86600160006101000a81548173ffffffffffffffffffffffffffffffffffffffff021916908373ffffffffffffffffffffffffffffffffffffffff16021790555085600260006101000a81548173ffffffffffffffffffffffffffffffffffffffff021916908373ffffffffffffffffffffffffffffffffffffffff16021790555084600760006101000a81548173ffffffffffffffffffffffffffffffffffffffff021916908373ffffffffffffffffffffffffffffffffffffffff16021790555083600960006101000a81548173ffffffffffffffffffffffffffffffffffffffff021916908373ffffffffffffffffffffffffffffffffffffffff16021790555082600a60006101000a81548173ffffffffffffffffffffffffffffffffffffffff021916908373ffffffffffffffffffffffffffffffffffffffff1602179055508160038190555080600481905550600560088190555050505050505050620004f9565b600033905090565b60008060009054906101000a900473ffffffffffffffffffffffffffffffffffffffff169050816000806101000a81548173ffffffffffffffffffffffffffffffffffffffff021916908373ffffffffffffffffffffffffffffffffffffffff1602179055508173ffffffffffffffffffffffffffffffffffffffff168173ffffffffffffffffffffffffffffffffffffffff167f8be0079c531659141344cd1fd0a4f28419497f9722a3daafe3b4186f6b6457e060405160405180910390a35050565b600081519050620002a9816200045d565b92915050565b600081519050620002c08162000477565b92915050565b600081519050620002d78162000491565b92915050565b600081519050620002ee81620004ab565b92915050565b6000815190506200030581620004c5565b92915050565b6000815190506200031c81620004df565b92915050565b600080600080600080600060e0888a0312156200033e57600080fd5b60006200034e8a828b01620002f4565b9750506020620003618a828b01620002dd565b9650506040620003748a828b01620002c6565b9550506060620003878a828b0162000298565b94505060806200039a8a828b01620002af565b93505060a0620003ad8a828b016200030b565b92505060c0620003c08a828b016200030b565b91505092959891949750929550565b6000620003dc8262000433565b9050919050565b6000620003f08262000433565b9050919050565b60006200040482620003cf565b9050919050565b60006200041882620003cf565b9050919050565b60006200042c82620003cf565b9050919050565b600073ffffffffffffffffffffffffffffffffffffffff82169050919050565b6000819050919050565b6200046881620003cf565b81146200047457600080fd5b50565b6200048281620003e3565b81146200048e57600080fd5b50565b6200049c81620003f7565b8114620004a857600080fd5b50565b620004b6816200040b565b8114620004c257600080fd5b50565b620004d0816200041f565b8114620004dc57600080fd5b50565b620004ea8162000453565b8114620004f657600080fd5b50565b613a3c80620005096000396000f3fe60806040526004361061014b5760003560e01c8063839df945116100b6578063aeb8ce9b1161006f578063aeb8ce9b14610453578063c7f9968214610490578063ce1e09c0146104b9578063cf8fc3b1146104e4578063f2fde38b1461050d578063f49826be146105365761014b565b8063839df9451461033c5780638a95b09f146103795780638d839ffe146103a45780638da5cb5b146103cf57806391fb1aaa146103fa5780639791c097146104165761014b565b80634be2b2ec116101085780634be2b2ec1461024f578063530e784f1461026b57806359192b89146102945780636cfc51e2146102bf578063715018a6146102fc5780637e324479146103135761014b565b806301ffc9a7146101505780630cff2adf1461018d57806328831187146101b65780633ccfd60b146101df5780633d86c52f146101f6578063400713ba14610233575b600080fd5b34801561015c57600080fd5b5061017760048036038101906101729190612711565b610573565b6040516101849190612f6c565b60405180910390f35b34801561019957600080fd5b506101b460048036038101906101af91906126ae565b610779565b005b3480156101c257600080fd5b506101dd60048036038101906101d8919061260a565b6107c3565b005b3480156101eb57600080fd5b506101f4610936565b005b34801561020257600080fd5b5061021d6004803603810190610218919061291e565b6109fb565b60405161022a9190612f87565b60405180910390f35b61024d60048036038101906102489190612763565b610b1e565b005b6102696004803603810190610264919061280a565b610b7c565b005b34801561027757600080fd5b50610292600480360381019061028d919061273a565b610e1d565b005b3480156102a057600080fd5b506102a9610f42565b6040516102b691906131fc565b60405180910390f35b3480156102cb57600080fd5b506102e660048036038101906102e19190612a77565b610f4a565b6040516102f391906131fc565b60405180910390f35b34801561030857600080fd5b506103116111b0565b005b34801561031f57600080fd5b5061033a60048036038101906103359190612b07565b611238565b005b34801561034857600080fd5b50610363600480360381019061035e919061265c565b6112c6565b60405161037091906131fc565b60405180910390f35b34801561038557600080fd5b5061038e6112de565b60405161039b91906131fc565b60405180910390f35b3480156103b057600080fd5b506103b96112e6565b6040516103c691906131fc565b60405180910390f35b3480156103db57600080fd5b506103e46112ec565b6040516103f19190612f1a565b60405180910390f35b610414600480360381019061040f91906129ad565b611315565b005b34801561042257600080fd5b5061043d60048036038101906104389190612876565b6117e5565b60405161044a9190612f6c565b60405180910390f35b34801561045f57600080fd5b5061047a60048036038101906104759190612876565b6117fb565b6040516104879190612f6c565b60405180910390f35b34801561049c57600080fd5b506104b760048036038101906104b291906125e1565b61199c565b005b3480156104c557600080fd5b506104ce611b91565b6040516104db91906131fc565b60405180910390f35b3480156104f057600080fd5b5061050b600480360381019061050691906125e1565b611b97565b005b34801561051957600080fd5b50610534600480360381019061052f91906125e1565b611c57565b005b34801561054257600080fd5b5061055d600480360381019061055891906128b7565b611d4f565b60405161056a9190612f87565b60405180910390f35b60007f01ffc9a7a5cef8baa21ed3c5c0d7e23accb804b619e9333b597f47a0d84076e27bffffffffffffffffffffffffffffffffffffffffffffffffffffffff1916827bffffffffffffffffffffffffffffffffffffffffffffffffffffffff191614806106e857507facf1a8418b97267ffdb4c11281360744af0ddfe62846b256a04a02acee3a53c37f85f6d1554d9d3ed5c2776e29804063f395dfd65a8dc71f4d1cb6f073d7ee75a37ff14fcbc8f6996b31406143e2613e60bde3c1118cfe166c0aa27ba40ef1033df57ff49826be766d3cc8dc7e4aab3f18eb3d339eb3bce85a7b9144119bbe997b2cc37faeb8ce9b70d5d3f3fba501c34cd61a54703dbe3cfb25bd75d3574635f9ea76837f83e7f6ff8df5fd22801ca995afba5d2bc5cac5264a339adb4a410c5da6c4332418181818187bffffffffffffffffffffffffffffffffffffffffffffffffffffffff1916827bffffffffffffffffffffffffffffffffffffffffffffffffffffffff1916145b8061077257507f3d86c52f15403f1a062ec90b8fe0792e3be0a9cb236cd8ee4ec4b45821bd2faa7ff7a169630bfe39d181bbd2e0b758ee9f1a6ddc0eca0932c13225406d06d41653187bffffffffffffffffffffffffffffffffffffffffffffffffffffffff1916827bffffffffffffffffffffffffffffffffffffffffffffffffffffffff1916145b9050919050565b42600454600560008781526020019081526020016000205461079b91906132ff565b106107a557600080fd5b42600560008681526020019081526020016000208190555050505050565b6107cb611d68565b73ffffffffffffffffffffffffffffffffffffffff166107e96112ec565b73ffffffffffffffffffffffffffffffffffffffff161461083f576040517f08c379a00000000000000000000000000000000000000000000000000000000081526004016108369061319c565b60405180910390fd5b600073ffffffffffffffffffffffffffffffffffffffff168173ffffffffffffffffffffffffffffffffffffffff1614156108af576040517f08c379a00000000000000000000000000000000000000000000000000000000081526004016108a6906130dc565b60405180910390fd5b80600a60006101000a81548173ffffffffffffffffffffffffffffffffffffffff021916908373ffffffffffffffffffffffffffffffffffffffff1602179055508073ffffffffffffffffffffffffffffffffffffffff167f7e76721cea8dbabf87d986684549c169dcbd01bfefb5082b3ecc54bbe323e77e60405160405180910390a250565b61093e611d68565b73ffffffffffffffffffffffffffffffffffffffff1661095c6112ec565b73ffffffffffffffffffffffffffffffffffffffff16146109b2576040517f08c379a00000000000000000000000000000000000000000000000000000000081526004016109a99061319c565b60405180910390fd5b3373ffffffffffffffffffffffffffffffffffffffff166108fc479081150290604051600060405180830381858888f193505050501580156109f8573d6000803e3d6000fd5b50565b60008086805190602001209050600073ffffffffffffffffffffffffffffffffffffffff168473ffffffffffffffffffffffffffffffffffffffff16148015610a705750600073ffffffffffffffffffffffffffffffffffffffff168373ffffffffffffffffffffffffffffffffffffffff16145b15610aa857808686604051602001610a8a93929190612e6c565b60405160208183030381529060405280519060200120915050610b15565b600073ffffffffffffffffffffffffffffffffffffffff168473ffffffffffffffffffffffffffffffffffffffff161415610ae257600080fd5b8086858588604051602001610afb959493929190612e0d565b604051602081830303815290604052805190602001209150505b95945050505050565b610b7387878080601f016020809104026020016040519081016040528093929190818152602001838380828437600081840152601f19601f820116905080830192505050505050508686866000808888611315565b50505050505050565b6000610bcd85858080601f016020809104026020016040519081016040528093929190818152602001838380828437600081840152601f19601f820116905080830192505050505050508484610f4a565b905080341015610bdc57600080fd5b60008585604051610bee929190612ed5565b604051809103902090506000600160009054906101000a900473ffffffffffffffffffffffffffffffffffffffff1673ffffffffffffffffffffffffffffffffffffffff1663faff50a86040518163ffffffff1660e01b815260040160206040518083038186803b158015610c6257600080fd5b505afa158015610c76573d6000803e3d6000fd5b505050506040513d601f19601f82011682018060405250810190610c9a9190612685565b82604051602001610cac929190612ea9565b6040516020818303038152906040528051906020012090506000600160009054906101000a900473ffffffffffffffffffffffffffffffffffffffff1673ffffffffffffffffffffffffffffffffffffffff1663c475abff8360001c886040518363ffffffff1660e01b8152600401610d2692919061324e565b602060405180830381600087803b158015610d4057600080fd5b505af1158015610d54573d6000803e3d6000fd5b505050506040513d601f19601f82011682018060405250810190610d789190612ade565b905083341115610dd5573373ffffffffffffffffffffffffffffffffffffffff166108fc8534610da891906133e0565b9081150290604051600060405180830381858888f19350505050158015610dd3573d6000803e3d6000fd5b505b827f3da24c024582931cfaf8267d8ed24d13a82a8068d5bd337d30ec45cea4e506ae89898785604051610e0b9493929190612fa2565b60405180910390a25050505050505050565b610e25611d68565b73ffffffffffffffffffffffffffffffffffffffff16610e436112ec565b73ffffffffffffffffffffffffffffffffffffffff1614610e99576040517f08c379a0000000000000000000000000000000000000000000000000000000008152600401610e909061319c565b60405180910390fd5b80600260006101000a81548173ffffffffffffffffffffffffffffffffffffffff021916908373ffffffffffffffffffffffffffffffffffffffff160217905550600260009054906101000a900473ffffffffffffffffffffffffffffffffffffffff1673ffffffffffffffffffffffffffffffffffffffff167ff261845a790fe29bbd6631e2ca4a5bdc83e6eed7c3271d9590d97287e00e912360405160405180910390a250565b6309679a3681565b600080848051906020012090506000600160009054906101000a900473ffffffffffffffffffffffffffffffffffffffff1673ffffffffffffffffffffffffffffffffffffffff1663faff50a86040518163ffffffff1660e01b815260040160206040518083038186803b158015610fc157600080fd5b505afa158015610fd5573d6000803e3d6000fd5b505050506040513d601f19601f82011682018060405250810190610ff99190612685565b8260405160200161100b929190612ea9565b604051602081830303815290604052805190602001209050600260009054906101000a900473ffffffffffffffffffffffffffffffffffffffff1673ffffffffffffffffffffffffffffffffffffffff1663b5d93ba987600160009054906101000a900473ffffffffffffffffffffffffffffffffffffffff1673ffffffffffffffffffffffffffffffffffffffff1663d6e4fa868560001c6040518263ffffffff1660e01b81526004016110c091906131fc565b60206040518083038186803b1580156110d857600080fd5b505afa1580156110ec573d6000803e3d6000fd5b505050506040513d601f19601f820116820180604052508101906111109190612ade565b8888600760009054906101000a900473ffffffffffffffffffffffffffffffffffffffff166040518663ffffffff1660e01b8152600401611155959493929190613042565b60206040518083038186803b15801561116d57600080fd5b505afa158015611181573d6000803e3d6000fd5b505050506040513d601f19601f820116820180604052508101906111a59190612ade565b925050509392505050565b6111b8611d68565b73ffffffffffffffffffffffffffffffffffffffff166111d66112ec565b73ffffffffffffffffffffffffffffffffffffffff161461122c576040517f08c379a00000000000000000000000000000000000000000000000000000000081526004016112239061319c565b60405180910390fd5b6112366000611d70565b565b611240611d68565b73ffffffffffffffffffffffffffffffffffffffff1661125e6112ec565b73ffffffffffffffffffffffffffffffffffffffff16146112b4576040517f08c379a00000000000000000000000000000000000000000000000000000000081526004016112ab9061319c565b60405180910390fd5b81600381905550806004819055505050565b60056020528060005260406000206000915090505481565b6301e1853e81565b60035481565b60008060009054906101000a900473ffffffffffffffffffffffffffffffffffffffff16905090565b600061132489898888886109fb565b9050611331898883611e34565b50600061133f8a8986610f4a565b905080341015611384576040517f08c379a000000000000000000000000000000000000000000000000000000000815260040161137b9061309c565b60405180910390fd5b60008a8051906020012090506000600160009054906101000a900473ffffffffffffffffffffffffffffffffffffffff1673ffffffffffffffffffffffffffffffffffffffff1663faff50a86040518163ffffffff1660e01b815260040160206040518083038186803b1580156113fa57600080fd5b505afa15801561140e573d6000803e3d6000fd5b505050506040513d601f19601f820116820180604052508101906114329190612685565b82604051602001611444929190612ea9565b60405160208183030381529060405280519060200120905060008073ffffffffffffffffffffffffffffffffffffffff168873ffffffffffffffffffffffffffffffffffffffff161461149657600080fd5b600160009054906101000a900473ffffffffffffffffffffffffffffffffffffffff1673ffffffffffffffffffffffffffffffffffffffff1663fca247ac8360001c8e8e6040518463ffffffff1660e01b81526004016114f893929190613217565b602060405180830381600087803b15801561151257600080fd5b505af1158015611526573d6000803e3d6000fd5b505050506040513d601f19601f8201168201806040525081019061154a9190612ade565b90508615611658576000848710156115e15761156f8786611ee190919063ffffffff16565b905060006115998661158b606485611f0a90919063ffffffff16565b611f4f90919063ffffffff16565b905060085481106115df576040517f08c379a00000000000000000000000000000000000000000000000000000000081526004016115d69061317c565b60405180910390fd5b505b61165233600960009054906101000a900473ffffffffffffffffffffffffffffffffffffffff1687600760009054906101000a900473ffffffffffffffffffffffffffffffffffffffff1673ffffffffffffffffffffffffffffffffffffffff16611f77909392919063ffffffff16565b50611783565b6000600a60009054906101000a900473ffffffffffffffffffffffffffffffffffffffff1673ffffffffffffffffffffffffffffffffffffffff16856040516116a090612f05565b60006040518083038185875af1925050503d80600081146116dd576040519150601f19603f3d011682016040523d82523d6000602084013e6116e2565b606091505b5050905080611726576040517f08c379a000000000000000000000000000000000000000000000000000000000815260040161171d906130fc565b60405180910390fd5b84341115611781573373ffffffffffffffffffffffffffffffffffffffff166108fc863461175491906133e0565b9081150290604051600060405180830381858888f1935050505015801561177f573d6000803e3d6000fd5b505b505b8b73ffffffffffffffffffffffffffffffffffffffff16837fca6abbe9d7f11422cb6ca7629fbf6fe9efb1c621f71ce8f02b9f2a230097404f8f87856040516117ce93929190613004565b60405180910390a350505050505050505050505050565b600060036117f283612000565b10159050919050565b600080828051906020012090506000600160009054906101000a900473ffffffffffffffffffffffffffffffffffffffff1673ffffffffffffffffffffffffffffffffffffffff1663faff50a86040518163ffffffff1660e01b815260040160206040518083038186803b15801561187257600080fd5b505afa158015611886573d6000803e3d6000fd5b505050506040513d601f19601f820116820180604052508101906118aa9190612685565b826040516020016118bc929190612ea9565b6040516020818303038152906040528051906020012090506118dd846117e5565b80156119935750600160009054906101000a900473ffffffffffffffffffffffffffffffffffffffff1673ffffffffffffffffffffffffffffffffffffffff166396e494e88260001c6040518263ffffffff1660e01b815260040161194291906131fc565b60206040518083038186803b15801561195a57600080fd5b505afa15801561196e573d6000803e3d6000fd5b505050506040513d601f19601f820116820180604052508101906119929190612633565b5b92505050919050565b6119a4611d68565b73ffffffffffffffffffffffffffffffffffffffff166119c26112ec565b73ffffffffffffffffffffffffffffffffffffffff1614611a18576040517f08c379a0000000000000000000000000000000000000000000000000000000008152600401611a0f9061319c565b60405180910390fd5b600960009054906101000a900473ffffffffffffffffffffffffffffffffffffffff16611a5a8173ffffffffffffffffffffffffffffffffffffffff166121db565b611a99576040517f08c379a0000000000000000000000000000000000000000000000000000000008152600401611a909061315c565b60405180910390fd5b600073ffffffffffffffffffffffffffffffffffffffff168273ffffffffffffffffffffffffffffffffffffffff161415611b09576040517f08c379a0000000000000000000000000000000000000000000000000000000008152600401611b009061313c565b60405180910390fd5b81600960006101000a81548173ffffffffffffffffffffffffffffffffffffffff021916908373ffffffffffffffffffffffffffffffffffffffff1602179055508173ffffffffffffffffffffffffffffffffffffffff167fe84b1c3567d939c721221cf11dbfa72d4fce11c22142b08ba83babfd72b29abc60405160405180910390a25050565b60045481565b611b9f611d68565b73ffffffffffffffffffffffffffffffffffffffff16611bbd6112ec565b73ffffffffffffffffffffffffffffffffffffffff1614611c13576040517f08c379a0000000000000000000000000000000000000000000000000000000008152600401611c0a9061319c565b60405180910390fd5b80600660006101000a81548173ffffffffffffffffffffffffffffffffffffffff021916908373ffffffffffffffffffffffffffffffffffffffff16021790555050565b611c5f611d68565b73ffffffffffffffffffffffffffffffffffffffff16611c7d6112ec565b73ffffffffffffffffffffffffffffffffffffffff1614611cd3576040517f08c379a0000000000000000000000000000000000000000000000000000000008152600401611cca9061319c565b60405180910390fd5b600073ffffffffffffffffffffffffffffffffffffffff168173ffffffffffffffffffffffffffffffffffffffff161415611d43576040517f08c379a0000000000000000000000000000000000000000000000000000000008152600401611d3a906130bc565b60405180910390fd5b611d4c81611d70565b50565b6000611d5f8484846000806109fb565b90509392505050565b600033905090565b60008060009054906101000a900473ffffffffffffffffffffffffffffffffffffffff169050816000806101000a81548173ffffffffffffffffffffffffffffffffffffffff021916908373ffffffffffffffffffffffffffffffffffffffff1602179055508173ffffffffffffffffffffffffffffffffffffffff168173ffffffffffffffffffffffffffffffffffffffff167f8be0079c531659141344cd1fd0a4f28419497f9722a3daafe3b4186f6b6457e060405160405180910390a35050565b6000426003546005600085815260200190815260200160002054611e5891906132ff565b1115611e6357600080fd5b426004546005600085815260200190815260200160002054611e8591906132ff565b11611e8f57600080fd5b611e98846117fb565b611ea157600080fd5b60056000838152602001908152602001600020600090556301e1853e831015611ec957600080fd5b6309679a36831115611eda57600080fd5b9392505050565b600082821115611ef057600080fd5b60008284611efe91906133e0565b90508091505092915050565b600080831415611f1d5760009050611f49565b60008284611f2b9190613386565b9050828482611f3a9190613355565b14611f4457600080fd5b809150505b92915050565b6000808211611f5d57600080fd5b60008284611f6b9190613355565b90508091505092915050565b611ffa846323b872dd60e01b858585604051602401611f9893929190612f35565b604051602081830303815290604052907bffffffffffffffffffffffffffffffffffffffffffffffffffffffff19166020820180517bffffffffffffffffffffffffffffffffffffffffffffffffffffffff83818316178352505050506121ee565b50505050565b60008060008084519050600092505b808210156121d0576000858381518110612052577f4e487b7100000000000000000000000000000000000000000000000000000000600052603260045260246000fd5b602001015160f81c60f81b9050608060f81b817effffffffffffffffffffffffffffffffffffffffffffffffffffffffffffff191610156120a15760018361209a91906132ff565b92506121bc565b60e060f81b817effffffffffffffffffffffffffffffffffffffffffffffffffffffffffffff191610156120e3576002836120dc91906132ff565b92506121bb565b60f060f81b817effffffffffffffffffffffffffffffffffffffffffffffffffffffffffffff191610156121255760038361211e91906132ff565b92506121ba565b60f8801b817effffffffffffffffffffffffffffffffffffffffffffffffffffffffffffff191610156121665760048361215f91906132ff565b92506121b9565b60fc60f81b817effffffffffffffffffffffffffffffffffffffffffffffffffffffffffffff191610156121a8576005836121a191906132ff565b92506121b8565b6006836121b591906132ff565b92505b5b5b5b5b5082806121c890613536565b93505061200f565b829350505050919050565b600080823b905060008111915050919050565b6000612250826040518060400160405280602081526020017f5361666545524332303a206c6f772d6c6576656c2063616c6c206661696c65648152508573ffffffffffffffffffffffffffffffffffffffff166122b59092919063ffffffff16565b90506000815111156122b057808060200190518101906122709190612633565b6122af576040517f08c379a00000000000000000000000000000000000000000000000000000000081526004016122a6906131dc565b60405180910390fd5b5b505050565b60606122c484846000856122cd565b90509392505050565b606082471015612312576040517f08c379a00000000000000000000000000000000000000000000000000000000081526004016123099061311c565b60405180910390fd5b61231b856121db565b61235a576040517f08c379a0000000000000000000000000000000000000000000000000000000008152600401612351906131bc565b60405180910390fd5b6000808673ffffffffffffffffffffffffffffffffffffffff1685876040516123839190612eee565b60006040518083038185875af1925050503d80600081146123c0576040519150601f19603f3d011682016040523d82523d6000602084013e6123c5565b606091505b50915091506123d58282866123e1565b92505050949350505050565b606083156123f157829050612441565b6000835111156124045782518084602001fd5b816040517f08c379a00000000000000000000000000000000000000000000000000000000081526004016124389190612fe2565b60405180910390fd5b9392505050565b600061245b6124568461329c565b613277565b90508281526020810184848401111561247357600080fd5b61247e8482856134c3565b509392505050565b6000813590506124958161394e565b92915050565b6000813590506124aa81613965565b92915050565b6000813590506124bf8161397c565b92915050565b6000815190506124d48161397c565b92915050565b6000813590506124e981613993565b92915050565b6000815190506124fe81613993565b92915050565b600081359050612513816139aa565b92915050565b600081359050612528816139c1565b92915050565b60008083601f84011261254057600080fd5b8235905067ffffffffffffffff81111561255957600080fd5b60208301915083600182028301111561257157600080fd5b9250929050565b600082601f83011261258957600080fd5b8135612599848260208601612448565b91505092915050565b6000813590506125b1816139d8565b92915050565b6000815190506125c6816139d8565b92915050565b6000813590506125db816139ef565b92915050565b6000602082840312156125f357600080fd5b600061260184828501612486565b91505092915050565b60006020828403121561261c57600080fd5b600061262a8482850161249b565b91505092915050565b60006020828403121561264557600080fd5b6000612653848285016124c5565b91505092915050565b60006020828403121561266e57600080fd5b600061267c848285016124da565b91505092915050565b60006020828403121561269757600080fd5b60006126a5848285016124ef565b91505092915050565b600080600080608085870312156126c457600080fd5b60006126d2878288016124da565b94505060206126e3878288016125cc565b93505060406126f4878288016124da565b9250506060612705878288016124da565b91505092959194509250565b60006020828403121561272357600080fd5b600061273184828501612504565b91505092915050565b60006020828403121561274c57600080fd5b600061275a84828501612519565b91505092915050565b600080600080600080600060c0888a03121561277e57600080fd5b600088013567ffffffffffffffff81111561279857600080fd5b6127a48a828b0161252e565b975097505060206127b78a828b01612486565b95505060406127c88a828b016125a2565b94505060606127d98a828b016124da565b93505060806127ea8a828b016124b0565b92505060a06127fb8a828b016125a2565b91505092959891949750929550565b6000806000806060858703121561282057600080fd5b600085013567ffffffffffffffff81111561283a57600080fd5b6128468782880161252e565b94509450506020612859878288016125a2565b925050604061286a878288016124b0565b91505092959194509250565b60006020828403121561288857600080fd5b600082013567ffffffffffffffff8111156128a257600080fd5b6128ae84828501612578565b91505092915050565b6000806000606084860312156128cc57600080fd5b600084013567ffffffffffffffff8111156128e657600080fd5b6128f286828701612578565b935050602061290386828701612486565b9250506040612914868287016124da565b9150509250925092565b600080600080600060a0868803121561293657600080fd5b600086013567ffffffffffffffff81111561295057600080fd5b61295c88828901612578565b955050602061296d88828901612486565b945050604061297e888289016124da565b935050606061298f88828901612486565b92505060806129a088828901612486565b9150509295509295909350565b600080600080600080600080610100898b0312156129ca57600080fd5b600089013567ffffffffffffffff8111156129e457600080fd5b6129f08b828c01612578565b9850506020612a018b828c01612486565b9750506040612a128b828c016125a2565b9650506060612a238b828c016124da565b9550506080612a348b828c01612486565b94505060a0612a458b828c01612486565b93505060c0612a568b828c016124b0565b92505060e0612a678b828c016125a2565b9150509295985092959890939650565b600080600060608486031215612a8c57600080fd5b600084013567ffffffffffffffff811115612aa657600080fd5b612ab286828701612578565b9350506020612ac3868287016125a2565b9250506040612ad4868287016124b0565b9150509250925092565b600060208284031215612af057600080fd5b6000612afe848285016125b7565b91505092915050565b60008060408385031215612b1a57600080fd5b6000612b28858286016125a2565b9250506020612b39858286016125a2565b9150509250929050565b612b4c81613414565b82525050565b612b63612b5e82613414565b61357f565b82525050565b612b7281613438565b82525050565b612b8181613444565b82525050565b612b98612b9382613444565b613591565b82525050565b6000612baa83856132e3565b9350612bb78385846134c3565b82840190509392505050565b6000612bce826132cd565b612bd881856132e3565b9350612be88185602086016134d2565b80840191505092915050565b6000612c0083856132ee565b9350612c0d8385846134c3565b612c168361363a565b840190509392505050565b6000612c2c826132d8565b612c3681856132ee565b9350612c468185602086016134d2565b612c4f8161363a565b840191505092915050565b6000612c676020836132ee565b9150612c7282613658565b602082019050919050565b6000612c8a6026836132ee565b9150612c9582613681565b604082019050919050565b6000612cad6027836132ee565b9150612cb8826136d0565b604082019050919050565b6000612cd06023836132ee565b9150612cdb8261371f565b604082019050919050565b6000612cf36026836132ee565b9150612cfe8261376e565b604082019050919050565b6000612d166037836132ee565b9150612d21826137bd565b604082019050919050565b6000612d396034836132ee565b9150612d448261380c565b604082019050919050565b6000612d5c6035836132ee565b9150612d678261385b565b604082019050919050565b6000612d7f6020836132ee565b9150612d8a826138aa565b602082019050919050565b6000612da26000836132e3565b9150612dad826138d3565b600082019050919050565b6000612dc5601d836132ee565b9150612dd0826138d6565b602082019050919050565b6000612de8602a836132ee565b9150612df3826138ff565b604082019050919050565b612e07816134ac565b82525050565b6000612e198288612b87565b602082019150612e298287612b52565b601482019150612e398286612b52565b601482019150612e498285612b52565b601482019150612e598284612b87565b6020820191508190509695505050505050565b6000612e788286612b87565b602082019150612e888285612b52565b601482019150612e988284612b87565b602082019150819050949350505050565b6000612eb58285612b87565b602082019150612ec58284612b87565b6020820191508190509392505050565b6000612ee2828486612b9e565b91508190509392505050565b6000612efa8284612bc3565b915081905092915050565b6000612f1082612d95565b9150819050919050565b6000602082019050612f2f6000830184612b43565b92915050565b6000606082019050612f4a6000830186612b43565b612f576020830185612b43565b612f646040830184612dfe565b949350505050565b6000602082019050612f816000830184612b69565b92915050565b6000602082019050612f9c6000830184612b78565b92915050565b60006060820190508181036000830152612fbd818688612bf4565b9050612fcc6020830185612dfe565b612fd96040830184612dfe565b95945050505050565b60006020820190508181036000830152612ffc8184612c21565b905092915050565b6000606082019050818103600083015261301e8186612c21565b905061302d6020830185612dfe565b61303a6040830184612dfe565b949350505050565b600060a082019050818103600083015261305c8188612c21565b905061306b6020830187612dfe565b6130786040830186612dfe565b6130856060830185612b69565b6130926080830184612b43565b9695505050505050565b600060208201905081810360008301526130b581612c5a565b9050919050565b600060208201905081810360008301526130d581612c7d565b9050919050565b600060208201905081810360008301526130f581612ca0565b9050919050565b6000602082019050818103600083015261311581612cc3565b9050919050565b6000602082019050818103600083015261313581612ce6565b9050919050565b6000602082019050818103600083015261315581612d09565b9050919050565b6000602082019050818103600083015261317581612d2c565b9050919050565b6000602082019050818103600083015261319581612d4f565b9050919050565b600060208201905081810360008301526131b581612d72565b9050919050565b600060208201905081810360008301526131d581612db8565b9050919050565b600060208201905081810360008301526131f581612ddb565b9050919050565b60006020820190506132116000830184612dfe565b92915050565b600060608201905061322c6000830186612dfe565b6132396020830185612b43565b6132466040830184612dfe565b949350505050565b60006040820190506132636000830185612dfe565b6132706020830184612dfe565b9392505050565b6000613281613292565b905061328d8282613505565b919050565b6000604051905090565b600067ffffffffffffffff8211156132b7576132b661360b565b5b6132c08261363a565b9050602081019050919050565b600081519050919050565b600081519050919050565b600081905092915050565b600082825260208201905092915050565b600061330a826134ac565b9150613315836134ac565b9250827fffffffffffffffffffffffffffffffffffffffffffffffffffffffffffffffff0382111561334a576133496135ad565b5b828201905092915050565b6000613360826134ac565b915061336b836134ac565b92508261337b5761337a6135dc565b5b828204905092915050565b6000613391826134ac565b915061339c836134ac565b9250817fffffffffffffffffffffffffffffffffffffffffffffffffffffffffffffffff04831182151516156133d5576133d46135ad565b5b828202905092915050565b60006133eb826134ac565b91506133f6836134ac565b925082821015613409576134086135ad565b5b828203905092915050565b600061341f8261348c565b9050919050565b60006134318261348c565b9050919050565b60008115159050919050565b6000819050919050565b60007fffffffff0000000000000000000000000000000000000000000000000000000082169050919050565b600061348582613414565b9050919050565b600073ffffffffffffffffffffffffffffffffffffffff82169050919050565b6000819050919050565b600060ff82169050919050565b82818337600083830152505050565b60005b838110156134f05780820151818401526020810190506134d5565b838111156134ff576000848401525b50505050565b61350e8261363a565b810181811067ffffffffffffffff8211171561352d5761352c61360b565b5b80604052505050565b6000613541826134ac565b91507fffffffffffffffffffffffffffffffffffffffffffffffffffffffffffffffff821415613574576135736135ad565b5b600182019050919050565b600061358a8261359b565b9050919050565b6000819050919050565b60006135a68261364b565b9050919050565b7f4e487b7100000000000000000000000000000000000000000000000000000000600052601160045260246000fd5b7f4e487b7100000000000000000000000000000000000000000000000000000000600052601260045260246000fd5b7f4e487b7100000000000000000000000000000000000000000000000000000000600052604160045260246000fd5b6000601f19601f8301169050919050565b60008160601b9050919050565b7f5b56616c69646174696f6e5d20456e6f75676820455448206e6f742073656e74600082015250565b7f4f776e61626c653a206e6577206f776e657220697320746865207a65726f206160008201527f6464726573730000000000000000000000000000000000000000000000000000602082015250565b7f5b56616c69646174696f6e5d2077616c6c657420697320746865207a65726f2060008201527f6164647265737300000000000000000000000000000000000000000000000000602082015250565b7f5b56616c69646174696f6e5d205472616e73666572206f66206665652066616960008201527f6c65640000000000000000000000000000000000000000000000000000000000602082015250565b7f416464726573733a20696e73756666696369656e742062616c616e636520666f60008201527f722063616c6c0000000000000000000000000000000000000000000000000000602082015250565b7f5b56616c69646174696f6e5d20647765624469737472696275746f724164647260008201527f65737320697320746865207a65726f2061646472657373000000000000000000602082015250565b7f5b56616c69646174696f6e5d20546865206164647265737320646f6573206e6f60008201527f7420636f6e7461696e206120636f6e7472616374000000000000000000000000602082015250565b7f5b56616c69646174696f6e5d20466565202844574542292069732062656c6f7760008201527f206d696e696d756d207265717569726564206665650000000000000000000000602082015250565b7f4f776e61626c653a2063616c6c6572206973206e6f7420746865206f776e6572600082015250565b50565b7f416464726573733a2063616c6c20746f206e6f6e2d636f6e7472616374000000600082015250565b7f5361666545524332303a204552433230206f7065726174696f6e20646964206e60008201527f6f74207375636365656400000000000000000000000000000000000000000000602082015250565b61395781613414565b811461396257600080fd5b50565b61396e81613426565b811461397957600080fd5b50565b61398581613438565b811461399057600080fd5b50565b61399c81613444565b81146139a757600080fd5b50565b6139b38161344e565b81146139be57600080fd5b50565b6139ca8161347a565b81146139d557600080fd5b50565b6139e1816134ac565b81146139ec57600080fd5b50565b6139f8816134b6565b8114613a0357600080fd5b5056fea26469706673582212206d03336e2d1aff2bdff3be13b17e05293fb6648cc9af8ab3d0c9c52b3bac378364736f6c63430008040033",
  "devdoc": {
    "details": "A registrar controller for registering and renewing names at fixed cost.",
    "kind": "dev",
    "methods": {
      "owner()": {
        "details": "Returns the address of the current owner."
      },
      "renounceOwnership()": {
        "details": "Leaves the contract without owner. It will not be possible to call `onlyOwner` functions anymore. Can only be called by the current owner. NOTE: Renouncing ownership will leave the contract without an owner, thereby removing any functionality that is only available to the owner."
      },
      "transferOwnership(address)": {
        "details": "Transfers ownership of the contract to a new account (`newOwner`). Can only be called by the current owner."
      }
    },
    "version": 1
  },
  "userdoc": {
    "kind": "user",
    "methods": {},
    "version": 1
  },
  "storageLayout": {
    "storage": [
      {
        "astId": 7,
        "contract": "contracts/ethregistrar/RootRegistrarController.sol:RootRegistrarController",
        "label": "_owner",
        "offset": 0,
        "slot": "0",
        "type": "t_address"
      },
      {
        "astId": 922,
        "contract": "contracts/ethregistrar/RootRegistrarController.sol:RootRegistrarController",
        "label": "root",
        "offset": 0,
        "slot": "1",
        "type": "t_contract(Root)2809"
      },
      {
        "astId": 925,
        "contract": "contracts/ethregistrar/RootRegistrarController.sol:RootRegistrarController",
        "label": "prices",
        "offset": 0,
        "slot": "2",
        "type": "t_contract(PriceOracle)841"
      },
      {
        "astId": 927,
        "contract": "contracts/ethregistrar/RootRegistrarController.sol:RootRegistrarController",
        "label": "minCommitmentAge",
        "offset": 0,
        "slot": "3",
        "type": "t_uint256"
      },
      {
        "astId": 929,
        "contract": "contracts/ethregistrar/RootRegistrarController.sol:RootRegistrarController",
        "label": "maxCommitmentAge",
        "offset": 0,
        "slot": "4",
        "type": "t_uint256"
      },
      {
        "astId": 933,
        "contract": "contracts/ethregistrar/RootRegistrarController.sol:RootRegistrarController",
        "label": "commitments",
        "offset": 0,
        "slot": "5",
        "type": "t_mapping(t_bytes32,t_uint256)"
      },
      {
        "astId": 935,
        "contract": "contracts/ethregistrar/RootRegistrarController.sol:RootRegistrarController",
        "label": "approverAddress",
        "offset": 0,
        "slot": "6",
        "type": "t_address"
      },
      {
        "astId": 938,
        "contract": "contracts/ethregistrar/RootRegistrarController.sol:RootRegistrarController",
        "label": "dWebToken",
        "offset": 0,
        "slot": "7",
        "type": "t_contract(IERC20)181"
      },
      {
        "astId": 940,
        "contract": "contracts/ethregistrar/RootRegistrarController.sol:RootRegistrarController",
        "label": "allowedFeeSlippagePercentage",
        "offset": 0,
        "slot": "8",
        "type": "t_uint256"
      },
      {
        "astId": 942,
        "contract": "contracts/ethregistrar/RootRegistrarController.sol:RootRegistrarController",
        "label": "dwebDistributorAddress",
        "offset": 0,
        "slot": "9",
        "type": "t_address"
      },
      {
        "astId": 944,
        "contract": "contracts/ethregistrar/RootRegistrarController.sol:RootRegistrarController",
        "label": "companyWallet",
        "offset": 0,
        "slot": "10",
        "type": "t_address_payable"
      }
    ],
    "types": {
      "t_address": {
        "encoding": "inplace",
        "label": "address",
        "numberOfBytes": "20"
      },
      "t_address_payable": {
        "encoding": "inplace",
        "label": "address payable",
        "numberOfBytes": "20"
      },
      "t_bytes32": {
        "encoding": "inplace",
        "label": "bytes32",
        "numberOfBytes": "32"
      },
      "t_contract(IERC20)181": {
        "encoding": "inplace",
        "label": "contract IERC20",
        "numberOfBytes": "20"
      },
      "t_contract(PriceOracle)841": {
        "encoding": "inplace",
        "label": "contract PriceOracle",
        "numberOfBytes": "20"
      },
      "t_contract(Root)2809": {
        "encoding": "inplace",
        "label": "contract Root",
        "numberOfBytes": "20"
      },
      "t_mapping(t_bytes32,t_uint256)": {
        "encoding": "mapping",
        "key": "t_bytes32",
        "label": "mapping(bytes32 => uint256)",
        "numberOfBytes": "32",
        "value": "t_uint256"
      },
      "t_uint256": {
        "encoding": "inplace",
        "label": "uint256",
        "numberOfBytes": "32"
      }
    }
  }
}