{
  "address": "0x0390a8FBA052Be87596aB8DA538B245e1Ed63Bb8",
  "abi": [
    {
      "inputs": [
        {
          "internalType": "contract IPriceEstimator",
          "name": "_priceEstimator",
          "type": "address"
        },
        {
          "internalType": "address",
          "name": "_usdTokenAddress",
          "type": "address"
        },
        {
          "internalType": "uint256[]",
          "name": "_rentPrices",
          "type": "uint256[]"
        }
      ],
      "stateMutability": "nonpayable",
      "type": "constructor"
    },
    {
      "anonymous": false,
      "inputs": [
        {
          "indexed": true,
          "internalType": "address",
          "name": "previousOwner",
          "type": "address"
        },
        {
          "indexed": true,
          "internalType": "address",
          "name": "newOwner",
          "type": "address"
        }
      ],
      "name": "OwnershipTransferred",
      "type": "event"
    },
    {
      "anonymous": false,
      "inputs": [
        {
          "indexed": false,
          "internalType": "uint256[]",
          "name": "prices",
          "type": "uint256[]"
        }
      ],
      "name": "RentPriceChanged",
      "type": "event"
    },
    {
      "inputs": [],
      "name": "owner",
      "outputs": [
        {
          "internalType": "address",
          "name": "",
          "type": "address"
        }
      ],
      "stateMutability": "view",
      "type": "function"
    },
    {
      "inputs": [
        {
          "internalType": "string",
          "name": "name",
          "type": "string"
        },
        {
          "internalType": "uint256",
          "name": "expires",
          "type": "uint256"
        },
        {
          "internalType": "uint256",
          "name": "duration",
          "type": "uint256"
        }
      ],
      "name": "premium",
      "outputs": [
        {
          "internalType": "uint256",
          "name": "",
          "type": "uint256"
        }
      ],
      "stateMutability": "view",
      "type": "function"
    },
    {
      "inputs": [
        {
          "internalType": "string",
          "name": "name",
          "type": "string"
        },
        {
          "internalType": "uint256",
          "name": "expires",
          "type": "uint256"
        },
        {
          "internalType": "uint256",
          "name": "duration",
          "type": "uint256"
        },
        {
          "internalType": "bool",
          "name": "isFeeInDWEBToken",
          "type": "bool"
        },
        {
          "internalType": "address",
          "name": "dWebTokenAddress",
          "type": "address"
        }
      ],
      "name": "price",
      "outputs": [
        {
          "internalType": "uint256",
          "name": "",
          "type": "uint256"
        }
      ],
      "stateMutability": "view",
      "type": "function"
    },
    {
      "inputs": [],
      "name": "priceEstimator",
      "outputs": [
        {
          "internalType": "contract IPriceEstimator",
          "name": "",
          "type": "address"
        }
      ],
      "stateMutability": "view",
      "type": "function"
    },
    {
      "inputs": [],
      "name": "renounceOwnership",
      "outputs": [],
      "stateMutability": "nonpayable",
      "type": "function"
    },
    {
      "inputs": [
        {
          "internalType": "uint256",
          "name": "",
          "type": "uint256"
        }
      ],
      "name": "rentPrices",
      "outputs": [
        {
          "internalType": "uint256",
          "name": "",
          "type": "uint256"
        }
      ],
      "stateMutability": "view",
      "type": "function"
    },
    {
      "inputs": [
        {
          "internalType": "contract IPriceEstimator",
          "name": "_priceEstimator",
          "type": "address"
        }
      ],
      "name": "setPriceEstimator",
      "outputs": [],
      "stateMutability": "nonpayable",
      "type": "function"
    },
    {
      "inputs": [
        {
          "internalType": "uint256[]",
          "name": "_rentPrices",
          "type": "uint256[]"
        }
      ],
      "name": "setPrices",
      "outputs": [],
      "stateMutability": "nonpayable",
      "type": "function"
    },
    {
      "inputs": [
        {
          "internalType": "bytes4",
          "name": "interfaceID",
          "type": "bytes4"
        }
      ],
      "name": "supportsInterface",
      "outputs": [
        {
          "internalType": "bool",
          "name": "",
          "type": "bool"
        }
      ],
      "stateMutability": "view",
      "type": "function"
    },
    {
      "inputs": [
        {
          "internalType": "address",
          "name": "newOwner",
          "type": "address"
        }
      ],
      "name": "transferOwnership",
      "outputs": [],
      "stateMutability": "nonpayable",
      "type": "function"
    }
  ],
  "transactionHash": "0x60a2db656ee1d05a783ff051c00c0e3dc177fcfe83941f67ab950a85bd361d68",
  "args": [
    "0x4faF01d7A1c2BA04b63c126fEfF4e1ecbA21d205",
    "0x3b00ef435fa4fcff5c209a37d1f3dcff37c705ad",
    [
      5000000000,
      1200000000,
      40000000
    ]
  ],
  "solcInputHash": "8acfa5d5fc60624983e398adee1f7112",
  "bytecode": "0x60806040523480156200001157600080fd5b506040516200243938038062002439833981810160405281019062000037919062000424565b620000576200004b620000f360201b60201c565b620000fb60201b60201c565b82600260006101000a81548173ffffffffffffffffffffffffffffffffffffffff021916908373ffffffffffffffffffffffffffffffffffffffff16021790555081600460006101000a81548173ffffffffffffffffffffffffffffffffffffffff021916908373ffffffffffffffffffffffffffffffffffffffff160217905550620000ea81620001bf60201b60201c565b50505062000776565b600033905090565b60008060009054906101000a900473ffffffffffffffffffffffffffffffffffffffff169050816000806101000a81548173ffffffffffffffffffffffffffffffffffffffff021916908373ffffffffffffffffffffffffffffffffffffffff1602179055508173ffffffffffffffffffffffffffffffffffffffff168173ffffffffffffffffffffffffffffffffffffffff167f8be0079c531659141344cd1fd0a4f28419497f9722a3daafe3b4186f6b6457e060405160405180910390a35050565b620001cf620000f360201b60201c565b73ffffffffffffffffffffffffffffffffffffffff16620001f5620002a360201b60201c565b73ffffffffffffffffffffffffffffffffffffffff16146200024e576040517f08c379a0000000000000000000000000000000000000000000000000000000008152600401620002459062000573565b60405180910390fd5b806001908051906020019062000266929190620002cc565b507f73422d94aedd596c2d4d39f27a01033adc390a9054efaf259afefd95ef7331df816040516200029891906200054f565b60405180910390a150565b60008060009054906101000a900473ffffffffffffffffffffffffffffffffffffffff16905090565b8280548282559060005260206000209081019282156200030b579160200282015b828111156200030a578251825591602001919060010190620002ed565b5b5090506200031a91906200031e565b5090565b5b80821115620003395760008160009055506001016200031f565b5090565b6000620003546200034e84620005be565b62000595565b905080838252602082019050828560208602820111156200037457600080fd5b60005b85811015620003a857816200038d88826200040d565b84526020840193506020830192505060018101905062000377565b5050509392505050565b600081519050620003c38162000728565b92915050565b600082601f830112620003db57600080fd5b8151620003ed8482602086016200033d565b91505092915050565b600081519050620004078162000742565b92915050565b6000815190506200041e816200075c565b92915050565b6000806000606084860312156200043a57600080fd5b60006200044a86828701620003f6565b93505060206200045d86828701620003b2565b925050604084015167ffffffffffffffff8111156200047b57600080fd5b6200048986828701620003c9565b9150509250925092565b6000620004a183836200053e565b60208301905092915050565b6000620004ba82620005fd565b620004c6818562000615565b9350620004d383620005ed565b8060005b838110156200050a578151620004ee888262000493565b9750620004fb8362000608565b925050600181019050620004d7565b5085935050505092915050565b60006200052660208362000626565b91506200053382620006ff565b602082019050919050565b62000549816200067f565b82525050565b600060208201905081810360008301526200056b8184620004ad565b905092915050565b600060208201905081810360008301526200058e8162000517565b9050919050565b6000620005a1620005b4565b9050620005af828262000689565b919050565b6000604051905090565b600067ffffffffffffffff821115620005dc57620005db620006bf565b5b602082029050602081019050919050565b6000819050602082019050919050565b600081519050919050565b6000602082019050919050565b600082825260208201905092915050565b600082825260208201905092915050565b600062000644826200065f565b9050919050565b6000620006588262000637565b9050919050565b600073ffffffffffffffffffffffffffffffffffffffff82169050919050565b6000819050919050565b6200069482620006ee565b810181811067ffffffffffffffff82111715620006b657620006b5620006bf565b5b80604052505050565b7f4e487b7100000000000000000000000000000000000000000000000000000000600052604160045260246000fd5b6000601f19601f8301169050919050565b7f4f776e61626c653a2063616c6c6572206973206e6f7420746865206f776e6572600082015250565b620007338162000637565b81146200073f57600080fd5b50565b6200074d816200064b565b81146200075957600080fd5b50565b62000767816200067f565b81146200077357600080fd5b50565b611cb380620007866000396000f3fe608060405234801561001057600080fd5b506004361061009d5760003560e01c80638da5cb5b116100665780638da5cb5b14610144578063a34e359614610162578063b5d93ba914610192578063e3f1bc2b146101c2578063f2fde38b146101e05761009d565b806245a3d7146100a257806301ffc9a7146100be57806306d5d0b6146100ee578063715018a61461011e57806379cf92d314610128575b600080fd5b6100bc60048036038101906100b791906112bd565b6101fc565b005b6100d860048036038101906100d39190611294565b6102bc565b6040516100e59190611589565b60405180910390f35b610108600480360381019061010391906113e4565b6103b0565b6040516101159190611628565b60405180910390f35b6101266103d4565b005b610142600480360381019061013d9190611212565b61045c565b005b61014c610529565b604051610159919061154c565b60405180910390f35b61017c600480360381019061017791906112e6565b610552565b6040516101899190611628565b60405180910390f35b6101ac60048036038101906101a79190611352565b6105ad565b6040516101b99190611628565b60405180910390f35b6101ca610736565b6040516101d791906115a4565b60405180910390f35b6101fa60048036038101906101f591906111e9565b61075c565b005b610204610854565b73ffffffffffffffffffffffffffffffffffffffff16610222610529565b73ffffffffffffffffffffffffffffffffffffffff1614610278576040517f08c379a000000000000000000000000000000000000000000000000000000000815260040161026f90611608565b60405180910390fd5b80600260006101000a81548173ffffffffffffffffffffffffffffffffffffffff021916908373ffffffffffffffffffffffffffffffffffffffff16021790555050565b60007f01ffc9a7a5cef8baa21ed3c5c0d7e23accb804b619e9333b597f47a0d84076e27bffffffffffffffffffffffffffffffffffffffffffffffffffffffff1916827bffffffffffffffffffffffffffffffffffffffffffffffffffffffff191614806103a957507fa34e3596c835a2bb0c76af3bc7896686f9d9abbb37ea27272246c0e9dab761c57f50e9a715a506f81ba3cfca69197fa8231c19274521697ca4e52316238d69d8a9187bffffffffffffffffffffffffffffffffffffffffffffffffffffffff1916827bffffffffffffffffffffffffffffffffffffffffffffffffffffffff1916145b9050919050565b600181815481106103c057600080fd5b906000526020600020016000915090505481565b6103dc610854565b73ffffffffffffffffffffffffffffffffffffffff166103fa610529565b73ffffffffffffffffffffffffffffffffffffffff1614610450576040517f08c379a000000000000000000000000000000000000000000000000000000000815260040161044790611608565b60405180910390fd5b61045a600061085c565b565b610464610854565b73ffffffffffffffffffffffffffffffffffffffff16610482610529565b73ffffffffffffffffffffffffffffffffffffffff16146104d8576040517f08c379a00000000000000000000000000000000000000000000000000000000081526004016104cf90611608565b60405180910390fd5b80600190805190602001906104ee929190610f76565b507f73422d94aedd596c2d4d39f27a01033adc390a9054efaf259afefd95ef7331df8160405161051e9190611567565b60405180910390a150565b60008060009054906101000a900473ffffffffffffffffffffffffffffffffffffffff16905090565b60006105a385858080601f016020809104026020016040519081016040528093929190818152602001838380828437600081840152601f19601f820116905080830192505050505050508484610920565b9050949350505050565b6000806105fd88888080601f016020809104026020016040519081016040528093929190818152602001838380828437600081840152601f19601f82011690508083019250505050505050610929565b90506001805490508111156106155760018054905090505b6000811161062257600080fd5b600061069c6301e1853e61068e886001808761063e9190611959565b81548110610675577f4e487b7100000000000000000000000000000000000000000000000000000000600052603260045260246000fd5b9060005260206000200154610b0490919063ffffffff16565b610b4990919063ffffffff16565b90506106ff6106f08a8a8080601f016020809104026020016040519081016040528093929190818152602001838380828437600081840152601f19601f820116905080830192505050505050508989610920565b82610b7190919063ffffffff16565b90506000851561071a576107138286610b99565b9050610726565b61072382610d15565b90505b8093505050509695505050505050565b600260009054906101000a900473ffffffffffffffffffffffffffffffffffffffff1681565b610764610854565b73ffffffffffffffffffffffffffffffffffffffff16610782610529565b73ffffffffffffffffffffffffffffffffffffffff16146107d8576040517f08c379a00000000000000000000000000000000000000000000000000000000081526004016107cf90611608565b60405180910390fd5b600073ffffffffffffffffffffffffffffffffffffffff168173ffffffffffffffffffffffffffffffffffffffff161415610848576040517f08c379a000000000000000000000000000000000000000000000000000000000815260040161083f906115e8565b60405180910390fd5b6108518161085c565b50565b600033905090565b60008060009054906101000a900473ffffffffffffffffffffffffffffffffffffffff169050816000806101000a81548173ffffffffffffffffffffffffffffffffffffffff021916908373ffffffffffffffffffffffffffffffffffffffff1602179055508173ffffffffffffffffffffffffffffffffffffffff168173ffffffffffffffffffffffffffffffffffffffff167f8be0079c531659141344cd1fd0a4f28419497f9722a3daafe3b4186f6b6457e060405160405180910390a35050565b60009392505050565b60008060008084519050600092505b80821015610af957600085838151811061097b577f4e487b7100000000000000000000000000000000000000000000000000000000600052603260045260246000fd5b602001015160f81c60f81b9050608060f81b817effffffffffffffffffffffffffffffffffffffffffffffffffffffffffffff191610156109ca576001836109c39190611707565b9250610ae5565b60e060f81b817effffffffffffffffffffffffffffffffffffffffffffffffffffffffffffff19161015610a0c57600283610a059190611707565b9250610ae4565b60f060f81b817effffffffffffffffffffffffffffffffffffffffffffffffffffffffffffff19161015610a4e57600383610a479190611707565b9250610ae3565b60f8801b817effffffffffffffffffffffffffffffffffffffffffffffffffffffffffffff19161015610a8f57600483610a889190611707565b9250610ae2565b60fc60f81b817effffffffffffffffffffffffffffffffffffffffffffffffffffffffffffff19161015610ad157600583610aca9190611707565b9250610ae1565b600683610ade9190611707565b92505b5b5b5b5b508280610af190611a87565b935050610938565b829350505050919050565b600080831415610b175760009050610b43565b60008284610b2591906118ff565b9050828482610b34919061175d565b14610b3e57600080fd5b809150505b92915050565b6000808211610b5757600080fd5b60008284610b65919061175d565b90508091505092915050565b6000808284610b809190611707565b905083811015610b8f57600080fd5b8091505092915050565b600080610ba584610d15565b90506000610bbd600283610b4990919063ffffffff16565b90506000600260009054906101000a900473ffffffffffffffffffffffffffffffffffffffff1673ffffffffffffffffffffffffffffffffffffffff1663ea498ade6001876040518363ffffffff1660e01b8152600401610c1f9291906115bf565b60006040518083038186803b158015610c3757600080fd5b505afa158015610c4b573d6000803e3d6000fd5b505050506040513d6000823e3d601f19601f82011682018060405250810190610c749190611253565b600081518110610cad577f4e487b7100000000000000000000000000000000000000000000000000000000600052603260045260246000fd5b602002602001015190506000610cf4610ce56103e8610cd760035486610b0490919063ffffffff16565b610b4990919063ffffffff16565b83610f4d90919063ffffffff16565b9050610d098184610b0490919063ffffffff16565b94505050505092915050565b600080600460009054906101000a900473ffffffffffffffffffffffffffffffffffffffff1673ffffffffffffffffffffffffffffffffffffffff1663313ce5676040518163ffffffff1660e01b815260040160206040518083038186803b158015610d8057600080fd5b505afa158015610d94573d6000803e3d6000fd5b505050506040513d601f19601f82011682018060405250810190610db8919061140d565b60ff16600a610dc791906117e1565b90506000600260009054906101000a900473ffffffffffffffffffffffffffffffffffffffff1673ffffffffffffffffffffffffffffffffffffffff166350a2394583600460009054906101000a900473ffffffffffffffffffffffffffffffffffffffff166040518363ffffffff1660e01b8152600401610e4a929190611643565b60006040518083038186803b158015610e6257600080fd5b505afa158015610e76573d6000803e3d6000fd5b505050506040513d6000823e3d601f19601f82011682018060405250810190610e9f9190611253565b600081518110610ed8577f4e487b7100000000000000000000000000000000000000000000000000000000600052603260045260246000fd5b60200260200101519050610f1d610f0e6103e8610f0060035485610b0490919063ffffffff16565b610b4990919063ffffffff16565b82610f4d90919063ffffffff16565b9050610f4482610f368387610b0490919063ffffffff16565b610b4990919063ffffffff16565b92505050919050565b600082821115610f5c57600080fd5b60008284610f6a9190611959565b90508091505092915050565b828054828255906000526020600020908101928215610fb2579160200282015b82811115610fb1578251825591602001919060010190610f96565b5b509050610fbf9190610fc3565b5090565b5b80821115610fdc576000816000905550600101610fc4565b5090565b6000610ff3610fee84611691565b61166c565b9050808382526020820190508285602086028201111561101257600080fd5b60005b85811015611042578161102888826111aa565b845260208401935060208301925050600181019050611015565b5050509392505050565b600061105f61105a84611691565b61166c565b9050808382526020820190508285602086028201111561107e57600080fd5b60005b858110156110ae578161109488826111bf565b845260208401935060208301925050600181019050611081565b5050509392505050565b6000813590506110c781611bf3565b92915050565b600082601f8301126110de57600080fd5b81356110ee848260208601610fe0565b91505092915050565b600082601f83011261110857600080fd5b815161111884826020860161104c565b91505092915050565b60008135905061113081611c0a565b92915050565b60008135905061114581611c21565b92915050565b60008135905061115a81611c38565b92915050565b60008083601f84011261117257600080fd5b8235905067ffffffffffffffff81111561118b57600080fd5b6020830191508360018202830111156111a357600080fd5b9250929050565b6000813590506111b981611c4f565b92915050565b6000815190506111ce81611c4f565b92915050565b6000815190506111e381611c66565b92915050565b6000602082840312156111fb57600080fd5b6000611209848285016110b8565b91505092915050565b60006020828403121561122457600080fd5b600082013567ffffffffffffffff81111561123e57600080fd5b61124a848285016110cd565b91505092915050565b60006020828403121561126557600080fd5b600082015167ffffffffffffffff81111561127f57600080fd5b61128b848285016110f7565b91505092915050565b6000602082840312156112a657600080fd5b60006112b484828501611136565b91505092915050565b6000602082840312156112cf57600080fd5b60006112dd8482850161114b565b91505092915050565b600080600080606085870312156112fc57600080fd5b600085013567ffffffffffffffff81111561131657600080fd5b61132287828801611160565b94509450506020611335878288016111aa565b9250506040611346878288016111aa565b91505092959194509250565b60008060008060008060a0878903121561136b57600080fd5b600087013567ffffffffffffffff81111561138557600080fd5b61139189828a01611160565b965096505060206113a489828a016111aa565b94505060406113b589828a016111aa565b93505060606113c689828a01611121565b92505060806113d789828a016110b8565b9150509295509295509295565b6000602082840312156113f657600080fd5b6000611404848285016111aa565b91505092915050565b60006020828403121561141f57600080fd5b600061142d848285016111d4565b91505092915050565b6000611442838361152e565b60208301905092915050565b6114578161198d565b82525050565b6000611468826116cd565b61147281856116e5565b935061147d836116bd565b8060005b838110156114ae5781516114958882611436565b97506114a0836116d8565b925050600181019050611481565b5085935050505092915050565b6114c48161199f565b82525050565b6114d381611a20565b82525050565b6114e281611a44565b82525050565b60006114f56026836116f6565b915061150082611b7b565b604082019050919050565b60006115186020836116f6565b915061152382611bca565b602082019050919050565b61153781611a09565b82525050565b61154681611a09565b82525050565b6000602082019050611561600083018461144e565b92915050565b60006020820190508181036000830152611581818461145d565b905092915050565b600060208201905061159e60008301846114bb565b92915050565b60006020820190506115b960008301846114ca565b92915050565b60006040820190506115d460008301856114d9565b6115e1602083018461144e565b9392505050565b60006020820190508181036000830152611601816114e8565b9050919050565b600060208201905081810360008301526116218161150b565b9050919050565b600060208201905061163d600083018461153d565b92915050565b6000604082019050611658600083018561153d565b611665602083018461144e565b9392505050565b6000611676611687565b90506116828282611a56565b919050565b6000604051905090565b600067ffffffffffffffff8211156116ac576116ab611b2e565b5b602082029050602081019050919050565b6000819050602082019050919050565b600081519050919050565b6000602082019050919050565b600082825260208201905092915050565b600082825260208201905092915050565b600061171282611a09565b915061171d83611a09565b9250827fffffffffffffffffffffffffffffffffffffffffffffffffffffffffffffffff0382111561175257611751611ad0565b5b828201905092915050565b600061176882611a09565b915061177383611a09565b92508261178357611782611aff565b5b828204905092915050565b6000808291508390505b60018511156117d8578086048111156117b4576117b3611ad0565b5b60018516156117c35780820291505b80810290506117d185611b6e565b9450611798565b94509492505050565b60006117ec82611a09565b91506117f783611a09565b92506118247fffffffffffffffffffffffffffffffffffffffffffffffffffffffffffffffff848461182c565b905092915050565b60008261183c57600190506118f8565b8161184a57600090506118f8565b8160018114611860576002811461186a57611899565b60019150506118f8565b60ff84111561187c5761187b611ad0565b5b8360020a91508482111561189357611892611ad0565b5b506118f8565b5060208310610133831016604e8410600b84101617156118ce5782820a9050838111156118c9576118c8611ad0565b5b6118f8565b6118db848484600161178e565b925090508184048111156118f2576118f1611ad0565b5b81810290505b9392505050565b600061190a82611a09565b915061191583611a09565b9250817fffffffffffffffffffffffffffffffffffffffffffffffffffffffffffffffff048311821515161561194e5761194d611ad0565b5b828202905092915050565b600061196482611a09565b915061196f83611a09565b92508282101561198257611981611ad0565b5b828203905092915050565b6000611998826119e9565b9050919050565b60008115159050919050565b60007fffffffff0000000000000000000000000000000000000000000000000000000082169050919050565b60006119e28261198d565b9050919050565b600073ffffffffffffffffffffffffffffffffffffffff82169050919050565b6000819050919050565b600060ff82169050919050565b6000611a2b82611a32565b9050919050565b6000611a3d826119e9565b9050919050565b6000611a4f82611a09565b9050919050565b611a5f82611b5d565b810181811067ffffffffffffffff82111715611a7e57611a7d611b2e565b5b80604052505050565b6000611a9282611a09565b91507fffffffffffffffffffffffffffffffffffffffffffffffffffffffffffffffff821415611ac557611ac4611ad0565b5b600182019050919050565b7f4e487b7100000000000000000000000000000000000000000000000000000000600052601160045260246000fd5b7f4e487b7100000000000000000000000000000000000000000000000000000000600052601260045260246000fd5b7f4e487b7100000000000000000000000000000000000000000000000000000000600052604160045260246000fd5b6000601f19601f8301169050919050565b60008160011c9050919050565b7f4f776e61626c653a206e6577206f776e657220697320746865207a65726f206160008201527f6464726573730000000000000000000000000000000000000000000000000000602082015250565b7f4f776e61626c653a2063616c6c6572206973206e6f7420746865206f776e6572600082015250565b611bfc8161198d565b8114611c0757600080fd5b50565b611c138161199f565b8114611c1e57600080fd5b50565b611c2a816119ab565b8114611c3557600080fd5b50565b611c41816119d7565b8114611c4c57600080fd5b50565b611c5881611a09565b8114611c6357600080fd5b50565b611c6f81611a13565b8114611c7a57600080fd5b5056fea26469706673582212206e2129ada74b9eb1bd6bcfc0391fe7cde8e61d9bb5c1be7ffa01b5e52480fea964736f6c63430008040033",
  "devdoc": {
    "kind": "dev",
    "methods": {
      "owner()": {
        "details": "Returns the address of the current owner."
      },
      "premium(string,uint256,uint256)": {
        "details": "Returns the pricing premium in wei."
      },
      "price(string,uint256,uint256,bool,address)": {
        "details": "Returns the price to register or renew a name.",
        "params": {
          "duration": "How long the name is being registered or extended for, in seconds.",
          "expires": "When the name presently expires (0 if this is a new registration).",
          "name": "The name being registered or renewed."
        },
        "returns": {
          "_0": "The price of this renewal or registration, in wei."
        }
      },
      "renounceOwnership()": {
        "details": "Leaves the contract without owner. It will not be possible to call `onlyOwner` functions anymore. Can only be called by the current owner. NOTE: Renouncing ownership will leave the contract without an owner, thereby removing any functionality that is only available to the owner."
      },
      "setPriceEstimator(address)": {
        "details": "Sets the price oracle address",
        "params": {
          "_priceEstimator": "The address of the price estimator to use."
        }
      },
      "setPrices(uint256[])": {
        "details": "Sets rent prices.",
        "params": {
          "_rentPrices": "The price array. Each element corresponds to a specific                    name length; names longer than the length of the array                    default to the price of the last element. Values are                    in base price units, equal to one attodollar (1e-18                    dollar) each."
        }
      },
      "transferOwnership(address)": {
        "details": "Transfers ownership of the contract to a new account (`newOwner`). Can only be called by the current owner."
      }
    },
    "version": 1
  },
  "userdoc": {
    "kind": "user",
    "methods": {},
    "version": 1
  },
  "storageLayout": {
    "storage": [
      {
        "astId": 760,
        "contract": "contracts/ethregistrar/StablePriceOracle.sol:StablePriceOracle",
        "label": "_owner",
        "offset": 0,
        "slot": "0",
        "type": "t_address"
      },
      {
        "astId": 15421,
        "contract": "contracts/ethregistrar/StablePriceOracle.sol:StablePriceOracle",
        "label": "rentPrices",
        "offset": 0,
        "slot": "1",
        "type": "t_array(t_uint256)dyn_storage"
      },
      {
        "astId": 15424,
        "contract": "contracts/ethregistrar/StablePriceOracle.sol:StablePriceOracle",
        "label": "priceEstimator",
        "offset": 0,
        "slot": "2",
        "type": "t_contract(IPriceEstimator)14030"
      },
      {
        "astId": 15426,
        "contract": "contracts/ethregistrar/StablePriceOracle.sol:StablePriceOracle",
        "label": "uniswapFeePercentage",
        "offset": 0,
        "slot": "3",
        "type": "t_uint256"
      },
      {
        "astId": 15428,
        "contract": "contracts/ethregistrar/StablePriceOracle.sol:StablePriceOracle",
        "label": "usdTokenAddress",
        "offset": 0,
        "slot": "4",
        "type": "t_address"
      }
    ],
    "types": {
      "t_address": {
        "encoding": "inplace",
        "label": "address",
        "numberOfBytes": "20"
      },
      "t_array(t_uint256)dyn_storage": {
        "base": "t_uint256",
        "encoding": "dynamic_array",
        "label": "uint256[]",
        "numberOfBytes": "32"
      },
      "t_contract(IPriceEstimator)14030": {
        "encoding": "inplace",
        "label": "contract IPriceEstimator",
        "numberOfBytes": "20"
      },
      "t_uint256": {
        "encoding": "inplace",
        "label": "uint256",
        "numberOfBytes": "32"
      }
    }
  }
}